
AVRASM ver. 2.1.2  Main.asm Tue Mar 14 11:48:12 2006

Main.asm(986): Including file 'Main.vec'
Main.asm(987): Including file 'Main.inc'
                 
                 
                 ;CodeVisionAVR C Compiler V1.24.8b Professional
                 ;(C) Copyright 1998-2006 Pavel Haiduc, HP InfoTech s.r.l.
                 ;http://www.hpinfotech.com
                 
                 ;Chip type              : ATmega128
                 ;Program type           : Application
                 ;Clock frequency        : 16.000000 MHz
                 ;Memory model           : Small
                 ;Optimize for           : Size
                 ;(s)printf features     : int, width
                 ;(s)scanf features      : int, width
                 ;External SRAM size     : 0
                 ;Data Stack size        : 1024 byte(s)
                 ;Heap size              : 0 byte(s)
                 ;Promote char to int    : No
                 ;char is unsigned       : Yes
                 ;8 bit enums            : Yes
                 ;Word align FLASH struct: No
                 ;Enhanced core instructions    : On
                 ;Automatic register allocation : On
                 
                 	#pragma AVRPART ADMIN PART_NAME ATmega128
                 	#pragma AVRPART MEMORY PROG_FLASH 131072
                 	#pragma AVRPART MEMORY EEPROM 4096
                 	#pragma AVRPART MEMORY INT_SRAM SIZE 4096
                 	#pragma AVRPART MEMORY INT_SRAM START_ADDR 0x100
                 
                 	.EQU UDRE=0x5
                 	.EQU RXC=0x7
                 	.EQU USR=0xB
                 	.EQU UDR=0xC
                 	.EQU SPSR=0xE
                 	.EQU SPDR=0xF
                 	.EQU EERE=0x0
                 	.EQU EEWE=0x1
                 	.EQU EEMWE=0x2
                 	.EQU EECR=0x1C
                 	.EQU EEDR=0x1D
                 	.EQU EEARL=0x1E
                 	.EQU EEARH=0x1F
                 	.EQU WDTCR=0x21
                 	.EQU MCUCR=0x35
                 	.EQU RAMPZ=0x3B
                 	.EQU SPL=0x3D
                 	.EQU SPH=0x3E
                 	.EQU SREG=0x3F
                 	.EQU XMCRA=0x6D
                 	.EQU XMCRB=0x6C
                 
                 	.DEF R0X0=R0
                 	.DEF R0X1=R1
                 	.DEF R0X2=R2
                 	.DEF R0X3=R3
                 	.DEF R0X4=R4
                 	.DEF R0X5=R5
                 	.DEF R0X6=R6
                 	.DEF R0X7=R7
                 	.DEF R0X8=R8
                 	.DEF R0X9=R9
                 	.DEF R0XA=R10
                 	.DEF R0XB=R11
                 	.DEF R0XC=R12
                 	.DEF R0XD=R13
                 	.DEF R0XE=R14
                 	.DEF R0XF=R15
                 	.DEF R0X10=R16
                 	.DEF R0X11=R17
                 	.DEF R0X12=R18
                 	.DEF R0X13=R19
                 	.DEF R0X14=R20
                 	.DEF R0X15=R21
                 	.DEF R0X16=R22
                 	.DEF R0X17=R23
                 	.DEF R0X18=R24
                 	.DEF R0X19=R25
                 	.DEF R0X1A=R26
                 	.DEF R0X1B=R27
                 	.DEF R0X1C=R28
                 	.DEF R0X1D=R29
                 	.DEF R0X1E=R30
                 	.DEF R0X1F=R31
                 
                 	.EQU __se_bit=0x20
                 	.EQU __sm_mask=0x1C
                 	.EQU __sm_adc_noise_red=0x08
                 	.EQU __sm_powerdown=0x10
                 	.EQU __sm_powersave=0x18
                 	.EQU __sm_standby=0x14
                 	.EQU __sm_ext_standby=0x1C
                 
                 	.MACRO __CPD1N
                 	CPI  R30,LOW(@0)
                 	LDI  R26,HIGH(@0)
                 	CPC  R31,R26
                 	LDI  R26,BYTE3(@0)
                 	CPC  R22,R26
                 	LDI  R26,BYTE4(@0)
                 	CPC  R23,R26
                 	.ENDM
                 
                 	.MACRO __CPD2N
                 	CPI  R26,LOW(@0)
                 	LDI  R30,HIGH(@0)
                 	CPC  R27,R30
                 	LDI  R30,BYTE3(@0)
                 	CPC  R24,R30
                 	LDI  R30,BYTE4(@0)
                 	CPC  R25,R30
                 	.ENDM
                 
                 	.MACRO __CPWRR
                 	CP   R@0,R@2
                 	CPC  R@1,R@3
                 	.ENDM
                 
                 	.MACRO __CPWRN
                 	CPI  R@0,LOW(@2)
                 	LDI  R30,HIGH(@2)
                 	CPC  R@1,R30
                 	.ENDM
                 
                 	.MACRO __ADDB1MN
                 	SUBI R30,LOW(-@0-(@1))
                 	.ENDM
                 	.MACRO __ADDB2MN
                 	SUBI R26,LOW(-@0-(@1))
                 	.ENDM
                 	.MACRO __ADDW1MN
                 	SUBI R30,LOW(-@0-(@1))
                 	SBCI R31,HIGH(-@0-(@1))
                 	.ENDM
                 	.MACRO __ADDW2MN
                 	SUBI R26,LOW(-@0-(@1))
                 	SBCI R27,HIGH(-@0-(@1))
                 	.ENDM
                 	.MACRO __ADDW1FN
                 	SUBI R30,LOW(-2*@0-(@1))
                 	SBCI R31,HIGH(-2*@0-(@1))
                 	.ENDM
                 	.MACRO __ADDD1FN
                 	SUBI R30,LOW(-2*@0-(@1))
                 	SBCI R31,HIGH(-2*@0-(@1))
                 	SBCI R22,BYTE3(-2*@0-(@1))
                 	.ENDM
                 	.MACRO __ADDD1N
                 	SUBI R30,LOW(-@0)
                 	SBCI R31,HIGH(-@0)
                 	SBCI R22,BYTE3(-@0)
                 	SBCI R23,BYTE4(-@0)
                 	.ENDM
                 
                 	.MACRO __ADDD2N
                 	SUBI R26,LOW(-@0)
                 	SBCI R27,HIGH(-@0)
                 	SBCI R24,BYTE3(-@0)
                 	SBCI R25,BYTE4(-@0)
                 	.ENDM
                 
                 	.MACRO __SUBD1N
                 	SUBI R30,LOW(@0)
                 	SBCI R31,HIGH(@0)
                 	SBCI R22,BYTE3(@0)
                 	SBCI R23,BYTE4(@0)
                 	.ENDM
                 
                 	.MACRO __SUBD2N
                 	SUBI R26,LOW(@0)
                 	SBCI R27,HIGH(@0)
                 	SBCI R24,BYTE3(@0)
                 	SBCI R25,BYTE4(@0)
                 	.ENDM
                 
                 	.MACRO __ANDBMNN
                 	LDS  R30,@0+@1
                 	ANDI R30,LOW(@2)
                 	STS  @0+@1,R30
                 	.ENDM
                 
                 	.MACRO __ANDWMNN
                 	LDS  R30,@0+@1
                 	ANDI R30,LOW(@2)
                 	STS  @0+@1,R30
                 	LDS  R30,@0+@1+1
                 	ANDI R30,HIGH(@2)
                 	STS  @0+@1+1,R30
                 	.ENDM
                 
                 	.MACRO __ANDD1N
                 	ANDI R30,LOW(@0)
                 	ANDI R31,HIGH(@0)
                 	ANDI R22,BYTE3(@0)
                 	ANDI R23,BYTE4(@0)
                 	.ENDM
                 
                 	.MACRO __ORBMNN
                 	LDS  R30,@0+@1
                 	ORI  R30,LOW(@2)
                 	STS  @0+@1,R30
                 	.ENDM
                 
                 	.MACRO __ORWMNN
                 	LDS  R30,@0+@1
                 	ORI  R30,LOW(@2)
                 	STS  @0+@1,R30
                 	LDS  R30,@0+@1+1
                 	ORI  R30,HIGH(@2)
                 	STS  @0+@1+1,R30
                 	.ENDM
                 
                 	.MACRO __ORD1N
                 	ORI  R30,LOW(@0)
                 	ORI  R31,HIGH(@0)
                 	ORI  R22,BYTE3(@0)
                 	ORI  R23,BYTE4(@0)
                 	.ENDM
                 
                 	.MACRO __DELAY_USB
                 	LDI  R24,LOW(@0)
                 __DELAY_USB_LOOP:
                 	DEC  R24
                 	BRNE __DELAY_USB_LOOP
                 	.ENDM
                 
                 	.MACRO __DELAY_USW
                 	LDI  R24,LOW(@0)
                 	LDI  R25,HIGH(@0)
                 __DELAY_USW_LOOP:
                 	SBIW R24,1
                 	BRNE __DELAY_USW_LOOP
                 	.ENDM
                 
                 	.MACRO __CLRD1S
                 	LDI  R30,0
                 	STD  Y+@0,R30
                 	STD  Y+@0+1,R30
                 	STD  Y+@0+2,R30
                 	STD  Y+@0+3,R30
                 	.ENDM
                 
                 	.MACRO __GETD1S
                 	LDD  R30,Y+@0
                 	LDD  R31,Y+@0+1
                 	LDD  R22,Y+@0+2
                 	LDD  R23,Y+@0+3
                 	.ENDM
                 
                 	.MACRO __PUTD1S
                 	STD  Y+@0,R30
                 	STD  Y+@0+1,R31
                 	STD  Y+@0+2,R22
                 	STD  Y+@0+3,R23
                 	.ENDM
                 
                 	.MACRO __PUTD2S
                 	STD  Y+@0,R26
                 	STD  Y+@0+1,R27
                 	STD  Y+@0+2,R24
                 	STD  Y+@0+3,R25
                 	.ENDM
                 
                 	.MACRO __POINTB1MN
                 	LDI  R30,LOW(@0+@1)
                 	.ENDM
                 
                 	.MACRO __POINTW1MN
                 	LDI  R30,LOW(@0+@1)
                 	LDI  R31,HIGH(@0+@1)
                 	.ENDM
                 
                 	.MACRO __POINTW1FN
                 	LDI  R30,LOW(2*@0+@1)
                 	LDI  R31,HIGH(2*@0+@1)
                 	.ENDM
                 
                 	.MACRO __POINTD1FN
                 	LDI  R30,LOW(2*@0+@1)
                 	LDI  R31,HIGH(2*@0+@1)
                 	LDI  R22,BYTE3(2*@0+@1)
                 	.ENDM
                 
                 	.MACRO __POINTB2MN
                 	LDI  R26,LOW(@0+@1)
                 	.ENDM
                 
                 	.MACRO __POINTW2MN
                 	LDI  R26,LOW(@0+@1)
                 	LDI  R27,HIGH(@0+@1)
                 	.ENDM
                 
                 	.MACRO __POINTBRM
                 	LDI  R@0,LOW(@1)
                 	.ENDM
                 
                 	.MACRO __POINTWRM
                 	LDI  R@0,LOW(@2)
                 	LDI  R@1,HIGH(@2)
                 	.ENDM
                 
                 	.MACRO __POINTBRMN
                 	LDI  R@0,LOW(@1+@2)
                 	.ENDM
                 
                 	.MACRO __POINTWRMN
                 	LDI  R@0,LOW(@2+@3)
                 	LDI  R@1,HIGH(@2+@3)
                 	.ENDM
                 
                 	.MACRO __POINTWRFN
                 	LDI  R@0,LOW(@2*2+@3)
                 	LDI  R@1,HIGH(@2*2+@3)
                 	.ENDM
                 
                 	.MACRO __GETD1N
                 	LDI  R30,LOW(@0)
                 	LDI  R31,HIGH(@0)
                 	LDI  R22,BYTE3(@0)
                 	LDI  R23,BYTE4(@0)
                 	.ENDM
                 
                 	.MACRO __GETD2N
                 	LDI  R26,LOW(@0)
                 	LDI  R27,HIGH(@0)
                 	LDI  R24,BYTE3(@0)
                 	LDI  R25,BYTE4(@0)
                 	.ENDM
                 
                 	.MACRO __GETD2S
                 	LDD  R26,Y+@0
                 	LDD  R27,Y+@0+1
                 	LDD  R24,Y+@0+2
                 	LDD  R25,Y+@0+3
                 	.ENDM
                 
                 	.MACRO __GETB1MN
                 	LDS  R30,@0+@1
                 	.ENDM
                 
                 	.MACRO __GETB1HMN
                 	LDS  R31,@0+@1
                 	.ENDM
                 
                 	.MACRO __GETW1MN
                 	LDS  R30,@0+@1
                 	LDS  R31,@0+@1+1
                 	.ENDM
                 
                 	.MACRO __GETD1MN
                 	LDS  R30,@0+@1
                 	LDS  R31,@0+@1+1
                 	LDS  R22,@0+@1+2
                 	LDS  R23,@0+@1+3
                 	.ENDM
                 
                 	.MACRO __GETBRMN
                 	LDS  R@0,@1+@2
                 	.ENDM
                 
                 	.MACRO __GETWRMN
                 	LDS  R@0,@2+@3
                 	LDS  R@1,@2+@3+1
                 	.ENDM
                 
                 	.MACRO __GETWRZ
                 	LDD  R@0,Z+@2
                 	LDD  R@1,Z+@2+1
                 	.ENDM
                 
                 	.MACRO __GETD2Z
                 	LDD  R26,Z+@0
                 	LDD  R27,Z+@0+1
                 	LDD  R24,Z+@0+2
                 	LDD  R25,Z+@0+3
                 	.ENDM
                 
                 	.MACRO __GETB2MN
                 	LDS  R26,@0+@1
                 	.ENDM
                 
                 	.MACRO __GETW2MN
                 	LDS  R26,@0+@1
                 	LDS  R27,@0+@1+1
                 	.ENDM
                 
                 	.MACRO __GETD2MN
                 	LDS  R26,@0+@1
                 	LDS  R27,@0+@1+1
                 	LDS  R24,@0+@1+2
                 	LDS  R25,@0+@1+3
                 	.ENDM
                 
                 	.MACRO __PUTB1MN
                 	STS  @0+@1,R30
                 	.ENDM
                 
                 	.MACRO __PUTW1MN
                 	STS  @0+@1,R30
                 	STS  @0+@1+1,R31
                 	.ENDM
                 
                 	.MACRO __PUTD1MN
                 	STS  @0+@1,R30
                 	STS  @0+@1+1,R31
                 	STS  @0+@1+2,R22
                 	STS  @0+@1+3,R23
                 	.ENDM
                 
                 	.MACRO __PUTDZ2
                 	STD  Z+@0,R26
                 	STD  Z+@0+1,R27
                 	STD  Z+@0+2,R24
                 	STD  Z+@0+3,R25
                 	.ENDM
                 
                 	.MACRO __PUTBMRN
                 	STS  @0+@1,R@2
                 	.ENDM
                 
                 	.MACRO __PUTWMRN
                 	STS  @0+@1,R@2
                 	STS  @0+@1+1,R@3
                 	.ENDM
                 
                 	.MACRO __PUTBZR
                 	STD  Z+@1,R@0
                 	.ENDM
                 
                 	.MACRO __PUTWZR
                 	STD  Z+@2,R@0
                 	STD  Z+@2+1,R@1
                 	.ENDM
                 
                 	.MACRO __GETW1R
                 	MOV  R30,R@0
                 	MOV  R31,R@1
                 	.ENDM
                 
                 	.MACRO __GETW2R
                 	MOV  R26,R@0
                 	MOV  R27,R@1
                 	.ENDM
                 
                 	.MACRO __GETWRN
                 	LDI  R@0,LOW(@2)
                 	LDI  R@1,HIGH(@2)
                 	.ENDM
                 
                 	.MACRO __PUTW1R
                 	MOV  R@0,R30
                 	MOV  R@1,R31
                 	.ENDM
                 
                 	.MACRO __PUTW2R
                 	MOV  R@0,R26
                 	MOV  R@1,R27
                 	.ENDM
                 
                 	.MACRO __ADDWRN
                 	SUBI R@0,LOW(-@2)
                 	SBCI R@1,HIGH(-@2)
                 	.ENDM
                 
                 	.MACRO __ADDWRR
                 	ADD  R@0,R@2
                 	ADC  R@1,R@3
                 	.ENDM
                 
                 	.MACRO __SUBWRN
                 	SUBI R@0,LOW(@2)
                 	SBCI R@1,HIGH(@2)
                 	.ENDM
                 
                 	.MACRO __SUBWRR
                 	SUB  R@0,R@2
                 	SBC  R@1,R@3
                 	.ENDM
                 
                 	.MACRO __ANDWRN
                 	ANDI R@0,LOW(@2)
                 	ANDI R@1,HIGH(@2)
                 	.ENDM
                 
                 	.MACRO __ANDWRR
                 	AND  R@0,R@2
                 	AND  R@1,R@3
                 	.ENDM
                 
                 	.MACRO __ORWRN
                 	ORI  R@0,LOW(@2)
                 	ORI  R@1,HIGH(@2)
                 	.ENDM
                 
                 	.MACRO __ORWRR
                 	OR   R@0,R@2
                 	OR   R@1,R@3
                 	.ENDM
                 
                 	.MACRO __EORWRR
                 	EOR  R@0,R@2
                 	EOR  R@1,R@3
                 	.ENDM
                 
                 	.MACRO __GETWRS
                 	LDD  R@0,Y+@2
                 	LDD  R@1,Y+@2+1
                 	.ENDM
                 
                 	.MACRO __PUTWSR
                 	STD  Y+@2,R@0
                 	STD  Y+@2+1,R@1
                 	.ENDM
                 
                 	.MACRO __MOVEWRR
                 	MOV  R@0,R@2
                 	MOV  R@1,R@3
                 	.ENDM
                 
                 	.MACRO __INWR
                 	IN   R@0,@2
                 	IN   R@1,@2+1
                 	.ENDM
                 
                 	.MACRO __OUTWR
                 	OUT  @2+1,R@1
                 	OUT  @2,R@0
                 	.ENDM
                 
                 	.MACRO __CALL1MN
                 	LDS  R30,@0+@1
                 	LDS  R31,@0+@1+1
                 	ICALL
                 	.ENDM
                 
                 	.MACRO __CALL1FN
                 	LDI  R30,LOW(2*@0+@1)
                 	LDI  R31,HIGH(2*@0+@1)
                 	CALL __GETW1PF
                 	ICALL
                 	.ENDM
                 
                 	.MACRO __CALL2EN
                 	LDI  R26,LOW(@0+@1)
                 	LDI  R27,HIGH(@0+@1)
                 	CALL __EEPROMRDW
                 	ICALL
                 	.ENDM
                 
                 	.MACRO __GETW1STACK
                 	IN   R26,SPL
                 	IN   R27,SPH
                 	ADIW R26,@0+1
                 	LD   R30,X+
                 	LD   R31,X
                 	.ENDM
                 
                 	.MACRO __NBST
                 	BST  R@0,@1
                 	IN   R30,SREG
                 	LDI  R31,0x40
                 	EOR  R30,R31
                 	OUT  SREG,R30
                 	.ENDM
                 
                 
                 	.MACRO __PUTB1SN
                 	LDD  R26,Y+@0
                 	LDD  R27,Y+@0+1
                 	SUBI R26,LOW(-@1)
                 	SBCI R27,HIGH(-@1)
                 	ST   X,R30
                 	.ENDM
                 
                 	.MACRO __PUTW1SN
                 	LDD  R26,Y+@0
                 	LDD  R27,Y+@0+1
                 	SUBI R26,LOW(-@1)
                 	SBCI R27,HIGH(-@1)
                 	ST   X+,R30
                 	ST   X,R31
                 	.ENDM
                 
                 	.MACRO __PUTD1SN
                 	LDD  R26,Y+@0
                 	LDD  R27,Y+@0+1
                 	SUBI R26,LOW(-@1)
                 	SBCI R27,HIGH(-@1)
                 	CALL __PUTDP1
                 	.ENDM
                 
                 	.MACRO __PUTB1SNS
                 	LDD  R26,Y+@0
                 	LDD  R27,Y+@0+1
                 	ADIW R26,@1
                 	ST   X,R30
                 	.ENDM
                 
                 	.MACRO __PUTW1SNS
                 	LDD  R26,Y+@0
                 	LDD  R27,Y+@0+1
                 	ADIW R26,@1
                 	ST   X+,R30
                 	ST   X,R31
                 	.ENDM
                 
                 	.MACRO __PUTD1SNS
                 	LDD  R26,Y+@0
                 	LDD  R27,Y+@0+1
                 	ADIW R26,@1
                 	CALL __PUTDP1
                 	.ENDM
                 
                 	.MACRO __PUTB1PMN
                 	LDS  R26,@0
                 	LDS  R27,@0+1
                 	SUBI R26,LOW(-@1)
                 	SBCI R27,HIGH(-@1)
                 	ST   X,R30
                 	.ENDM
                 
                 	.MACRO __PUTW1PMN
                 	LDS  R26,@0
                 	LDS  R27,@0+1
                 	SUBI R26,LOW(-@1)
                 	SBCI R27,HIGH(-@1)
                 	ST   X+,R30
                 	ST   X,R31
                 	.ENDM
                 
                 	.MACRO __PUTD1PMN
                 	LDS  R26,@0
                 	LDS  R27,@0+1
                 	SUBI R26,LOW(-@1)
                 	SBCI R27,HIGH(-@1)
                 	CALL __PUTDP1
                 	.ENDM
                 
                 	.MACRO __PUTB1PMNS
                 	LDS  R26,@0
                 	LDS  R27,@0+1
                 	ADIW R26,@1
                 	ST   X,R30
                 	.ENDM
                 
                 	.MACRO __PUTW1PMNS
                 	LDS  R26,@0
                 	LDS  R27,@0+1
                 	ADIW R26,@1
                 	ST   X+,R30
                 	ST   X,R31
                 	.ENDM
                 
                 	.MACRO __PUTD1PMNS
                 	LDS  R26,@0
                 	LDS  R27,@0+1
                 	ADIW R26,@1
                 	CALL __PUTDP1
                 	.ENDM
                 
                 	.MACRO __PUTB1RN
                 	MOVW R26,R@0
                 	SUBI R26,LOW(-@1)
                 	SBCI R27,HIGH(-@1)
                 	ST   X,R30
                 	.ENDM
                 
                 	.MACRO __PUTW1RN
                 	MOVW R26,R@0
                 	SUBI R26,LOW(-@1)
                 	SBCI R27,HIGH(-@1)
                 	ST   X+,R30
                 	ST   X,R31
                 	.ENDM
                 
                 	.MACRO __PUTD1RN
                 	MOVW R26,R@0
                 	SUBI R26,LOW(-@1)
                 	SBCI R27,HIGH(-@1)
                 	CALL __PUTDP1
                 	.ENDM
                 
                 	.MACRO __PUTB1RNS
                 	MOVW R26,R@0
                 	ADIW R26,@1
                 	ST   X,R30
                 	.ENDM
                 
                 	.MACRO __PUTW1RNS
                 	MOVW R26,R@0
                 	ADIW R26,@1
                 	ST   X+,R30
                 	ST   X,R31
                 	.ENDM
                 
                 	.MACRO __PUTD1RNS
                 	MOVW R26,R@0
                 	ADIW R26,@1
                 	CALL __PUTDP1
                 	.ENDM
                 
                 	.MACRO __PUTB1RON
                 	MOV  R26,R@0
                 	MOV  R27,R@1
                 	SUBI R26,LOW(-@2)
                 	SBCI R27,HIGH(-@2)
                 	ST   X,R30
                 	.ENDM
                 
                 	.MACRO __PUTW1RON
                 	MOV  R26,R@0
                 	MOV  R27,R@1
                 	SUBI R26,LOW(-@2)
                 	SBCI R27,HIGH(-@2)
                 	ST   X+,R30
                 	ST   X,R31
                 	.ENDM
                 
                 	.MACRO __PUTD1RON
                 	MOV  R26,R@0
                 	MOV  R27,R@1
                 	SUBI R26,LOW(-@2)
                 	SBCI R27,HIGH(-@2)
                 	CALL __PUTDP1
                 	.ENDM
                 
                 	.MACRO __PUTB1RONS
                 	MOV  R26,R@0
                 	MOV  R27,R@1
                 	ADIW R26,@2
                 	ST   X,R30
                 	.ENDM
                 
                 	.MACRO __PUTW1RONS
                 	MOV  R26,R@0
                 	MOV  R27,R@1
                 	ADIW R26,@2
                 	ST   X+,R30
                 	ST   X,R31
                 	.ENDM
                 
                 	.MACRO __PUTD1RONS
                 	MOV  R26,R@0
                 	MOV  R27,R@1
                 	ADIW R26,@2
                 	CALL __PUTDP1
                 	.ENDM
                 
                 
                 	.MACRO __GETB1SX
                 	MOVW R30,R28
                 	SUBI R30,LOW(-@0)
                 	SBCI R31,HIGH(-@0)
                 	LD   R30,Z
                 	.ENDM
                 
                 	.MACRO __GETB1HSX
                 	MOVW R30,R28
                 	SUBI R30,LOW(-@0)
                 	SBCI R31,HIGH(-@0)
                 	LD   R31,Z
                 	.ENDM
                 
                 	.MACRO __GETW1SX
                 	MOVW R30,R28
                 	SUBI R30,LOW(-@0)
                 	SBCI R31,HIGH(-@0)
                 	LD   R0,Z+
                 	LD   R31,Z
                 	MOV  R30,R0
                 	.ENDM
                 
                 	.MACRO __GETD1SX
                 	MOVW R30,R28
                 	SUBI R30,LOW(-@0)
                 	SBCI R31,HIGH(-@0)
                 	LD   R0,Z+
                 	LD   R1,Z+
                 	LD   R22,Z+
                 	LD   R23,Z
                 	MOVW R30,R0
                 	.ENDM
                 
                 	.MACRO __GETB2SX
                 	MOVW R26,R28
                 	SUBI R26,LOW(-@0)
                 	SBCI R27,HIGH(-@0)
                 	LD   R26,X
                 	.ENDM
                 
                 	.MACRO __GETW2SX
                 	MOVW R26,R28
                 	SUBI R26,LOW(-@0)
                 	SBCI R27,HIGH(-@0)
                 	LD   R0,X+
                 	LD   R27,X
                 	MOV  R26,R0
                 	.ENDM
                 
                 	.MACRO __GETD2SX
                 	MOVW R26,R28
                 	SUBI R26,LOW(-@0)
                 	SBCI R27,HIGH(-@0)
                 	LD   R0,X+
                 	LD   R1,X+
                 	LD   R24,X+
                 	LD   R25,X
                 	MOVW R26,R0
                 	.ENDM
                 
                 	.MACRO __GETBRSX
                 	MOVW R30,R28
                 	SUBI R30,LOW(-@1)
                 	SBCI R31,HIGH(-@1)
                 	LD   R@0,Z
                 	.ENDM
                 
                 	.MACRO __GETWRSX
                 	MOVW R30,R28
                 	SUBI R30,LOW(-@2)
                 	SBCI R31,HIGH(-@2)
                 	LD   R@0,Z+
                 	LD   R@1,Z
                 	.ENDM
                 
                 	.MACRO __LSLW8SX
                 	MOVW R30,R28
                 	SUBI R30,LOW(-@0)
                 	SBCI R31,HIGH(-@0)
                 	LD   R31,Z
                 	CLR  R30
                 	.ENDM
                 
                 	.MACRO __PUTB1SX
                 	MOVW R26,R28
                 	SUBI R26,LOW(-@0)
                 	SBCI R27,HIGH(-@0)
                 	ST   X,R30
                 	.ENDM
                 
                 	.MACRO __PUTW1SX
                 	MOVW R26,R28
                 	SUBI R26,LOW(-@0)
                 	SBCI R27,HIGH(-@0)
                 	ST   X+,R30
                 	ST   X,R31
                 	.ENDM
                 
                 	.MACRO __PUTD1SX
                 	MOVW R26,R28
                 	SUBI R26,LOW(-@0)
                 	SBCI R27,HIGH(-@0)
                 	ST   X+,R30
                 	ST   X+,R31
                 	ST   X+,R22
                 	ST   X,R23
                 	.ENDM
                 
                 	.MACRO __CLRW1SX
                 	MOVW R30,R28
                 	SUBI R30,LOW(-@0)
                 	SBCI R31,HIGH(-@0)
                 	CLR  R0
                 	ST   Z+,R0
                 	ST   Z,R0
                 	.ENDM
                 
                 	.MACRO __CLRD1SX
                 	MOVW R30,R28
                 	SUBI R30,LOW(-@0)
                 	SBCI R31,HIGH(-@0)
                 	CLR  R0
                 	ST   Z+,R0
                 	ST   Z+,R0
                 	ST   Z+,R0
                 	ST   Z,R0
                 	.ENDM
                 
                 	.MACRO __PUTB2SX
                 	MOVW R30,R28
                 	SUBI R30,LOW(-@0)
                 	SBCI R31,HIGH(-@0)
                 	ST   Z,R26
                 	.ENDM
                 
                 	.MACRO __PUTW2SX
                 	MOVW R30,R28
                 	SUBI R30,LOW(-@0)
                 	SBCI R31,HIGH(-@0)
                 	ST   Z+,R26
                 	ST   Z,R27
                 	.ENDM
                 
                 	.MACRO __PUTD2SX
                 	MOVW R30,R28
                 	SUBI R30,LOW(-@0)
                 	SBCI R31,HIGH(-@0)
                 	ST   Z+,R26
                 	ST   Z+,R27
                 	ST   Z+,R24
                 	ST   Z,R25
                 	.ENDM
                 
                 	.MACRO __PUTBSRX
                 	MOVW R30,R28
                 	SUBI R30,LOW(-@0)
                 	SBCI R31,HIGH(-@0)
                 	ST   Z,R@1
                 	.ENDM
                 
                 	.MACRO __PUTWSRX
                 	MOVW R30,R28
                 	SUBI R30,LOW(-@2)
                 	SBCI R31,HIGH(-@2)
                 	ST   Z+,R@0
                 	ST   Z,R@1
                 	.ENDM
                 
                 	.MACRO __PUTB1SNX
                 	MOVW R26,R28
                 	SUBI R26,LOW(-@0)
                 	SBCI R27,HIGH(-@0)
                 	LD   R0,X+
                 	LD   R27,X
                 	MOV  R26,R0
                 	SUBI R26,LOW(-@1)
                 	SBCI R27,HIGH(-@1)
                 	ST   X,R30
                 	.ENDM
                 
                 	.MACRO __PUTW1SNX
                 	MOVW R26,R28
                 	SUBI R26,LOW(-@0)
                 	SBCI R27,HIGH(-@0)
                 	LD   R0,X+
                 	LD   R27,X
                 	MOV  R26,R0
                 	SUBI R26,LOW(-@1)
                 	SBCI R27,HIGH(-@1)
                 	ST   X+,R30
                 	ST   X,R31
                 	.ENDM
                 
                 	.MACRO __PUTD1SNX
                 	MOVW R26,R28
                 	SUBI R26,LOW(-@0)
                 	SBCI R27,HIGH(-@0)
                 	LD   R0,X+
                 	LD   R27,X
                 	MOV  R26,R0
                 	SUBI R26,LOW(-@1)
                 	SBCI R27,HIGH(-@1)
                 	ST   X+,R30
                 	ST   X+,R31
                 	ST   X+,R22
                 	ST   X,R23
                 	.ENDM
                 
                 	.MACRO __MULBRR
                 	MULS R@0,R@1
                 	MOVW R30,R0
                 	.ENDM
                 
                 	.MACRO __MULBRRU
                 	MUL  R@0,R@1
                 	MOVW R30,R0
                 	.ENDM
                 
                 	.MACRO __MULBRR0
                 	MULS R@0,R@1
                 	.ENDM
                 
                 	.MACRO __MULBRRU0
                 	MUL  R@0,R@1
                 	.ENDM
                 
                 	.MACRO __MULBNWRU
                 	LDI  R26,@2
                 	MUL  R26,R@0
                 	MOVW R30,R0
                 	MUL  R26,R@1
                 	ADD  R31,R0
                 	.ENDM
                 
                 	.CSEG
                 	.ORG 0
                 
                 	.INCLUDE "Main.vec"
                 
                 ;INTERRUPT VECTORS
000000 940c 0085 	JMP  __RESET
000002 940c 0000 	JMP  0x00
000004 940c 0000 	JMP  0x00
000006 940c 0000 	JMP  0x00
000008 940c 0000 	JMP  0x00
00000a 940c 0000 	JMP  0x00
00000c 940c 0000 	JMP  0x00
00000e 940c 0000 	JMP  0x00
000010 940c 0000 	JMP  0x00
000012 940c 0000 	JMP  0x00
000014 940c 0000 	JMP  0x00
000016 940c 0000 	JMP  0x00
000018 940c 0000 	JMP  0x00
00001a 940c 0000 	JMP  0x00
00001c 940c 0000 	JMP  0x00
00001e 940c 0000 	JMP  0x00
000020 940c 0000 	JMP  0x00
000022 940c 0000 	JMP  0x00
000024 940c 0000 	JMP  0x00
000026 940c 0000 	JMP  0x00
000028 940c 0000 	JMP  0x00
00002a 940c 0000 	JMP  0x00
00002c 940c 0000 	JMP  0x00
00002e 940c 0000 	JMP  0x00
000030 940c 0000 	JMP  0x00
000032 940c 0000 	JMP  0x00
000034 940c 0000 	JMP  0x00
000036 940c 0000 	JMP  0x00
000038 940c 0000 	JMP  0x00
00003a 940c 0000 	JMP  0x00
00003c 940c 0000 	JMP  0x00
00003e 940c 0000 	JMP  0x00
000040 940c 0000 	JMP  0x00
000042 940c 0000 	JMP  0x00
000044 940c 0000 	JMP  0x00
                 
                 	.INCLUDE "Main.inc"
                 
                 _tbl10_G2:
000046 2710
000047 03e8
000048 0064
000049 000a      	.DB  0x10,0x27,0xE8,0x3,0x64,0x0,0xA,0x0
00004a 0001      	.DB  0x1,0x0
                 _tbl16_G2:
00004b 1000
00004c 0100
00004d 0010
00004e 0001      	.DB  0x0,0x10,0x0,0x1,0x10,0x0,0x1,0x0
                 _0:
00004f 480c
000050 6c65
000051 6f6c
000052 4520      	.DB  0xC,0x48,0x65,0x6C,0x6C,0x6F,0x20,0x45
000053 2d54
000054 4142
000055 4553
000056 4120      	.DB  0x54,0x2D,0x42,0x41,0x53,0x45,0x20,0x41
000057 5256
000058 4d20
000059 4745
00005a 3641      	.DB  0x56,0x52,0x20,0x4D,0x45,0x47,0x41,0x36
00005b 2f34
00005c 3231
00005d 2e38
00005e 2e2e      	.DB  0x34,0x2F,0x31,0x32,0x38,0x2E,0x2E,0x2E
00005f 412e
000060 4344
000061 0a30
000062 000d      	.DB  0x2E,0x41,0x44,0x43,0x30,0xA,0xD,0x0
000063 6e49
000064 7570
000065 2074
000066 4344      	.DB  0x49,0x6E,0x70,0x75,0x74,0x20,0x44,0x43
000067 5620
000068 6c6f
000069 6174
00006a 6567      	.DB  0x20,0x56,0x6F,0x6C,0x74,0x61,0x67,0x65
00006b 3020
00006c 352d
00006d 2056
00006e 6f74      	.DB  0x20,0x30,0x2D,0x35,0x56,0x20,0x74,0x6F
00006f 5020
000070 3046
000071 4620
000072 726f      	.DB  0x20,0x50,0x46,0x30,0x20,0x46,0x6F,0x72
000073 5420
000074 7365
000075 0a74
000076 0d0a      	.DB  0x20,0x54,0x65,0x73,0x74,0xA,0xA,0xD
000077 0d00
000078 6552
000079 7573
00007a 746c      	.DB  0x0,0xD,0x52,0x65,0x73,0x75,0x6C,0x74
00007b 6f20
00007c 2066
00007d 4441
00007e 5b43      	.DB  0x20,0x6F,0x66,0x20,0x41,0x44,0x43,0x5B
00007f 5d30
000080 3d20
000081 2520
000082 2058      	.DB  0x30,0x5D,0x20,0x3D,0x20,0x25,0x58,0x20
Main.inc(21): warning: .cseg .db misalignment - padding zero byte
Main.asm(987): 'Main.inc' included form here
000083 0000      	.DB  0x0
                 
                 __GLOBAL_INI_TBL:
000084 0000      	.DW  0
                 _0x6B:
                 
                 __RESET:
000085 94f8      	CLI
000086 27ee      	CLR  R30
000087 bbec      	OUT  EECR,R30
                 
                 ;INTERRUPT VECTORS ARE PLACED
                 ;AT THE START OF FLASH
000088 e0f1      	LDI  R31,1
000089 bff5      	OUT  MCUCR,R31
00008a bfe5      	OUT  MCUCR,R30
00008b 93e0 006c 	STS  XMCRB,R30
                 
                 ;DISABLE WATCHDOG
00008d e1f8      	LDI  R31,0x18
00008e bdf1      	OUT  WDTCR,R31
00008f bde1      	OUT  WDTCR,R30
                 
                 ;CLEAR R2-R14
000090 e08d      	LDI  R24,13
000091 e0a2      	LDI  R26,2
000092 27bb      	CLR  R27
                 __CLEAR_REG:
000093 93ed      	ST   X+,R30
000094 958a      	DEC  R24
000095 f7e9      	BRNE __CLEAR_REG
                 
                 ;CLEAR SRAM
000096 e080      	LDI  R24,LOW(0x1000)
000097 e190      	LDI  R25,HIGH(0x1000)
000098 e0a0      	LDI  R26,LOW(0x100)
000099 e0b1      	LDI  R27,HIGH(0x100)
                 __CLEAR_SRAM:
00009a 93ed      	ST   X+,R30
00009b 9701      	SBIW R24,1
00009c f7e9      	BRNE __CLEAR_SRAM
                 
00009d bf8b      	OUT  RAMPZ,R24
                 
                 ;GLOBAL VARIABLES INITIALIZATION
00009e e0e8      	LDI  R30,LOW(__GLOBAL_INI_TBL*2)
00009f e0f1      	LDI  R31,HIGH(__GLOBAL_INI_TBL*2)
                 __GLOBAL_INI_NEXT:
0000a0 9185      	LPM  R24,Z+
0000a1 9195      	LPM  R25,Z+
0000a2 9700      	SBIW R24,0
0000a3 f061      	BREQ __GLOBAL_INI_END
0000a4 91a5      	LPM  R26,Z+
0000a5 91b5      	LPM  R27,Z+
0000a6 9005      	LPM  R0,Z+
0000a7 9015      	LPM  R1,Z+
0000a8 01bf      	MOVW R22,R30
0000a9 01f0      	MOVW R30,R0
                 __GLOBAL_INI_LOOP:
0000aa 9005      	LPM  R0,Z+
0000ab 920d      	ST   X+,R0
0000ac 9701      	SBIW R24,1
0000ad f7e1      	BRNE __GLOBAL_INI_LOOP
0000ae 01fb      	MOVW R30,R22
0000af cff0      	RJMP __GLOBAL_INI_NEXT
                 __GLOBAL_INI_END:
                 
                 ;STACK POINTER INITIALIZATION
0000b0 efef      	LDI  R30,LOW(0x10FF)
0000b1 bfed      	OUT  SPL,R30
0000b2 e1e0      	LDI  R30,HIGH(0x10FF)
0000b3 bfee      	OUT  SPH,R30
                 
                 ;DATA STACK POINTER INITIALIZATION
0000b4 e0c0      	LDI  R28,LOW(0x500)
0000b5 e0d5      	LDI  R29,HIGH(0x500)
                 
0000b6 940c 00b8 	JMP  _main
                 
                 	.ESEG
                 	.ORG 0
                 
                 	.DSEG
                 	.ORG 0x500
                 ;       1 //************************************************/;
                 ;       2 //* Hardware    : ET-BASE AVR MEGA64/128         */;
                 ;       3 //* CPU         : ATMEL-ATmega128                */;
                 ;       4 //* X-TAL       : 16.00 MHz                      */;
                 ;       5 //* Complier    : CodeVisionAVR V1.24.7e         */;
                 ;       6 //* Last Update : 9-03-2006 (ETT CO.,LTD)        */;
                 ;       7 //*             : WWW.ETT.CO.TH                  */;
                 ;       8 //* Description : Demo ADC Channel 0             */;
                 ;       9 //*             : Setup RS232 = 9600,N,8,1       */;
                 ;      10 //************************************************/;
                 ;      11 //* CodeVisionAVR Complier Option Setting        */;
                 ;      12 //* Chip type           : ATmega128              */;
                 ;      13 //* Program type        : Application            */;
                 ;      14 //* Clock frequency     : 16.000000 MHz          */;
                 ;      15 //* Memory model        : Small                  */;
                 ;      16 //* External SRAM size  : 0                      */;
                 ;      17 //* Data Stack size     : 1024                   */;
                 ;      18 //************************************************/;
                 ;      19 //Display Result to Serial Port UART0(9600 bps)
                 ;      20 
                 ;      21 #include <mega128.h>                                            // ATmega128 MCU
                 ;      22 #include <stdio.h>                                              // Standard Input/Output functions
                 ;      23 #define ADC_VREF_TYPE 0xC0                                      // ADC Used Internal Reference
                 ;      24 
                 ;      25 /* pototype  section */
                 ;      26 unsigned int read_adc(unsigned char adc_input);                 // Read ADC Result
                 ;      27 
                 ;      28 void main(void)
                 ;      29 {
                 
                 	.CSEG
                 _main:
                 ;      30   unsigned int val;                                             // ADC Result
                 ;      31   // USART initialization
                 ;      32   // Communication Parameters: 8 Data, 1 Stop, No Parity
                 ;      33   // USART Receiver: On
                 ;      34   // USART Transmitter: On
                 ;      35   // USART Mode: Asynchronous
                 ;      36   // USART Baud rate: 9600
                 ;      37   UCSR0A=0x00;
                 ;	val -> R16,R17
0000b8 e0e0      	LDI  R30,LOW(0)
0000b9 b9eb      	OUT  0xB,R30
                 ;      38   UCSR0B=0x18;
0000ba e1e8      	LDI  R30,LOW(24)
0000bb b9ea      	OUT  0xA,R30
                 ;      39   UCSR0C=0x86;
0000bc e8e6      	LDI  R30,LOW(134)
0000bd 93e0 0095 	STS  149,R30
                 ;      40   UBRR0H=0x00;
0000bf e0e0      	LDI  R30,LOW(0)
0000c0 93e0 0090 	STS  144,R30
                 ;      41   UBRR0L=0x67;
0000c2 e6e7      	LDI  R30,LOW(103)
0000c3 b9e9      	OUT  0x9,R30
                 ;      42 
                 ;      43   // ADC initialization
                 ;      44   // ADC Clock frequency: 125 kHz
                 ;      45   // ADC Voltage Reference: Int., cap. on AREF
                 ;      46   // ADC High Speed Mode: Off
                 ;      47   // ADC Auto Trigger Source: None
                 ;      48   ADMUX=ADC_VREF_TYPE;
0000c4 ece0      	LDI  R30,LOW(192)
0000c5 b9e7      	OUT  0x7,R30
                 ;      49   ADCSRA=0x87;
0000c6 e8e7      	LDI  R30,LOW(135)
0000c7 b9e6      	OUT  0x6,R30
                 ;      50   SFIOR&=0xEF;
0000c8 b5e0      	IN   R30,0x20
0000c9 7eef      	ANDI R30,0xEF
0000ca bde0      	OUT  0x20,R30
                 ;      51   
                 ;      52   printf("\fHello ET-BASE AVR MEGA64/128....ADC0\n\r");  
0000cb e9ee
0000cc e0f0      	__POINTW1FN _0,0
0000cd 940e 024f 	CALL SUBOPT_0x0
                 ;      53   printf("Input DC Voltage 0-5V to PF0 For Test\n\n\r");
0000cf ece6
0000d0 e0f0      	__POINTW1FN _0,40
0000d1 940e 024f 	CALL SUBOPT_0x0
                 ;      54   
                 ;      55  while (1)                                                      // Loop Continue
                 _0x3:
                 ;      56   {
                 ;      57     val = read_adc(0);                                          // Read ADC0 Result
0000d3 e0e0      	LDI  R30,LOW(0)
0000d4 93ea      	ST   -Y,R30
0000d5 d010      	RCALL _read_adc
0000d6 018f      	MOVW R16,R30
                 ;      58     printf("\rResult of ADC[0] = %X ",val);                     // Dispaly Result
0000d7 eeef
0000d8 e0f0      	__POINTW1FN _0,81
0000d9 93fa      	ST   -Y,R31
0000da 93ea      	ST   -Y,R30
0000db 01f8      	MOVW R30,R16
0000dc 2766      	CLR  R22
0000dd 2777      	CLR  R23
0000de 940e 0299 	CALL __PUTPARD1
0000e0 e084      	LDI  R24,4
0000e1 940e 022f 	CALL _printf
0000e3 9626      	ADIW R28,6
                 ;      59   }
0000e4 cfee      	RJMP _0x3
                 ;      60 }
                 _0x6:
0000e5 cfff      	RJMP _0x6
                 ;      61 
                 ;      62 //*********************************/;
                 ;      63 //* Read the AD conversion result */;
                 ;      64 //*********************************/;
                 ;      65 
                 ;      66 unsigned int read_adc(unsigned char adc_input)                  // Read Result ADC
                 ;      67 {
                 _read_adc:
                 ;      68   ADMUX=adc_input|ADC_VREF_TYPE;
                 ;	adc_input -> Y+0
0000e6 81e8      	LD   R30,Y
0000e7 6ce0      	ORI  R30,LOW(0xC0)
0000e8 b9e7      	OUT  0x7,R30
                 ;      69 
                 ;      70   ADCSRA|=0x40;                                                 // Start the AD conversion
0000e9 9a36      	SBI  0x6,6
                 ;      71   
                 ;      72   while ((ADCSRA & 0x10)==0);                                   // Wait for the AD conversion to complete
                 _0x7:
0000ea 9b34      	SBIS 0x6,4
0000eb cffe      	RJMP _0x7
                 ;      73   ADCSRA|=0x10;
0000ec 9a34      	SBI  0x6,4
                 ;      74   
                 ;      75   return ADCW;
0000ed b1e4      	IN   R30,0x4
0000ee b1f5      	IN   R31,0x4+1
0000ef 9621      	ADIW R28,1
0000f0 9508      	RET
                 ;      76 }
                 
                 _getchar:
0000f1 9b5f           sbis usr,rxc
0000f2 cffe           rjmp _getchar
0000f3 b1ec           in   r30,udr
0000f4 9508      	RET
                 _putchar:
0000f5 9b5d           sbis usr,udre
0000f6 cffe           rjmp _putchar
0000f7 81e8           ld   r30,y
0000f8 b9ec           out  udr,r30
0000f9 9621      	ADIW R28,1
0000fa 9508      	RET
                 __put_G2:
0000fb 81a8      	LD   R26,Y
0000fc 81b9      	LDD  R27,Y+1
0000fd 940e 0291 	CALL __GETW1P
0000ff 9730      	SBIW R30,0
000100 f049      	BREQ _0xA
000101 91ed      	LD   R30,X+
000102 91fd      	LD   R31,X+
000103 9631      	ADIW R30,1
000104 93fe      	ST   -X,R31
000105 93ee      	ST   -X,R30
000106 9731      	SBIW R30,1
000107 81aa      	LDD  R26,Y+2
000108 83a0      	STD  Z+0,R26
000109 c004      	RJMP _0xB
                 _0xA:
00010a 81ea      	LDD  R30,Y+2
00010b 93ea      	ST   -Y,R30
00010c 940e 00f5 	CALL _putchar
                 _0xB:
00010e 9623      	ADIW R28,3
00010f 9508      	RET
                 __print_G2:
000110 9726      	SBIW R28,6
000111 940e 029e 	CALL __SAVELOCR6
000113 e000      	LDI  R16,0
                 _0xC:
000114 89e8      	LDD  R30,Y+16
000115 89f9      	LDD  R31,Y+16+1
000116 9631      	ADIW R30,1
000117 8be8      	STD  Y+16,R30
000118 8bf9      	STD  Y+16+1,R31
000119 9731      	SBIW R30,1
00011a 91e4      	LPM  R30,Z
00011b 2f3e      	MOV  R19,R30
00011c 30e0      	CPI  R30,0
00011d f411      	BRNE PC+3
00011e 940c 022b 	JMP _0xE
000120 2fe0      	MOV  R30,R16
000121 30e0      	CPI  R30,0
000122 f431      	BRNE _0x12
000123 3235      	CPI  R19,37
000124 f411      	BRNE _0x13
000125 e001      	LDI  R16,LOW(1)
000126 c001      	RJMP _0x14
                 _0x13:
000127 d12d      	RCALL SUBOPT_0x1
                 _0x14:
000128 c101      	RJMP _0x11
                 _0x12:
000129 30e1      	CPI  R30,LOW(0x1)
00012a f4a1      	BRNE _0x15
00012b 3235      	CPI  R19,37
00012c f411      	BRNE _0x16
00012d d127      	RCALL SUBOPT_0x1
00012e c0fa      	RJMP _0x68
                 _0x16:
00012f e002      	LDI  R16,LOW(2)
000130 e050      	LDI  R21,LOW(0)
000131 e010      	LDI  R17,LOW(0)
000132 323d      	CPI  R19,45
000133 f411      	BRNE _0x17
000134 e011      	LDI  R17,LOW(1)
000135 c0f4      	RJMP _0x11
                 _0x17:
000136 323b      	CPI  R19,43
000137 f411      	BRNE _0x18
000138 e25b      	LDI  R21,LOW(43)
000139 c0f0      	RJMP _0x11
                 _0x18:
00013a 3230      	CPI  R19,32
00013b f411      	BRNE _0x19
00013c e250      	LDI  R21,LOW(32)
00013d c0ec      	RJMP _0x11
                 _0x19:
00013e c002      	RJMP _0x1A
                 _0x15:
00013f 30e2      	CPI  R30,LOW(0x2)
000140 f439      	BRNE _0x1B
                 _0x1A:
000141 e040      	LDI  R20,LOW(0)
000142 e003      	LDI  R16,LOW(3)
000143 3330      	CPI  R19,48
000144 f411      	BRNE _0x1C
000145 6810      	ORI  R17,LOW(128)
000146 c0e3      	RJMP _0x11
                 _0x1C:
000147 c004      	RJMP _0x1D
                 _0x1B:
000148 30e3      	CPI  R30,LOW(0x3)
000149 f011      	BREQ PC+3
00014a 940c 022a 	JMP _0x11
                 _0x1D:
00014c 3330      	CPI  R19,48
00014d f010      	BRLO _0x20
00014e 333a      	CPI  R19,58
00014f f008      	BRLO _0x21
                 _0x20:
000150 c009      	RJMP _0x1F
                 _0x21:
000151 2fa4      	MOV  R26,R20
000152 e0ea      	LDI  R30,LOW(10)
000153 9fea      	MUL  R30,R26
000154 01f0      	MOVW R30,R0
000155 2f4e      	MOV  R20,R30
000156 2fe3      	MOV  R30,R19
000157 53e0      	SUBI R30,LOW(48)
000158 0f4e      	ADD  R20,R30
000159 c0d0      	RJMP _0x11
                 _0x1F:
00015a 2fe3      	MOV  R30,R19
00015b 36e3      	CPI  R30,LOW(0x63)
00015c f421      	BRNE _0x25
00015d d0fd      	RCALL SUBOPT_0x2
00015e 91ec      	LD   R30,X
00015f d102      	RCALL SUBOPT_0x3
000160 c0c8      	RJMP _0x26
                 _0x25:
000161 37e3      	CPI  R30,LOW(0x73)
000162 f431      	BRNE _0x28
000163 d0f7      	RCALL SUBOPT_0x2
000164 d103      	RCALL SUBOPT_0x4
000165 940e 0274 	CALL _strlen
000167 2f0e      	MOV  R16,R30
000168 c008      	RJMP _0x29
                 _0x28:
000169 37e0      	CPI  R30,LOW(0x70)
00016a f451      	BRNE _0x2B
00016b d0ef      	RCALL SUBOPT_0x2
00016c d0fb      	RCALL SUBOPT_0x4
00016d 940e 027e 	CALL _strlenf
00016f 2f0e      	MOV  R16,R30
000170 6018      	ORI  R17,LOW(8)
                 _0x29:
000171 6012      	ORI  R17,LOW(2)
000172 771f      	ANDI R17,LOW(127)
000173 e020      	LDI  R18,LOW(0)
000174 c036      	RJMP _0x2C
                 _0x2B:
000175 36e4      	CPI  R30,LOW(0x64)
000176 f011      	BREQ _0x2F
000177 36e9      	CPI  R30,LOW(0x69)
000178 f411      	BRNE _0x30
                 _0x2F:
000179 6014      	ORI  R17,LOW(4)
00017a c002      	RJMP _0x31
                 _0x30:
00017b 37e5      	CPI  R30,LOW(0x75)
00017c f431      	BRNE _0x32
                 _0x31:
00017d e8ec      	LDI  R30,LOW(_tbl10_G2*2)
00017e e0f0      	LDI  R31,HIGH(_tbl10_G2*2)
00017f 83ee      	STD  Y+6,R30
000180 83ff      	STD  Y+6+1,R31
000181 e005      	LDI  R16,LOW(5)
000182 c00d      	RJMP _0x33
                 _0x32:
000183 35e8      	CPI  R30,LOW(0x58)
000184 f411      	BRNE _0x35
000185 6018      	ORI  R17,LOW(8)
000186 c004      	RJMP _0x36
                 _0x35:
000187 37e8      	CPI  R30,LOW(0x78)
000188 f011      	BREQ PC+3
000189 940c 0229 	JMP _0x67
                 _0x36:
00018b e9e6      	LDI  R30,LOW(_tbl16_G2*2)
00018c e0f0      	LDI  R31,HIGH(_tbl16_G2*2)
00018d 83ee      	STD  Y+6,R30
00018e 83ff      	STD  Y+6+1,R31
00018f e004      	LDI  R16,LOW(4)
                 _0x33:
000190 ff12      	SBRS R17,2
000191 c014      	RJMP _0x38
000192 d0c8      	RCALL SUBOPT_0x2
000193 940e 0291 	CALL __GETW1P
000195 87ea      	STD  Y+10,R30
000196 87fb      	STD  Y+10+1,R31
000197 85aa      	LDD  R26,Y+10
000198 85bb      	LDD  R27,Y+10+1
000199 9710      	SBIW R26,0
00019a f42c      	BRGE _0x39
00019b 940e 028d 	CALL __ANEGW1
00019d 87ea      	STD  Y+10,R30
00019e 87fb      	STD  Y+10+1,R31
00019f e25d      	LDI  R21,LOW(45)
                 _0x39:
0001a0 3050      	CPI  R21,0
0001a1 f011      	BREQ _0x3A
0001a2 5f0f      	SUBI R16,-LOW(1)
0001a3 c001      	RJMP _0x3B
                 _0x3A:
0001a4 7f1b      	ANDI R17,LOW(251)
                 _0x3B:
0001a5 c005      	RJMP _0x3C
                 _0x38:
0001a6 d0b4      	RCALL SUBOPT_0x2
0001a7 940e 0291 	CALL __GETW1P
0001a9 87ea      	STD  Y+10,R30
0001aa 87fb      	STD  Y+10+1,R31
                 _0x3C:
                 _0x2C:
0001ab fd10      	SBRC R17,0
0001ac c010      	RJMP _0x3D
                 _0x3E:
0001ad 1704      	CP   R16,R20
0001ae f470      	BRSH _0x40
0001af ff17      	SBRS R17,7
0001b0 c008      	RJMP _0x41
0001b1 ff12      	SBRS R17,2
0001b2 c004      	RJMP _0x42
0001b3 7f1b      	ANDI R17,LOW(251)
0001b4 2f35      	MOV  R19,R21
0001b5 5001      	SUBI R16,LOW(1)
0001b6 c001      	RJMP _0x43
                 _0x42:
0001b7 e330      	LDI  R19,LOW(48)
                 _0x43:
0001b8 c001      	RJMP _0x44
                 _0x41:
0001b9 e230      	LDI  R19,LOW(32)
                 _0x44:
0001ba d09a      	RCALL SUBOPT_0x1
0001bb 5041      	SUBI R20,LOW(1)
0001bc cff0      	RJMP _0x3E
                 _0x40:
                 _0x3D:
0001bd 2f20      	MOV  R18,R16
0001be ff11      	SBRS R17,1
0001bf c019      	RJMP _0x45
                 _0x46:
0001c0 3020      	CPI  R18,0
0001c1 f0b1      	BREQ _0x48
0001c2 ff13      	SBRS R17,3
0001c3 c008      	RJMP _0x49
0001c4 81ee      	LDD  R30,Y+6
0001c5 81ff      	LDD  R31,Y+6+1
0001c6 9631      	ADIW R30,1
0001c7 83ee      	STD  Y+6,R30
0001c8 83ff      	STD  Y+6+1,R31
0001c9 9731      	SBIW R30,1
0001ca 91e4      	LPM  R30,Z
0001cb c005      	RJMP _0x69
                 _0x49:
0001cc 81ae      	LDD  R26,Y+6
0001cd 81bf      	LDD  R27,Y+6+1
0001ce 91ed      	LD   R30,X+
0001cf 83ae      	STD  Y+6,R26
0001d0 83bf      	STD  Y+6+1,R27
                 _0x69:
0001d1 93ea      	ST   -Y,R30
0001d2 d09c      	RCALL SUBOPT_0x5
0001d3 3040      	CPI  R20,0
0001d4 f009      	BREQ _0x4B
0001d5 5041      	SUBI R20,LOW(1)
                 _0x4B:
0001d6 5021      	SUBI R18,LOW(1)
0001d7 cfe8      	RJMP _0x46
                 _0x48:
0001d8 c048      	RJMP _0x4C
                 _0x45:
                 _0x4E:
0001d9 e330      	LDI  R19,LOW(48)
0001da 81ee      	LDD  R30,Y+6
0001db 81ff      	LDD  R31,Y+6+1
0001dc 9632      	ADIW R30,2
0001dd 83ee      	STD  Y+6,R30
0001de 83ff      	STD  Y+6+1,R31
0001df 9732      	SBIW R30,2
0001e0 940e 0295 	CALL __GETW1PF
0001e2 87e8      	STD  Y+8,R30
0001e3 87f9      	STD  Y+8+1,R31
                 _0x50:
0001e4 85e8      	LDD  R30,Y+8
0001e5 85f9      	LDD  R31,Y+8+1
0001e6 85aa      	LDD  R26,Y+10
0001e7 85bb      	LDD  R27,Y+10+1
0001e8 17ae      	CP   R26,R30
0001e9 07bf      	CPC  R27,R31
0001ea f050      	BRLO _0x52
0001eb 5f3f      	SUBI R19,-LOW(1)
0001ec 85a8      	LDD  R26,Y+8
0001ed 85b9      	LDD  R27,Y+8+1
0001ee 85ea      	LDD  R30,Y+10
0001ef 85fb      	LDD  R31,Y+10+1
0001f0 1bea      	SUB  R30,R26
0001f1 0bfb      	SBC  R31,R27
0001f2 87ea      	STD  Y+10,R30
0001f3 87fb      	STD  Y+10+1,R31
0001f4 cfef      	RJMP _0x50
                 _0x52:
0001f5 333a      	CPI  R19,58
0001f6 f028      	BRLO _0x53
0001f7 ff13      	SBRS R17,3
0001f8 c002      	RJMP _0x54
0001f9 5f39      	SUBI R19,-LOW(7)
0001fa c001      	RJMP _0x55
                 _0x54:
0001fb 5d39      	SUBI R19,-LOW(39)
                 _0x55:
                 _0x53:
0001fc fd14      	SBRC R17,4
0001fd c019      	RJMP _0x57
0001fe 3331      	CPI  R19,49
0001ff f420      	BRSH _0x59
000200 85a8      	LDD  R26,Y+8
000201 85b9      	LDD  R27,Y+8+1
000202 9711      	SBIW R26,1
000203 f409      	BRNE _0x58
                 _0x59:
000204 c009      	RJMP _0x6A
                 _0x58:
000205 1742      	CP   R20,R18
000206 f010      	BRLO _0x5D
000207 ff10      	SBRS R17,0
000208 c001      	RJMP _0x5E
                 _0x5D:
000209 c011      	RJMP _0x5C
                 _0x5E:
00020a e230      	LDI  R19,LOW(32)
00020b ff17      	SBRS R17,7
00020c c00a      	RJMP _0x5F
00020d e330      	LDI  R19,LOW(48)
                 _0x6A:
00020e 6110      	ORI  R17,LOW(16)
00020f ff12      	SBRS R17,2
000210 c006      	RJMP _0x60
000211 7f1b      	ANDI R17,LOW(251)
000212 935a      	ST   -Y,R21
000213 d05b      	RCALL SUBOPT_0x5
000214 3040      	CPI  R20,0
000215 f009      	BREQ _0x61
000216 5041      	SUBI R20,LOW(1)
                 _0x61:
                 _0x60:
                 _0x5F:
                 _0x57:
000217 d03d      	RCALL SUBOPT_0x1
000218 3040      	CPI  R20,0
000219 f009      	BREQ _0x62
00021a 5041      	SUBI R20,LOW(1)
                 _0x62:
                 _0x5C:
00021b 5021      	SUBI R18,LOW(1)
00021c 85a8      	LDD  R26,Y+8
00021d 85b9      	LDD  R27,Y+8+1
00021e 9712      	SBIW R26,2
00021f f008      	BRLO _0x4F
000220 cfb8      	RJMP _0x4E
                 _0x4F:
                 _0x4C:
000221 ff10      	SBRS R17,0
000222 c006      	RJMP _0x63
                 _0x64:
000223 3040      	CPI  R20,0
000224 f021      	BREQ _0x66
000225 5041      	SUBI R20,LOW(1)
000226 e2e0      	LDI  R30,LOW(32)
000227 d03a      	RCALL SUBOPT_0x3
000228 cffa      	RJMP _0x64
                 _0x66:
                 _0x63:
                 _0x67:
                 _0x26:
                 _0x68:
000229 e000      	LDI  R16,LOW(0)
                 _0x11:
00022a cee9      	RJMP _0xC
                 _0xE:
00022b 940e 02a5 	CALL __LOADLOCR6
00022d 9662      	ADIW R28,18
00022e 9508      	RET
                 _printf:
00022f 92ff      	PUSH R15
000230 2ef8      	MOV  R15,R24
000231 9722      	SBIW R28,2
000232 931a      	ST   -Y,R17
000233 930a      	ST   -Y,R16
000234 01de      	MOVW R26,R28
000235 940e 0289 	CALL __ADDW2R15
000237 018d      	MOVW R16,R26
000238 e0e0      	LDI  R30,0
000239 83ea      	STD  Y+2,R30
00023a 83eb      	STD  Y+2+1,R30
00023b 01de      	MOVW R26,R28
00023c 9614      	ADIW R26,4
00023d 940e 0289 	CALL __ADDW2R15
00023f 940e 0291 	CALL __GETW1P
000241 93fa      	ST   -Y,R31
000242 93ea      	ST   -Y,R30
000243 931a      	ST   -Y,R17
000244 930a      	ST   -Y,R16
000245 01fe      	MOVW R30,R28
000246 9636      	ADIW R30,6
000247 93fa      	ST   -Y,R31
000248 93ea      	ST   -Y,R30
000249 dec6      	RCALL __print_G2
00024a 8119      	LDD  R17,Y+1
00024b 8108      	LDD  R16,Y+0
00024c 9624      	ADIW R28,4
00024d 90ff      	POP  R15
00024e 9508      	RET
                 
                 ;OPTIMIZER ADDED SUBROUTINE, CALLED 2 TIMES, CODE SIZE REDUCTION:1 WORDS
                 SUBOPT_0x0:
00024f 93fa      	ST   -Y,R31
000250 93ea      	ST   -Y,R30
000251 e080      	LDI  R24,0
000252 dfdc      	RCALL _printf
000253 9622      	ADIW R28,2
000254 9508      	RET
                 
                 ;OPTIMIZER ADDED SUBROUTINE, CALLED 4 TIMES, CODE SIZE REDUCTION:12 WORDS
                 SUBOPT_0x1:
000255 933a      	ST   -Y,R19
000256 85ed      	LDD  R30,Y+13
000257 85fe      	LDD  R31,Y+13+1
000258 93fa      	ST   -Y,R31
000259 93ea      	ST   -Y,R30
00025a cea0      	RJMP __put_G2
                 
                 ;OPTIMIZER ADDED SUBROUTINE, CALLED 5 TIMES, CODE SIZE REDUCTION:13 WORDS
                 SUBOPT_0x2:
00025b 85ae      	LDD  R26,Y+14
00025c 85bf      	LDD  R27,Y+14+1
00025d 9714      	SBIW R26,4
00025e 87ae      	STD  Y+14,R26
00025f 87bf      	STD  Y+14+1,R27
000260 9614      	ADIW R26,4
000261 9508      	RET
                 
                 ;OPTIMIZER ADDED SUBROUTINE, CALLED 2 TIMES, CODE SIZE REDUCTION:2 WORDS
                 SUBOPT_0x3:
000262 93ea      	ST   -Y,R30
000263 85ed      	LDD  R30,Y+13
000264 85fe      	LDD  R31,Y+13+1
000265 93fa      	ST   -Y,R31
000266 93ea      	ST   -Y,R30
000267 ce93      	RJMP __put_G2
                 
                 ;OPTIMIZER ADDED SUBROUTINE, CALLED 2 TIMES, CODE SIZE REDUCTION:3 WORDS
                 SUBOPT_0x4:
000268 940e 0291 	CALL __GETW1P
00026a 83ee      	STD  Y+6,R30
00026b 83ff      	STD  Y+6+1,R31
00026c 93fa      	ST   -Y,R31
00026d 93ea      	ST   -Y,R30
00026e 9508      	RET
                 
                 ;OPTIMIZER ADDED SUBROUTINE, CALLED 2 TIMES, CODE SIZE REDUCTION:1 WORDS
                 SUBOPT_0x5:
00026f 85ed      	LDD  R30,Y+13
000270 85fe      	LDD  R31,Y+13+1
000271 93fa      	ST   -Y,R31
000272 93ea      	ST   -Y,R30
000273 ce87      	RJMP __put_G2
                 
                 _strlen:
000274 91a9      	ld   r26,y+
000275 91b9      	ld   r27,y+
000276 27ee      	clr  r30
000277 27ff      	clr  r31
                 __strlen0:
000278 916d      	ld   r22,x+
000279 2366      	tst  r22
00027a f011      	breq __strlen1
00027b 9631      	adiw r30,1
00027c cffb      	rjmp __strlen0
                 __strlen1:
00027d 9508      	ret
                 
                 _strlenf:
00027e 27aa      	clr  r26
00027f 27bb      	clr  r27
000280 91e9      	ld   r30,y+
000281 91f9      	ld   r31,y+
                 __strlenf0:
000282 9005      	lpm  r0,z+
000283 2000      	tst  r0
000284 f011      	breq __strlenf1
000285 9611      	adiw r26,1
000286 cffb      	rjmp __strlenf0
                 __strlenf1:
000287 01fd      	movw r30,r26
000288 9508      	ret
                 
                 __ADDW2R15:
000289 2400      	CLR  R0
00028a 0daf      	ADD  R26,R15
00028b 1db0      	ADC  R27,R0
00028c 9508      	RET
                 
                 __ANEGW1:
00028d 95e0      	COM  R30
00028e 95f0      	COM  R31
00028f 9631      	ADIW R30,1
000290 9508      	RET
                 
                 __GETW1P:
000291 91ed      	LD   R30,X+
000292 91fc      	LD   R31,X
000293 9711      	SBIW R26,1
000294 9508      	RET
                 
                 __GETW1PF:
000295 9005      	LPM  R0,Z+
000296 91f4      	LPM  R31,Z
000297 2de0      	MOV  R30,R0
000298 9508      	RET
                 
                 __PUTPARD1:
000299 937a      	ST   -Y,R23
00029a 936a      	ST   -Y,R22
00029b 93fa      	ST   -Y,R31
00029c 93ea      	ST   -Y,R30
00029d 9508      	RET
                 
                 __SAVELOCR6:
00029e 935a      	ST   -Y,R21
                 __SAVELOCR5:
00029f 934a      	ST   -Y,R20
                 __SAVELOCR4:
0002a0 933a      	ST   -Y,R19
                 __SAVELOCR3:
0002a1 932a      	ST   -Y,R18
                 __SAVELOCR2:
0002a2 931a      	ST   -Y,R17
0002a3 930a      	ST   -Y,R16
0002a4 9508      	RET
                 
                 __LOADLOCR6:
0002a5 815d      	LDD  R21,Y+5
                 __LOADLOCR5:
0002a6 814c      	LDD  R20,Y+4
                 __LOADLOCR4:
0002a7 813b      	LDD  R19,Y+3
                 __LOADLOCR3:
0002a8 812a      	LDD  R18,Y+2
                 __LOADLOCR2:
0002a9 8119      	LDD  R17,Y+1
0002aa 8108      	LD   R16,Y
0002ab 9508      	RET
                 
                 ;END OF CODE MARKER
                 __END_OF_CODE:


RESOURCE USE INFORMATION
------------------------

Notice:
The register and instruction counts are symbol table hit counts,
and hence implicitly used resources are not counted, eg, the
'lpm' instruction without operands implicitly uses r0 and z,
none of which are counted.

x,y,z are separate entities in the symbol table and are
counted separately from r26..r31 here.

.dseg memory usage only counts static data declared with .byte

ATmega128 register use summary:
r0 :  11 r1 :   1 r2 :   0 r3 :   0 r4 :   0 r5 :   0 r6 :   0 r7 :   0 
r8 :   0 r9 :   0 r10:   0 r11:   0 r12:   0 r13:   0 r14:   0 r15:   4 
r16:  22 r17:  29 r18:   8 r19:  25 r20:  17 r21:   9 r22:   6 r23:   2 
r24:  11 r25:   2 r26:  34 r27:  18 r28:  13 r29:   1 r30: 136 r31:  48 
x  :  12 y  : 112 z  :  13 
Registers used: 22 out of 35 (62.9%)

ATmega128 instruction use summary:
adc   :   1 add   :   2 adiw  :  17 and   :   0 andi  :   5 asr   :   0 
bclr  :   0 bld   :   0 brbc  :   0 brbs  :   0 brcc  :   0 brcs  :   0 
break :   0 breq  :  13 brge  :   1 brhc  :   0 brhs  :   0 brid  :   0 
brie  :   0 brlo  :   6 brlt  :   0 brmi  :   0 brne  :  20 brpl  :   0 
brsh  :   2 brtc  :   0 brts  :   0 brvc  :   0 brvs  :   0 bset  :   0 
bst   :   0 call  :  18 cbi   :   0 cbr   :   0 clc   :   0 clh   :   0 
cli   :   1 cln   :   0 clr   :   9 cls   :   0 clt   :   0 clv   :   0 
clz   :   0 com   :   2 cp    :   3 cpc   :   1 cpi   :  29 cpse  :   0 
dec   :   1 elpm  :   0 eor   :   0 fmul  :   0 fmuls :   0 fmulsu:   0 
icall :   0 ijmp  :   0 in    :   4 inc   :   0 jmp   :  39 ld    :  15 
ldd   :  40 ldi   :  57 lds   :   0 lpm   :  12 lsl   :   0 lsr   :   0 
mov   :  12 movw  :  11 mul   :   1 muls  :   0 mulsu :   0 neg   :   0 
nop   :   0 or    :   0 ori   :   7 out   :  16 pop   :   1 push  :   1 
rcall :  18 ret   :  18 reti  :   0 rjmp  :  56 rol   :   0 ror   :   0 
sbc   :   1 sbci  :   0 sbi   :   2 sbic  :   0 sbis  :   3 sbiw  :  15 
sbr   :   0 sbrc  :   2 sbrs  :  10 sec   :   0 seh   :   0 sei   :   0 
sen   :   0 ser   :   0 ses   :   0 set   :   0 sev   :   0 sez   :   0 
sleep :   0 spm   :   0 st    :  41 std   :  29 sts   :   3 sub   :   1 
subi  :  13 swap  :   0 tst   :   2 wdr   :   0 
Instructions used: 45 out of 112 (40.2%)

ATmega128 memory use summary [bytes]:
Segment   Begin    End      Code   Data   Used    Size   Use%
---------------------------------------------------------------
[.cseg] 0x000000 0x000558   1242    126   1368  131072   1.0%
[.dseg] 0x000100 0x000500      0      0      0    4096   0.0%
[.eseg] 0x000000 0x000000      0      0      0    4096   0.0%

Assembly complete, 0 errors, 1 warnings
