:020000040000FA
:1000000090EF00F018C0EAFF16C0E9FF040013D813
:10001000FDE256D8096A080E046E53D80CD8D8B041
:10002000093E0332042EF9D70CAA096A0CBA039EC2
:1000300048D803501200120EE9261450EF1216C0D1
:10004000E9FFEF140CBC1418FF0F1200076E18C064
:10005000EAFF18C0E2FF1650E96E120FE16E800E43
:100060001316080E086ED890D8B0133E12D8073277
:10007000082EFAD700000CBA13300BD88EEC00F023
:10008000D88007D81050046E0F5076EC00F08DEF3A
:1000900000F00CAE0BD0EF5014100CAC1418EF6E37
:1000A000E7501410D8A01418E76E0BD0EF501410BE
:1000B000D8A014180CBC1418EF6E141CE71601D04D
:1000C000138C0C501F0B000F026E0B50110FD8B089
:1000D000022A13AC83EF00F0139CD8900232E83070
:1000E000D8900232E83083EF00F0046A036EE86AC9
:1000F0000306045AD8A08DEF00F0030E026EE70E3F
:1001000002D8F5D7026AFE0F016EE86A025AD8A03B
:1001100012000400010600D0F8D70001040012000C
:10012000820E166E0F0E186E400E146E540E0B6E6D
:100130000C6A0F6A106A0C0E89DF200E87DF540EDE
:1001400085DF650E83DF730E81DF740E7FDF200E87
:100150007DDF520E7BDF530E79DF320E77DF330EF9
:1001600075DF320E73DF200E71DF430E6FDF680E16
:100170006DDF650E6BDF6E0E69DF610E67DF6C0E83
:1001800065DF200E63DF310E61DF0A0E5FDF0D0ECB
:100190005DDF200E5BDF500E59DF6C0E57DF650E02
:1001A00055DF610E53DF730E51DF650E4FDF200EFA
:1001B0004DDF610E4BDF6E0E49DF790E47DF200EFB
:1001C00045DF6B0E43DF650E41DF790E3FDF200E0A
:1001D0003DDF740E3BDF6F0E39DF200E37DF740E0C
:1001E00035DF650E33DF730E31DF740E2FDF0A0E3D
:1001F0002DDF0D0E2BDF820E166E0F0E186E800E89
:10020000146E540E0B6E0C6AFDDE1A6E820E166EA4
:100210000F0E186E400E146E540E0B6E0C6A0F6AA1
:08022000106A1A5013DFE7D742
:020000040030CA
:04000000FFF6FFF315
:02000600BBFF3E
:00000001FF
