:020000040000FA
:100000000E0EC16E020EC06EC08EC26AC280956AAC
:10001000966A9B0EAF6EAC6AAB8EAB88AC8AAC8432
:10002000C282C2B211EF00F00C0E5EEC00F0440E82
:100030005EEC00F0410E5EEC00F0540E5EEC00F061
:10004000410E5EEC00F0200E5EEC00F0490E5EEC1E
:1000500000F04E0E5EEC00F0200E5EEC00F00A0E9A
:100060005EEC00F00D0E5EEC00F03D0E5EEC00F07C
:10007000200E5EEC00F0C450846E47EC00F0C350DC
:10008000836E47EC00F065EC00F010EF00F0326E8C
:1000900032384FEC00F032504FEC00F012000F0BF2
:1000A000316E0A0801E005E23150370F5EEC00F0D6
:1000B00012003150300F5EEC00F01200AD6E0FEE0A
:1000C000ACF0EFA25FEF00F01200050E206E216A87
:1000D000226A222E69EF00F0212E68EF00F0202E18
:0600E00067EF00F01200C2
:020000040030CA
:06000100260E0E830085AF
:06000800FFC0FFE0FF4015
:00000001FF
