:020000040000FA
:1000000054EF00F0F76A180FF66E000EF722000E9C
:10001000F86E0900F55012000C0A0D50524F47526D
:10002000414D2054455354205253323332204368BB
:10003000616E6E656C2D32206F662045542D4241F5
:10004000534520504943383732300A0D0000F76AD3
:10005000620FF66E000EF722000EF86E0900F550E2
:1000600012000A0D506C65617365207072657373C0
:1000700020616E79206B6579206F6E206B657962E7
:100080006F61726420796F752077696C6C2073657D
:10009000652074686174206B6579206F6E207363CE
:1000A0007265656E200A0D00F86AD09EEA6AE96AF8
:1000B000260E6F6E220E6C6E900E6B6EC150C00BD2
:1000C0000F09C16E070EB46E040E986E076A0750D2
:1000D00099DF000905E0072AA4A8FED76D6EF7D7BF
:1000E000076A0750B4DF000905E0072AA4A8FED775
:1000F0006D6EF7D7A4AAFED76ECF06F00650A4A85F
:08010000FED76D6EF7D7030076
:020000040030CA
:0E00000000260F0E83018400FFC0FFE0FF40CA
:00000001FF
;PIC18F8720
