:020000040000FA
:1000000083168801403099009801831298171816BA
:100010008316981618158312A00120081E20003E92
:1000200003191928990098308400801C1328A00A0D
:100030000D288C1E19281A089900192882070C34DB
:10004000503452344F344734523441344D342034D8
:1000500054344534533454342034523453343234C9
:1000600033343234203450344F3452345434203406
:100070004F344E34203443345034553420345034CB
:1000800049344334313436344634383437343734F1
:100090002034523455344E342034463452344534AE
:1000A00051342034313430344D3448347A340A34C5
:0400B0000D340034D7
:00000001FF
