:020000040000FA
:100000007EEF00F0F76A180FF66E000EF722000E72
:10001000F86E0900F55012000C0A0D56616C7565FA
:1000200028414E3029203D20256C7500EACF11F083
:10003000E9CF10F00A38F0090C6E0C26E20F0D6EB5
:10004000320F0F6E0A500F0B0D260D260F26E90FEB
:100050000E6E0E260E2609380F0B0E260F260E36B4
:100060000F360F1E0F3609500F0B0F260C36070EDA
:100070000B6E0A0E0E060F26FDE30D060E26FDE39F
:100080000C060D26FDE30B060C26FDE3EA6A0B0EBB
:10009000E96E070E1014109CE9260F0EE95CD8B427
:1000A000108CEF50006E08E110BC06D010B80CD0D8
:1000B00010B602D0200E03D010861098300E002605
:1000C00000509EA8FED7AD6EEE5010ACE6D7B3EF51
:1000D00000F0EA6A080EE96EEF500EE0070E016EBE
:1000E000006A002EFED7012EFBD7C70E006E002E31
:1000F000FED70000EF2EF2D7B6EF00F0F86AD09EE0
:10010000EA6AE96A260EAF6E220EAC6E900EAB6EF6
:10011000C150C00B0F09C16E070EB46E010E926E76
:10012000C150C00B0E09C16EC090C082C094C08E79
:10013000C280C282C2B2FED7C3CF06F0C4CF07F0DE
:10014000086A08505FDF082A006E00509EA8FED79C
:10015000AD6E100E085CF5E1100EE96E07C00AF0F6
:1001600006C009F063D7640E086EB3D7E2D7030068
:020000040030CA
:0E00000000260F0E83018400FFC0FFE0FF40CA
:00000001FF
;PIC18F8720
