:100000003EC0FECFFDCFFCCFFBCFFACFF9CFF8CF6C
:10001000F7CFF6CFF5CFF4CFF3CFF2CFF1CFF0CFCC
:10002000EFCFEECFEDCF1027E80364000A00010008
:10003000001000011000010045542D42415345209D
:100040004156522E2E2E2E2E0042415345204F4E09
:100050002054494E593233313300372E34204D4924
:10006000505320457865637574650042592E2E45BE
:10007000545420434F2E2C4C54442E000000F8942E
:10008000EE27ECBBE5BFF8E1A4B7A77FA4BFF1BDA5
:10009000E1BD8DE0A2E0ED938A95E9F780E8A0E666
:1000A000ED938A95E9F7ECE7F0E08591959100975B
:1000B00061F0A591B59105901590BF01F0010590F3
:1000C0000D920197E1F7FB01F0CFE0E0E3BBE0E048
:1000D000E4BBE0E0E5BBEFEDEDBFC0E8D0E000C081
:1000E000EFEFE7BBEEE1F0E08FD1F1D114D08FD18B
:1000F000E8E3F0E092D196D1E9E4F0E08ED198D136
:1001000086D1EAE5F0E089D18DD1EBE6F0E085D14A
:100110008FD1EDCFFFCF90D1E3E393D1E2E391D143
:10012000E8E28FD1ECE08DD1E6E08BD1E1E089D13E
:100130008AD10895E881E068E88383D10FC0C6982A
:1001400086D18CD1C49883D18FD176D107C0C69A7D
:100150007ED184D1C4987BD187D16ED12196089568
:100160000A9300E8A02FEC91EA93F1DF0F5FA02F34
:10017000EC91E030B9F7099108955F9BFECFECB1A7
:1001800008955D9BFECFE881ECB921960895A88182
:10019000EC91E03031F0EF5FEC93E150A981A08366
:1001A00003C0E981EA93EDDF229608952697B2D144
:1001B00000E0EE85FF853196EE87FF873197E49169
:1001C0003E2FE03009F4FFC0E02FE03031F435324B
:1001D00011F401E001C04DD1F5C0E130A1F4353298
:1001E00011F447D1EEC002E050E010E03D3211F4CE
:1001F00011E0E8C03B3211F45BE2E4C0303211F4AC
:1002000050E2E0C002C0E23039F440E003E03033B5
:1002100011F41068D7C003C0E33009F0D3C0303305
:1002200010F03A3308F008C0A42FEAE060D14E2F56
:10023000E32FE0534E0FC6C0E32FE33619F41DD170
:1002400022D1BFC0E33731F418D1EE83EA932BD12A
:100250000E2F0AC0E03761F41AD11FD1EE81FF8161
:10026000D3D02AD10E2F186012601F7720E02DC046
:10027000E43611F0E93611F4146002C0E53729F4D0
:10028000E6E2F0E00AD105E00BC0E83511F41860B1
:1002900003C0E83709F095C0E0E3F0E0FED004E0E9
:1002A00012FF11C0F4D0FCD0AA85BB8510972CF4A6
:1002B000EA85FB8518D1F4D05DE2503011F00F5F74
:1002C00001C01B7F02C0E3D0EBD010FD10C00417AB
:1002D00070F417FF08C012FF04C01B7F352F0150B8
:1002E00001C030E301C030E2C4D04150F0CF202F34
:1002F00011FF18C02030A9F013FF07C0EE81FF8165
:100300003196CBD03197E49103C0AE81ED91AE83AD
:10031000EA93ED85EA933BDF403009F041502150EC
:10032000E9CF47C030E3EE81FF813296B6D03297F5
:10033000EDD0E887F987E885F985AA85BB85AE17F2
:10034000BF0748F03F5FA885B985EA85FB85EA1BB2
:10035000FB0BA6D0F0CF3A3328F013FF02C0395F71
:1003600001C0395D14FD1BC0313320F4A885B98567
:10037000119709F409C0421710F010FF01C013C013
:1003800030E217FF0CC030E3106112FF08C01B7F82
:100390005A93ED85EA93FBDE403009F0415069D075
:1003A000403009F041502150A885B985129708F0D6
:1003B000B9CF10FF06C0403021F04150E0E263D0D9
:1003C000FACF00E0F6CEADD060960895FF92F82EF9
:1003D00021970A93AC2FAE5FAF0D0A2FAC2FAC5F05
:1003E000AF0DEC91E983AC2FAE5FAF0D8BD00CD08D
:1003F0000A93EC2FEC5FEA93D9DEA981E0E0EC935D
:1004000008812296FF900895FA93EA930895E0E018
:10041000EA9390DEE0E8EA930895F6DF80E0D6DF25
:1004200023969ECEE0E4EA9385DEE0E8EA93089521
:10043000E8EEF3E0E9DF4BC0C498E1E0F0E0E4DF90
:1004400046C0EA937CCEE1E0F0E0DEDF40C0E8B3F6
:10045000E07FE8BBE8B3AE2FE8810895E295EF7046
:10046000EA2BE8BBC49AEFCFEF70EA2BE8BBC49A43
:10047000EACF3A93ED85EA938ACEAD85A450AD8755
:10048000AC5FEC910895EA93ED85EA9380CEAD855B
:10049000A450AD87AC5F36D00895EE83FF830895F6
:1004A000EA87FB870895BB27A991EE276D91662304
:1004B00011F0E395FBCF0895AA27BB27E991F991A5
:1004C0000590002011F01196FBCFFD010895E991F0
:1004D000F991309639F083E397E00197F1F7A89509
:1004E0003197C9F70895E095F095319608950A2E51
:1004F000AA1BB9E003C008F4A00DA695E795BA952C
:10050000D1F70895ED91FC91AA9508950590F49185
:10051000E02D08955A934A933A932A931A930A9393
:1005200008955D814C813B812A811981088108955C
:00000001FF
