:1000000010C0189518951895189518951895189565
:100010001895189518951895189518951895189578
:1000200018958FE58DBFC0E4E0E44E2E82E08EBFD0
:10003000D2E0F2E05F2EEEEFF1E0A0E6B0E088273C
:100040008D933197E9F783E389B988E18AB966240A
:100050008FEF87BB809160008F7780936000A0E670
:10006000B0E08C9187FBBB27A8E38C9180F98C933F
:10007000E1E0F0E010D0A0E6B0E08C9187FB8827AB
:1000800080F9809580FBA0E6B0E08C9187F98C9395
:10009000E6CFF894FFCF88EE93E00CD03197D9F7F4
:1000A00008953197F1F70895689462F80895E894F7
:1000B00062F80895EF93FF93EE27E82BE92B31F0D8
:1000C000E0EDF7E03197F1F70197D1F7FF91EF916C
:0200D000089591
:00000001FF
