:020000040000FA
:1000000003EF01F0F76A180FF66E000EF722000EEC
:10001000F86E0900F5501200280C0106F76A300F3F
:10002000F66E000EF722000EF86E0900F550120071
:100030000C45542D42415345205049433837323204
:100040000A00F76A560FF66E000EF722000EF86EE1
:100050000900F5501200202A2045545420434F2E09
:100060002C4C5444202A0000EA6A090EE96EEF5035
:100070000FE00C0E016E006A002EFED7012EFBD79A
:10008000F70E006E002EFED700000000EF2EF1D715
:10009000000CEA6A0A0EE96EEF500FE00C0E016EDA
:1000A000006A002EFED7012EFBD7F70E006E002E41
:1000B000FED700000000EF2EF1D7000C1138F00B36
:1000C000006E0F0E87140010876E000099969086C0
:1000D000060E006E002EFED7000099969096000C3A
:1000E000020E115E0BE3EA6A110EE96EEF5006E0B4
:1000F000020E006E002EFED7EF2EFAD786EF00F02C
:100100008792020E106EFA0E116EEAD7102EFBD7F0
:100110000EA087920EB087820000999690960F38B5
:10012000106E0F0E101610C011F0C8DF0F500F0B1D
:10013000106E116EC3DF000C000E996E87929996B7
:1001400090960F0E0A6EA5DF010E086E0850030888
:1001500008E3030E116EB2DF050E0A6E9ADF082A5D
:10016000F5D7020E116EAADF086A085003080EE3E5
:10017000036A0850F2CF09F0F29E44DF09BEF28E06
:100180000A6E0E6A0F6EBCDF082AEFD72DEF01F062
:100190000B2C01D003D0400E0C6E01D00C6A010E66
:1001A0000A5C0C260C5080090D6E0E6A0F6EA8DFDB
:1001B000000C09500C0A07E0060A0DE0020A11E0E3
:1001C000650A14E019D00E6A010E0F6E99DF020E57
:1001D0000A6E5FDF17D0010E0A6E020E0B6ED8DFBB
:1001E00011D00E6A100E0F6E8BDF0CD0090E0A6E46
:1001F000020E0B6ECDDF06D0010E0E6E09C00FF0A1
:100200007FDF00D0000CF86AD09EEA6AE96A7E9629
:10021000400EAF6E220EAC6E900EAB6EC150C00B96
:100220000F09C16E070EB46E000E996E070EB46E04
:100230009750210E006E002EFED7B450A19CC150E5
:10024000C00B0F09C16E99949094040E086EFA0EBB
:10025000096E0ADF082EFBD76FD7640E096E04DF24
:10026000086A0850DBDE000904E0082A096EA1DFF5
:10027000F8D7040E086EFA0E096EF6DE082EFBD7CC
:10028000086A0850DEDE000904E0082A096E91DFE2
:10029000F8D7040E086EFA0E096EE6DE082EFBD7BC
:0402A000DFD70300A1
:020000040030CA
:0E00000000061F1EF3838000FFC0FFE0FF40DC
:00000001FF
;PIC18F8722
