
AVRASM ver. 2.1.9  D:\BASE-AVR(ATtiny2313)\QC Test\QC_Test.asm Tue Sep 19 12:07:36 2006

D:\BASE-AVR(ATtiny2313)\QC Test\QC_Test.asm(13): Including file 'C:\Program Files\Atmel\AVR Tools\AvrAssembler2\Appnotes\tn2313def.inc'
                 
                 
                 ; Program		:Main program for test ET-BASE TINY2313          *
                 ; Description   :You can select 1-5                              *
                 ;               :for testing program                             *
                 ; CPU Control	:ATTINY2313                                      *
                 ; Frequency     :X-TAL : 7.3728 MHz                              *
                 ; File name		:QC_Test.asm                                     *
                 ; Assembler		:AVR Assembler 2                                 *
                 ; 4 bit LCD pin information:RESET=PB6,ENABLE=PB4,DATA = PB0-PB4  * 
                 ; I2C bus : SCL = PB7, SDA = PB5                                 *
                 ;*****************************************************************
                 
                 .include "tn2313def.inc"
                 
                 ;***** Created: 2006-07-05 11:07 ******* Source: ATtiny2313.xml **********
                 ;*************************************************************************
                 ;* A P P L I C A T I O N   N O T E   F O R   T H E   A V R   F A M I L Y
                 ;* 
                 ;* Number            : AVR000
                 ;* File Name         : "tn2313def.inc"
                 ;* Title             : Register/Bit Definitions for the ATtiny2313
                 ;* Date              : 2006-07-05
                 ;* Version           : 2.23
                 ;* Support E-mail    : avr@atmel.com
                 ;* Target MCU        : ATtiny2313
                 ;* 
                 ;* DESCRIPTION
                 ;* When including this file in the assembly program file, all I/O register 
                 ;* names and I/O register bit names appearing in the data book can be used.
                 ;* In addition, the six registers forming the three data pointers X, Y and 
                 ;* Z have been assigned names XL - ZH. Highest RAM address for Internal 
                 ;* SRAM is also defined 
                 ;* 
                 ;* The Register names are represented by their hexadecimal address.
                 ;* 
                 ;* The Register Bit names are represented by their bit number (0-7).
                 ;* 
                 ;* Please observe the difference in using the bit names with instructions
                 ;* such as "sbr"/"cbr" (set/clear bit in register) and "sbrs"/"sbrc"
                 ;* (skip if bit in register set/cleared). The following example illustrates
                 ;* this:
                 ;* 
                 ;* in    r16,PORTB             ;read PORTB latch
                 ;* sbr   r16,(1<<PB6)+(1<<PB5) ;set PB6 and PB5 (use masks, not bit#)
                 ;* out   PORTB,r16             ;output to PORTB
                 ;* 
                 ;* in    r16,TIFR              ;read the Timer Interrupt Flag Register
                 ;* sbrc  r16,TOV0              ;test the overflow flag (use bit#)
                 ;* rjmp  TOV0_is_set           ;jump if set
                 ;* ...                         ;otherwise do something else
                 ;*************************************************************************
                 
                 #ifndef _TN2313DEF_INC_
                 #define _TN2313DEF_INC_
                 
                 
                 #pragma partinc 0
                 
                 ; ***** SPECIFY DEVICE ***************************************************
                 .device ATtiny2313
                 #pragma AVRPART ADMIN PART_NAME ATtiny2313
                 .equ	SIGNATURE_000	= 0x1e
                 .equ	SIGNATURE_001	= 0x91
                 .equ	SIGNATURE_002	= 0x0a
                 
                 #pragma AVRPART CORE CORE_VERSION V2
                 #pragma AVRPART CORE NEW_INSTRUCTIONS lpm rd,z+
                 
                 
                 ; ***** I/O REGISTER DEFINITIONS *****************************************
                 ; NOTE:
                 ; Definitions marked "MEMORY MAPPED"are extended I/O ports
                 ; and cannot be used with IN/OUT instructions
                 .equ	SREG	= 0x3f
                 .equ	SPL	= 0x3d
                 .equ	OCR0B	= 0x3c
                 .equ	GIMSK	= 0x3b
                 .equ	EIFR	= 0x3a
                 .equ	TIMSK	= 0x39
                 .equ	TIFR	= 0x38
                 .equ	SPMCSR	= 0x37
                 .equ	OCR0A	= 0x36
                 .equ	MCUCR	= 0x35
                 .equ	MCUSR	= 0x34
                 .equ	TCCR0B	= 0x33
                 .equ	TCNT0	= 0x32
                 .equ	OSCCAL	= 0x31
                 .equ	TCCR0A	= 0x30
                 .equ	TCCR1A	= 0x2f
                 .equ	TCCR1B	= 0x2e
                 .equ	TCNT1L	= 0x2c
                 .equ	TCNT1H	= 0x2d
                 .equ	OCR1AL	= 0x2a
                 .equ	OCR1AH	= 0x2b
                 .equ	OCR1BL	= 0x28
                 .equ	OCR1BH	= 0x29
                 .equ	CLKPR	= 0x26
                 .equ	ICR1L	= 0x24
                 .equ	ICR1H	= 0x25
                 .equ	GTCCR	= 0x23
                 .equ	TCCR1C	= 0x22
                 .equ	WDTCR	= 0x21
                 .equ	PCMSK	= 0x20
                 .equ	EEAR	= 0x1e
                 .equ	EEDR	= 0x1d
                 .equ	EECR	= 0x1c
                 .equ	PORTA	= 0x1b
                 .equ	DDRA	= 0x1a
                 .equ	PINA	= 0x19
                 .equ	PORTB	= 0x18
                 .equ	DDRB	= 0x17
                 .equ	PINB	= 0x16
                 .equ	GPIOR2	= 0x15
                 .equ	GPIOR1	= 0x14
                 .equ	GPIOR0	= 0x13
                 .equ	PORTD	= 0x12
                 .equ	DDRD	= 0x11
                 .equ	PIND	= 0x10
                 .equ	USIDR	= 0x0f
                 .equ	USISR	= 0x0e
                 .equ	USICR	= 0x0d
                 .equ	UDR	= 0x0c
                 .equ	UCSRA	= 0x0b
                 .equ	UCSRB	= 0x0a
                 .equ	UBRRL	= 0x09
                 .equ	ACSR	= 0x08
                 .equ	UCSRC	= 0x03
                 .equ	UBRRH	= 0x02
                 .equ	DIDR	= 0x01
                 
                 
                 ; ***** BIT DEFINITIONS **************************************************
                 
                 ; ***** PORTB ************************
                 ; PORTB - Port B Data Register
                 .equ	PORTB0	= 0	; Port B Data Register bit 0
                 .equ	PB0	= 0	; For compatibility
                 .equ	PORTB1	= 1	; Port B Data Register bit 1
                 .equ	PB1	= 1	; For compatibility
                 .equ	PORTB2	= 2	; Port B Data Register bit 2
                 .equ	PB2	= 2	; For compatibility
                 .equ	PORTB3	= 3	; Port B Data Register bit 3
                 .equ	PB3	= 3	; For compatibility
                 .equ	PORTB4	= 4	; Port B Data Register bit 4
                 .equ	PB4	= 4	; For compatibility
                 .equ	PORTB5	= 5	; Port B Data Register bit 5
                 .equ	PB5	= 5	; For compatibility
                 .equ	PORTB6	= 6	; Port B Data Register bit 6
                 .equ	PB6	= 6	; For compatibility
                 .equ	PORTB7	= 7	; Port B Data Register bit 7
                 .equ	PB7	= 7	; For compatibility
                 
                 ; DDRB - Port B Data Direction Register
                 .equ	DDB0	= 0	; Port B Data Direction Register bit 0
                 .equ	DDB1	= 1	; Port B Data Direction Register bit 1
                 .equ	DDB2	= 2	; Port B Data Direction Register bit 2
                 .equ	DDB3	= 3	; Port B Data Direction Register bit 3
                 .equ	DDB4	= 4	; Port B Data Direction Register bit 4
                 .equ	DDB5	= 5	; Port B Data Direction Register bit 5
                 .equ	DDB6	= 6	; Port B Data Direction Register bit 6
                 .equ	DDB7	= 7	; Port B Data Direction Register bit 7
                 
                 ; PINB - Port B Input Pins
                 .equ	PINB0	= 0	; Port B Input Pins bit 0
                 .equ	PINB1	= 1	; Port B Input Pins bit 1
                 .equ	PINB2	= 2	; Port B Input Pins bit 2
                 .equ	PINB3	= 3	; Port B Input Pins bit 3
                 .equ	PINB4	= 4	; Port B Input Pins bit 4
                 .equ	PINB5	= 5	; Port B Input Pins bit 5
                 .equ	PINB6	= 6	; Port B Input Pins bit 6
                 .equ	PINB7	= 7	; Port B Input Pins bit 7
                 
                 
                 ; ***** TIMER_COUNTER_0 **************
                 ; TIMSK - Timer/Counter Interrupt Mask Register
                 .equ	OCIE0A	= 0	; Timer/Counter0 Output Compare Match A Interrupt Enable
                 .equ	TOIE0	= 1	; Timer/Counter0 Overflow Interrupt Enable
                 .equ	OCIE0B	= 2	; Timer/Counter0 Output Compare Match B Interrupt Enable
                 
                 ; TIFR - Timer/Counter Interrupt Flag register
                 .equ	OCF0A	= 0	; Timer/Counter0 Output Compare Flag 0A
                 .equ	TOV0	= 1	; Timer/Counter0 Overflow Flag
                 .equ	OCF0B	= 2	; Timer/Counter0 Output Compare Flag 0B
                 
                 ; OCR0B - Timer/Counter0 Output Compare Register
                 .equ	OCR0_0	= 0	; 
                 .equ	OCR0_1	= 1	; 
                 .equ	OCR0_2	= 2	; 
                 .equ	OCR0_3	= 3	; 
                 .equ	OCR0_4	= 4	; 
                 .equ	OCR0_5	= 5	; 
                 .equ	OCR0_6	= 6	; 
                 .equ	OCR0_7	= 7	; 
                 
                 ; OCR0A - Timer/Counter0 Output Compare Register
                 ;.equ	OCR0_0	= 0	; 
                 ;.equ	OCR0_1	= 1	; 
                 ;.equ	OCR0_2	= 2	; 
                 ;.equ	OCR0_3	= 3	; 
                 ;.equ	OCR0_4	= 4	; 
                 ;.equ	OCR0_5	= 5	; 
                 ;.equ	OCR0_6	= 6	; 
                 ;.equ	OCR0_7	= 7	; 
                 
                 ; TCCR0A - Timer/Counter  Control Register A
                 .equ	WGM00	= 0	; Waveform Generation Mode
                 .equ	WGM01	= 1	; Waveform Generation Mode
                 .equ	COM0B0	= 4	; Compare Match Output B Mode
                 .equ	COM0B1	= 5	; Compare Match Output B Mode
                 .equ	COM0A0	= 6	; Compare Match Output A Mode
                 .equ	COM0A1	= 7	; Compare Match Output A Mode
                 
                 ; TCNT0 - Timer/Counter0
                 .equ	TCNT0_0	= 0	; 
                 .equ	TCNT0_1	= 1	; 
                 .equ	TCNT0_2	= 2	; 
                 .equ	TCNT0_3	= 3	; 
                 .equ	TCNT0_4	= 4	; 
                 .equ	TCNT0_5	= 5	; 
                 .equ	TCNT0_6	= 6	; 
                 .equ	TCNT0_7	= 7	; 
                 
                 ; TCCR0B - Timer/Counter Control Register B
                 .equ	TCCR0	= TCCR0B	; For compatibility
                 .equ	CS00	= 0	; Clock Select
                 .equ	CS01	= 1	; Clock Select
                 .equ	CS02	= 2	; Clock Select
                 .equ	WGM02	= 3	; 
                 .equ	FOC0B	= 6	; Force Output Compare B
                 .equ	FOC0A	= 7	; Force Output Compare B
                 
                 
                 ; ***** TIMER_COUNTER_1 **************
                 ; TIMSK - Timer/Counter Interrupt Mask Register
                 .equ	ICIE1	= 3	; Timer/Counter1 Input Capture Interrupt Enable
                 .equ	TICIE	= ICIE1	; For compatibility
                 .equ	OCIE1B	= 5	; Timer/Counter1 Output CompareB Match Interrupt Enable
                 .equ	OCIE1A	= 6	; Timer/Counter1 Output CompareA Match Interrupt Enable
                 .equ	TOIE1	= 7	; Timer/Counter1 Overflow Interrupt Enable
                 
                 ; TIFR - Timer/Counter Interrupt Flag register
                 .equ	ICF1	= 3	; Input Capture Flag 1
                 .equ	OCF1B	= 5	; Output Compare Flag 1B
                 .equ	OCF1A	= 6	; Output Compare Flag 1A
                 .equ	TOV1	= 7	; Timer/Counter1 Overflow Flag
                 
                 ; TCCR1A - Timer/Counter1 Control Register A
                 .equ	WGM10	= 0	; Pulse Width Modulator Select Bit 0
                 .equ	PWM10	= WGM10	; For compatibility
                 .equ	WGM11	= 1	; Pulse Width Modulator Select Bit 1
                 .equ	PWM11	= WGM11	; For compatibility
                 .equ	COM1B0	= 4	; Comparet Ouput Mode 1B, bit 0
                 .equ	COM1B1	= 5	; Compare Output Mode 1B, bit 1
                 .equ	COM1A0	= 6	; Comparet Ouput Mode 1A, bit 0
                 .equ	COM1A1	= 7	; Compare Output Mode 1A, bit 1
                 
                 ; TCCR1B - Timer/Counter1 Control Register B
                 .equ	CS10	= 0	; Clock Select bit 0
                 .equ	CS11	= 1	; Clock Select 1 bit 1
                 .equ	CS12	= 2	; Clock Select1 bit 2
                 .equ	WGM12	= 3	; Waveform Generation Mode Bit 2
                 .equ	CTC1	= WGM12	; For compatibility
                 .equ	WGM13	= 4	; Waveform Generation Mode Bit 3
                 .equ	ICES1	= 6	; Input Capture 1 Edge Select
                 .equ	ICNC1	= 7	; Input Capture 1 Noise Canceler
                 
                 ; TCCR1C - Timer/Counter1 Control Register C
                 .equ	FOC1B	= 6	; Force Output Compare for Channel B
                 .equ	FOC1A	= 7	; Force Output Compare for Channel A
                 
                 
                 ; ***** WATCHDOG *********************
                 ; WDTCR - Watchdog Timer Control Register
                 .equ	WDTCSR	= WDTCR	; For compatibility
                 .equ	WDP0	= 0	; Watch Dog Timer Prescaler bit 0
                 .equ	WDP1	= 1	; Watch Dog Timer Prescaler bit 1
                 .equ	WDP2	= 2	; Watch Dog Timer Prescaler bit 2
                 .equ	WDE	= 3	; Watch Dog Enable
                 .equ	WDCE	= 4	; Watchdog Change Enable
                 .equ	WDTOE	= WDCE	; For compatibility
                 .equ	WDP3	= 5	; Watchdog Timer Prescaler Bit 3
                 .equ	WDIE	= 6	; Watchdog Timeout Interrupt Enable
                 .equ	WDIF	= 7	; Watchdog Timeout Interrupt Flag
                 
                 
                 ; ***** EXTERNAL_INTERRUPT ***********
                 ; GIMSK - General Interrupt Mask Register
                 .equ	PCIE	= 5	; 
                 .equ	INT0	= 6	; External Interrupt Request 0 Enable
                 .equ	INT1	= 7	; External Interrupt Request 1 Enable
                 
                 ; EIFR - Extended Interrupt Flag Register
                 .equ	GIFR	= EIFR	; For compatibility
                 .equ	PCIF	= 5	; 
                 .equ	INTF0	= 6	; External Interrupt Flag 0
                 .equ	INTF1	= 7	; External Interrupt Flag 1
                 
                 
                 ; ***** USART ************************
                 ; UDR - USART I/O Data Register
                 .equ	UDR0	= 0	; USART I/O Data Register bit 0
                 .equ	UDR1	= 1	; USART I/O Data Register bit 1
                 .equ	UDR2	= 2	; USART I/O Data Register bit 2
                 .equ	UDR3	= 3	; USART I/O Data Register bit 3
                 .equ	UDR4	= 4	; USART I/O Data Register bit 4
                 .equ	UDR5	= 5	; USART I/O Data Register bit 5
                 .equ	UDR6	= 6	; USART I/O Data Register bit 6
                 .equ	UDR7	= 7	; USART I/O Data Register bit 7
                 
                 ; UCSRA - USART Control and Status Register A
                 .equ	USR	= UCSRA	; For compatibility
                 .equ	MPCM	= 0	; Multi-processor Communication Mode
                 .equ	U2X	= 1	; Double the USART Transmission Speed
                 .equ	UPE	= 2	; USART Parity Error
                 .equ	PE	= UPE	; For compatibility
                 .equ	DOR	= 3	; Data overRun
                 .equ	FE	= 4	; Framing Error
                 .equ	UDRE	= 5	; USART Data Register Empty
                 .equ	TXC	= 6	; USART Transmitt Complete
                 .equ	RXC	= 7	; USART Receive Complete
                 
                 ; UCSRB - USART Control and Status Register B
                 .equ	UCR	= UCSRB	; For compatibility
                 .equ	TXB8	= 0	; Transmit Data Bit 8
                 .equ	RXB8	= 1	; Receive Data Bit 8
                 .equ	UCSZ2	= 2	; Character Size
                 .equ	CHR9	= UCSZ2	; For compatibility
                 .equ	TXEN	= 3	; Transmitter Enable
                 .equ	RXEN	= 4	; Receiver Enable
                 .equ	UDRIE	= 5	; USART Data register Empty Interrupt Enable
                 .equ	TXCIE	= 6	; TX Complete Interrupt Enable
                 .equ	RXCIE	= 7	; RX Complete Interrupt Enable
                 
                 ; UCSRC - USART Control and Status Register C
                 .equ	UCPOL	= 0	; Clock Polarity
                 .equ	UCSZ0	= 1	; Character Size Bit 0
                 .equ	UCSZ1	= 2	; Character Size Bit 1
                 .equ	USBS	= 3	; Stop Bit Select
                 .equ	UPM0	= 4	; Parity Mode Bit 0
                 .equ	UPM1	= 5	; Parity Mode Bit 1
                 .equ	UMSEL	= 6	; USART Mode Select
                 
                 .equ	UBRR	= UBRRL	; For compatibility
                 
                 ; ***** ANALOG_COMPARATOR ************
                 ; ACSR - Analog Comparator Control And Status Register
                 .equ	ACIS0	= 0	; Analog Comparator Interrupt Mode Select bit 0
                 .equ	ACIS1	= 1	; Analog Comparator Interrupt Mode Select bit 1
                 .equ	ACIC	= 2	; 
                 .equ	ACIE	= 3	; Analog Comparator Interrupt Enable
                 .equ	ACI	= 4	; Analog Comparator Interrupt Flag
                 .equ	ACO	= 5	; Analog Compare Output
                 .equ	ACBG	= 6	; Analog Comparator Bandgap Select
                 .equ	ACD	= 7	; Analog Comparator Disable
                 
                 ; DIDR - Digital Input Disable Register 1
                 .equ	AIN0D	= 0	; AIN0 Digital Input Disable
                 .equ	AIN1D	= 1	; AIN1 Digital Input Disable
                 
                 
                 ; ***** PORTD ************************
                 ; PORTD - Data Register, Port D
                 .equ	PORTD0	= 0	; 
                 .equ	PD0	= 0	; For compatibility
                 .equ	PORTD1	= 1	; 
                 .equ	PD1	= 1	; For compatibility
                 .equ	PORTD2	= 2	; 
                 .equ	PD2	= 2	; For compatibility
                 .equ	PORTD3	= 3	; 
                 .equ	PD3	= 3	; For compatibility
                 .equ	PORTD4	= 4	; 
                 .equ	PD4	= 4	; For compatibility
                 .equ	PORTD5	= 5	; 
                 .equ	PD5	= 5	; For compatibility
                 .equ	PORTD6	= 6	; 
                 .equ	PD6	= 6	; For compatibility
                 
                 ; DDRD
                 .equ	DDD0	= 0	; 
                 .equ	DDD1	= 1	; 
                 .equ	DDD2	= 2	; 
                 .equ	DDD3	= 3	; 
                 .equ	DDD4	= 4	; 
                 .equ	DDD5	= 5	; 
                 .equ	DDD6	= 6	; 
                 
                 ; PIND - Input Pins, Port D
                 .equ	PIND0	= 0	; 
                 .equ	PIND1	= 1	; 
                 .equ	PIND2	= 2	; 
                 .equ	PIND3	= 3	; 
                 .equ	PIND4	= 4	; 
                 .equ	PIND5	= 5	; 
                 .equ	PIND6	= 6	; 
                 
                 
                 ; ***** EEPROM ***********************
                 ; EEAR - EEPROM Read/Write Access
                 .equ	EEARL	= EEAR	; For compatibility
                 .equ	EEAR0	= 0	; EEPROM Read/Write Access bit 0
                 .equ	EEAR1	= 1	; EEPROM Read/Write Access bit 1
                 .equ	EEAR2	= 2	; EEPROM Read/Write Access bit 2
                 .equ	EEAR3	= 3	; EEPROM Read/Write Access bit 3
                 .equ	EEAR4	= 4	; EEPROM Read/Write Access bit 4
                 .equ	EEAR5	= 5	; EEPROM Read/Write Access bit 5
                 .equ	EEAR6	= 6	; EEPROM Read/Write Access bit 6
                 
                 ; EEDR - EEPROM Data Register
                 .equ	EEDR0	= 0	; EEPROM Data Register bit 0
                 .equ	EEDR1	= 1	; EEPROM Data Register bit 1
                 .equ	EEDR2	= 2	; EEPROM Data Register bit 2
                 .equ	EEDR3	= 3	; EEPROM Data Register bit 3
                 .equ	EEDR4	= 4	; EEPROM Data Register bit 4
                 .equ	EEDR5	= 5	; EEPROM Data Register bit 5
                 .equ	EEDR6	= 6	; EEPROM Data Register bit 6
                 .equ	EEDR7	= 7	; EEPROM Data Register bit 7
                 
                 ; EECR - EEPROM Control Register
                 .equ	EERE	= 0	; EEPROM Read Enable
                 .equ	EEPE	= 1	; EEPROM Write Enable
                 .equ	EEWE	= EEPE	; For compatibility
                 .equ	EEMPE	= 2	; EEPROM Master Write Enable
                 .equ	EEMWE	= EEMPE	; For compatibility
                 .equ	EERIE	= 3	; EEProm Ready Interrupt Enable
                 .equ	EEPM0	= 4	; 
                 .equ	EEPM1	= 5	; 
                 
                 
                 ; ***** PORTA ************************
                 ; PORTA - Port A Data Register
                 .equ	PORTA0	= 0	; Port A Data Register bit 0
                 .equ	PA0	= 0	; For compatibility
                 .equ	PORTA1	= 1	; Port A Data Register bit 1
                 .equ	PA1	= 1	; For compatibility
                 .equ	PORTA2	= 2	; Port A Data Register bit 2
                 .equ	PA2	= 2	; For compatibility
                 
                 ; DDRA - Port A Data Direction Register
                 .equ	DDA0	= 0	; Data Direction Register, Port A, bit 0
                 .equ	DDA1	= 1	; Data Direction Register, Port A, bit 1
                 .equ	DDA2	= 2	; Data Direction Register, Port A, bit 2
                 
                 ; PINA - Port A Input Pins
                 .equ	PINA0	= 0	; Input Pins, Port A bit 0
                 .equ	PINA1	= 1	; Input Pins, Port A bit 1
                 .equ	PINA2	= 2	; Input Pins, Port A bit 2
                 
                 
                 ; ***** CPU **************************
                 ; SREG - Status Register
                 .equ	SREG_C	= 0	; Carry Flag
                 .equ	SREG_Z	= 1	; Zero Flag
                 .equ	SREG_N	= 2	; Negative Flag
                 .equ	SREG_V	= 3	; Two's Complement Overflow Flag
                 .equ	SREG_S	= 4	; Sign Bit
                 .equ	SREG_H	= 5	; Half Carry Flag
                 .equ	SREG_T	= 6	; Bit Copy Storage
                 .equ	SREG_I	= 7	; Global Interrupt Enable
                 
                 ; SPMCSR - Store Program Memory Control and Status register
                 .equ	SPMEN	= 0	; Store Program Memory Enable
                 .equ	PGERS	= 1	; Page Erase
                 .equ	PGWRT	= 2	; Page Write
                 .equ	RFLB	= 3	; Read Fuse and Lock Bits
                 .equ	CTPB	= 4
                 
                 ; MCUCR - MCU Control Register
                 .equ	ISC00	= 0	; Interrupt Sense Control 0 bit 0
                 .equ	ISC01	= 1	; Interrupt Sense Control 0 bit 1
                 .equ	ISC10	= 2	; Interrupt Sense Control 1 bit 0
                 .equ	ISC11	= 3	; Interrupt Sense Control 1 bit 1
                 .equ	SM0	= 4	; Sleep Mode Select Bit 0
                 .equ	SM	= SM0	; For compatibility
                 .equ	SE	= 5	; Sleep Enable
                 .equ	SM1	= 6	; Sleep Mode Select Bit 1
                 .equ	PUD	= 7	; Pull-up Disable
                 
                 ; CLKPR - Clock Prescale Register
                 .equ	CLKPS0	= 0	; Clock Prescaler Select Bit 0
                 .equ	CLKPS1	= 1	; Clock Prescaler Select Bit 1
                 .equ	CLKPS2	= 2	; Clock Prescaler Select Bit 2
                 .equ	CLKPS3	= 3	; Clock Prescaler Select Bit 3
                 .equ	CLKPCE	= 7	; Clock Prescaler Change Enable
                 
                 ; MCUSR - MCU Status register
                 .equ	PORF	= 0	; Power-On Reset Flag
                 .equ	EXTRF	= 1	; External Reset Flag
                 .equ	BORF	= 2	; Brown-out Reset Flag
                 .equ	WDRF	= 3	; Watchdog Reset Flag
                 
                 ; OSCCAL - Oscillator Calibration Register
                 .equ	CAL0	= 0	; Oscillatro Calibration Value Bit 0
                 .equ	CAL1	= 1	; Oscillatro Calibration Value Bit 1
                 .equ	CAL2	= 2	; Oscillatro Calibration Value Bit 2
                 .equ	CAL3	= 3	; Oscillatro Calibration Value Bit 3
                 .equ	CAL4	= 4	; Oscillatro Calibration Value Bit 4
                 .equ	CAL5	= 5	; Oscillatro Calibration Value Bit 5
                 .equ	CAL6	= 6	; Oscillatro Calibration Value Bit 6
                 
                 ; GTCCR - General Timer Counter Control Register
                 .equ	SFIOR	= GTCCR	; For compatibility
                 .equ	PSR10	= 0	; 
                 
                 ; PCMSK - Pin-Change Mask register
                 .equ	PCINT0	= 0	; Pin-Change Interrupt 0
                 .equ	PCINT1	= 1	; Pin-Change Interrupt 1
                 .equ	PCINT2	= 2	; Pin-Change Interrupt 2
                 .equ	PCINT3	= 3	; Pin-Change Interrupt 3
                 .equ	PCINT4	= 4	; Pin-Change Interrupt 4
                 .equ	PCINT5	= 5	; Pin-Change Interrupt 5
                 .equ	PCINT6	= 6	; Pin-Change Interrupt 6
                 .equ	PCINT7	= 7	; Pin-Change Interrupt 7
                 
                 ; GPIOR2 - General Purpose I/O Register 2
                 .equ	GPIOR20	= 0	; General Purpose I/O Register 2 bit 0
                 .equ	GPIOR21	= 1	; General Purpose I/O Register 2 bit 1
                 .equ	GPIOR22	= 2	; General Purpose I/O Register 2 bit 2
                 .equ	GPIOR23	= 3	; General Purpose I/O Register 2 bit 3
                 .equ	GPIOR24	= 4	; General Purpose I/O Register 2 bit 4
                 .equ	GPIOR25	= 5	; General Purpose I/O Register 2 bit 5
                 .equ	GPIOR26	= 6	; General Purpose I/O Register 2 bit 6
                 .equ	GPIOR27	= 7	; General Purpose I/O Register 2 bit 7
                 
                 ; GPIOR1 - General Purpose I/O Register 1
                 .equ	GPIOR10	= 0	; General Purpose I/O Register 1 bit 0
                 .equ	GPIOR11	= 1	; General Purpose I/O Register 1 bit 1
                 .equ	GPIOR12	= 2	; General Purpose I/O Register 1 bit 2
                 .equ	GPIOR13	= 3	; General Purpose I/O Register 1 bit 3
                 .equ	GPIOR14	= 4	; General Purpose I/O Register 1 bit 4
                 .equ	GPIOR15	= 5	; General Purpose I/O Register 1 bit 5
                 .equ	GPIOR16	= 6	; General Purpose I/O Register 1 bit 6
                 .equ	GPIOR17	= 7	; General Purpose I/O Register 1 bit 7
                 
                 ; GPIOR0 - General Purpose I/O Register 0
                 .equ	GPIOR00	= 0	; General Purpose I/O Register 0 bit 0
                 .equ	GPIOR01	= 1	; General Purpose I/O Register 0 bit 1
                 .equ	GPIOR02	= 2	; General Purpose I/O Register 0 bit 2
                 .equ	GPIOR03	= 3	; General Purpose I/O Register 0 bit 3
                 .equ	GPIOR04	= 4	; General Purpose I/O Register 0 bit 4
                 .equ	GPIOR05	= 5	; General Purpose I/O Register 0 bit 5
                 .equ	GPIOR06	= 6	; General Purpose I/O Register 0 bit 6
                 .equ	GPIOR07	= 7	; General Purpose I/O Register 0 bit 7
                 
                 
                 ; ***** USI **************************
                 ; USIDR - USI Data Register
                 .equ	USIDR0	= 0	; USI Data Register bit 0
                 .equ	USIDR1	= 1	; USI Data Register bit 1
                 .equ	USIDR2	= 2	; USI Data Register bit 2
                 .equ	USIDR3	= 3	; USI Data Register bit 3
                 .equ	USIDR4	= 4	; USI Data Register bit 4
                 .equ	USIDR5	= 5	; USI Data Register bit 5
                 .equ	USIDR6	= 6	; USI Data Register bit 6
                 .equ	USIDR7	= 7	; USI Data Register bit 7
                 
                 ; USISR - USI Status Register
                 .equ	USICNT0	= 0	; USI Counter Value Bit 0
                 .equ	USICNT1	= 1	; USI Counter Value Bit 1
                 .equ	USICNT2	= 2	; USI Counter Value Bit 2
                 .equ	USICNT3	= 3	; USI Counter Value Bit 3
                 .equ	USIDC	= 4	; Data Output Collision
                 .equ	USIPF	= 5	; Stop Condition Flag
                 .equ	USIOIF	= 6	; Counter Overflow Interrupt Flag
                 .equ	USISIF	= 7	; Start Condition Interrupt Flag
                 
                 ; USICR - USI Control Register
                 .equ	USITC	= 0	; Toggle Clock Port Pin
                 .equ	USICLK	= 1	; Clock Strobe
                 .equ	USICS0	= 2	; USI Clock Source Select Bit 0
                 .equ	USICS1	= 3	; USI Clock Source Select Bit 1
                 .equ	USIWM0	= 4	; USI Wire Mode Bit 0
                 .equ	USIWM1	= 5	; USI Wire Mode Bit 1
                 .equ	USIOIE	= 6	; Counter Overflow Interrupt Enable
                 .equ	USISIE	= 7	; Start Condition Interrupt Enable
                 
                 
                 
                 ; ***** LOCKSBITS ********************************************************
                 .equ	LB1	= 0	; Lockbit
                 .equ	LB2	= 1	; Lockbit
                 
                 
                 ; ***** FUSES ************************************************************
                 ; LOW fuse bits
                 .equ	CKSEL0	= 0	; Select Clock Source
                 .equ	CKSEL1	= 1	; Select Clock Source
                 .equ	CKSEL2	= 2	; Select Clock Source
                 .equ	CKSEL3	= 3	; Select Clock Source
                 .equ	SUT0	= 4	; Select start-up time
                 .equ	SUT1	= 5	; Select start-up time
                 .equ	CKOUT	= 6	; Clock output
                 .equ	CKDIV8	= 7	; Divide clock by 8
                 
                 ; HIGH fuse bits
                 .equ	BODLEVEL0	= 0	; Brown-out Detector trigger level
                 .equ	BODLEVEL1	= 1	; Brown-out Detector trigger level
                 .equ	BODLEVEL2	= 2	; Brown-out Detector trigger level
                 .equ	EESAVE	= 3	; EEPROM memory is preserved through chip erase
                 .equ	WDTON	= 4	; Watchdog Timer Always On
                 .equ	SPIEN	= 5	; Enable Serial programming and Data Downloading
                 .equ	DWEN	= 6	; debugWIRE Enable
                 .equ	RSTDISBL	= 7	; External reset disable
                 
                 ; EXTENDED fuse bits
                 .equ	SELFPRGEN	= 0	; Self Programming Enable
                 
                 
                 
                 ; ***** CPU REGISTER DEFINITIONS *****************************************
                 .def	XH	= r27
                 .def	XL	= r26
                 .def	YH	= r29
                 .def	YL	= r28
                 .def	ZH	= r31
                 .def	ZL	= r30
                 
                 
                 
                 ; ***** DATA MEMORY DECLARATIONS *****************************************
                 .equ	FLASHEND	= 0x03ff	; Note: Word address
                 .equ	IOEND	= 0x003f
                 .equ	SRAM_START	= 0x0060
                 .equ	SRAM_SIZE	= 128
                 .equ	RAMEND	= 0x00df
                 .equ	XRAMEND	= 0x0000
                 .equ	E2END	= 0x007f
                 .equ	EEPROMEND	= 0x007f
                 .equ	EEADRBITS	= 7
                 #pragma AVRPART MEMORY PROG_FLASH 2048
                 #pragma AVRPART MEMORY EEPROM 128
                 #pragma AVRPART MEMORY INT_SRAM SIZE 128
                 #pragma AVRPART MEMORY INT_SRAM START_ADDR 0x60
                 
                 
                 
                 ; ***** BOOTLOADER DECLARATIONS ******************************************
                 .equ	NRWW_START_ADDR	= 0x0
                 .equ	NRWW_STOP_ADDR	= 0x3ff
                 .equ	RWW_START_ADDR	= 0x0
                 .equ	RWW_STOP_ADDR	= 0x0
                 .equ	PAGESIZE	= 16
                 
                 
                 
                 ; ***** INTERRUPT VECTORS ************************************************
                 .equ	INT0addr	= 0x0001	; External Interrupt Request 0
                 .equ	INT1addr	= 0x0002	; External Interrupt Request 1
                 .equ	ICP1addr	= 0x0003	; Timer/Counter1 Capture Event
                 .equ	OC1Aaddr	= 0x0004	; Timer/Counter1 Compare Match A
                 .equ	OC1addr	= 0x0004	; For compatibility
                 .equ	OVF1addr	= 0x0005	; Timer/Counter1 Overflow
                 .equ	OVF0addr	= 0x0006	; Timer/Counter0 Overflow
                 .equ	URXCaddr	= 0x0007	; USART, Rx Complete
                 .equ	URXC0addr	= 0x0007	; For compatibility
                 .equ	UDREaddr	= 0x0008	; USART Data Register Empty
                 .equ	UDRE0addr	= 0x0008	; For compatibility
                 .equ	UTXCaddr	= 0x0009	; USART, Tx Complete
                 .equ	UTXC0addr	= 0x0009	; For compatibility
                 .equ	ACIaddr	= 0x000a	; Analog Comparator
                 .equ	PCIaddr	= 0x000b	; 
                 .equ	OC1Baddr	= 0x000c	; 
                 .equ	OC0Aaddr	= 0x000d	; 
                 .equ	OC0Baddr	= 0x000e	; 
                 .equ	USI_STARTaddr	= 0x000f	; USI Start Condition
                 .equ	USI_OVFaddr	= 0x0010	; USI Overflow
                 .equ	ERDYaddr	= 0x0011	; 
                 .equ	WDTaddr	= 0x0012	; Watchdog Timer Overflow
                 
                 .equ	INT_VECTORS_SIZE	= 19	; size in words
                 
                 #endif  /* _TN2313DEF_INC_ */
                 
                 ; ***** END OF FILE ******************************************************
                 
                 
                 		   .ORG	$0000                ;Reset Handle 
000000 c007          	    RJMP  	RESET			
                 		   .ORG $0007                ;RX Complete  
000007 c026      		    RJMP    EXIT_TEST       
                 
                 ;/************************
                 ; Define Register
                 ;/************************
                 
                 .def		COUNTER1  	= R16
                 .def		COUNTER2	= R17
                 .def		COUNTER3	= R18
                 .def		TEMP		= R19
                 .def		COLUMN		= R20
                 .def		DATA		= R21
                 .def		TEMP1		= R22
                 .def		ADDRESS		= R23
                 .def		FLAG		= R24
                 .def        TEMP2       = R25
                 
                 
                 ;/***********************
                 ; Main Program
                 ;/***********************
                 RESET:      
000008 ed3f      			LDI		TEMP,LOW(RAMEND)
000009 bf3d                  OUT		SPL,TEMP            ;init Stack Pointer     
00000a e030                  LDI		TEMP,HIGH(RAMEND)
00000b bf3e                  OUT		SPL+1,TEMP        	
                 main:		
00000c 9a53      			SBI		UCR,TXEN
00000d 9a54                  SBI		UCR,RXEN
00000e e23f                  LDI 	TEMP,47             ;Baud 9600 at 7.3728 MHz X-TAL
00000f b939      		    OUT		UBRR,TEMP
                 Loop:   	
000010 e0f5      			LDI 	ZH,high(2*TEXT1)
000011 e0e4      			LDI		ZL,low(2*TEXT1)
000012 d04f      			RCALL	Intro		     
000013 d05b      			RCALL	RX_Byte
000014 d056      			RCALL	TX_Byte
000015 935f      			PUSH	DATA
000016 e05d      			LDI		DATA,0x0d
000017 d053      			RCALL	TX_Byte
000018 e032      			LDI		TEMP,2
                 Line_Feed:	
000019 e05a      			LDI		DATA,0x0a
00001a d050      			RCALL	TX_byte
00001b 953a      			DEC		TEMP
00001c f7e1      			BRNE	Line_Feed
00001d 915f      			POP		DATA
                 
00001e 3351          		CPI 	DATA,'1'
00001f f049          		BREQ  	RS232_
000020 3352          		CPI 	DATA,'2'
000021 f041          		BREQ 	TEST_EEPROM_
000022 3353          		CPI 	DATA,'3'
000023 f039         			BREQ 	TEST_1307_
000024 3354        			CPI 	DATA,'4'
000025 f031          		BREQ 	TEST_LCD_
000026 3355      			CPI 	DATA,'5'
000027 f029          		BREQ 	TEST_PORT_
000028 cfe7          		RJMP  	Loop    
                 
                 
                 RS232_:		
000029 c02d      			RJMP    RS232
                 TEST_EEPROM_: 
00002a c04e      			RJMP    TEST_EEP
                 TEST_1307_: 	
00002b c0f4      			RJMP    TEST_DS1307
                 TEST_LCD_: 			
00002c c18b      			RJMP    TEST_LCD
                 TEST_PORT_:
00002d c00a      			RJMP    TEST_PORT
                 
                 
                 EXIT_TEST:	
00002e b16c      		    IN 	    TEMP1,UDR
00002f 9468      		    SET
000030 316b      		    CPI	    TEMP1,27
000031 f009      		    BREQ	EXIT_TEST_
000032 94e8      		    CLT
                 EXIT_TEST_:	
000033 9518                  RETI
                 
                 TX232_JR:   
000034 9b5d      			SBIS    USR,UDRE           ;wait until UDRE = 1
000035 cffe                  RJMP    TX232_JR
000036 b93c                  OUT     UDR,TEMP           ;send DATA to serial  
000037 9508                  RET
                 
                 ;***************************************************************************
                 ;*                     TEST PORTB , PORTD                                  *
                 ;***************************************************************************
                 
                 TEST_PORT:    
000038 e0f4      			LDI     ZH,HIGH(PORT_TB*2)
000039 e5e6                  LDI     ZL,LOW(PORT_TB*2)
00003a d027                  RCALL   Intro
00003b 9a57                  SBI     UCR,RXCIE
00003c 9478                  SEI
00003d ef3f                  SER     TEMP
                 
00003e ef1f                  LDI     R17,0xFF          
00003f bb17                  OUT     DDRB,R17
000040 bb11      			OUT     DDRD,R17
                 
                 
                 loop_IO:    
000041 ef1e      			LDI     R17,0b11111110
000042 9408      			SEC
                 loop1_IO:   
000043 bb18      			OUT     PORTB,R17
000044 bb12      			OUT     PORTD,R17
000045 d007                  RCALL   delay_IO
000046 1f11                  ROL     R17
000047 f00e                  BRTS	END_LOOP_PORT
000048 cffa                  RJMP    loop1_IO
                 
                 END_LOOP_PORT:
000049 9857               	CBI	    UCR,RXCIE
00004a 94f8      		    CLI
00004b 94e8      		    CLT
00004c cfbf      		    RJMP	main
                 
                 ;**********************************         
                 ;*         Delay program          *  
                 ;**********************************   
                 delay_IO:   
00004d e065      			LDI     R22,0x05
                 dly1_IO:    
00004e ef7f      			LDI     R23,0xFF
                 dly2_IO:    
00004f ef8f      			LDI     R24,0xFF
                 dly3_IO:    
000050 958a      			DEC     R24
000051 f7f1                 	BRNE    dly3_IO
000052 957a                 	DEC     R23
000053 f7d9                 	BRNE    dly2_IO
000054 956a                 	DEC     R22
000055 f7c1                 	BRNE    dly1_IO
000056 9508                 	RET   
                 
                 ;***************************************
                 
                 RS232:          
000057 e0f6      			LDI    ZH,high(2*RS232TB)
000058 e3e4                  LDI    ZL,low(2*RS232TB)
000059 d008                  RCALL  Intro
00005a 9857                  CBI    UCR,RXCIE
00005b 94f8                  CLI
                 sub_RS232:      
00005c d012      			RCALL  RX_Byte
00005d 315b                  CPI    DATA,27
00005e f011                  BREQ   end_loop_RS232
00005f d00b                  RCALL  TX_Byte
000060 cffb                  RJMP   sub_RS232
                 end_loop_RS232: 
000061 cfaa      			RJMP   main
                 
                 ;*****************************************
                 
                 
                 ;/*************
                 ; Send Text
                 ;/*************
                 Intro:      
000062 95c8      			LPM
000063 2000                  TST     R0
000064 f029                  BREQ    end_sub
                 TX232:      
000065 9b5d      			SBIS    USR,UDRE
000066 cffe                  RJMP    TX232
000067 b80c                  OUT     UDR,r0
000068 9631                  ADIW    ZL,1
000069 cff8                  RJMP    Intro
                 end_sub:    
00006a 9508      			RET
                 
                 ;/*************
                 ; Send a byte
                 ;/*************
                 TX_Byte:	
00006b 9b5d      			SBIS	USR,UDRE
00006c cffe      		    RJMP	TX_Byte
00006d b95c      	     	OUT	    UDR,DATA
00006e 9508      		    RET
                 ;/****************
                 ; Receive a byte
                 ;/****************
                 RX_Byte:	
00006f 9b5f      			SBIS	USR,RXC
000070 cffe      		    RJMP	RX_Byte
000071 b15c      		    IN	    DATA,UDR
000072 9508      		    RET
                 
                 ;***************************************************************************
                 
                 HEXASC:           
000073 e340      			LDI     COLUMN,0X30
000074 303a                  CPI     TEMP,0X0A
000075 f008                  BRCS    HEXASC1
000076 e346                 	LDI     COLUMN,0X36
                 HEXASC1:     
000077 0f34      	        ADD     TEMP,COLUMN
000078 9508                  RET
                            
                 ;***************************************************************************
                 
                 ;***************************************************************************
                 ;*                     SERIAL EEPROM (24LC256) TO RS232                    *
                 ;***************************************************************************
                 
                 
                 .EQU        PORT_EEP      =  PORTB
                 .EQU        DDR_EEP       =  DDRB
                 .EQU        PIN_EEP       =  PINB
                 .EQU        BIT_SCL_EEP   =  7
                 .EQU        BIT_SDA_EEP   =  5
                 
                 TEST_EEP:         
000079 e0f4      			LDI      ZH,HIGH(T_EEP*2)
00007a eeee                	LDI      ZL,LOW(T_EEP*2)
00007b dfe6                  RCALL    Intro
00007c 9a57                  SBI      UCR,RXCIE
00007d 9478                  SEI
00007e ef3f                  SER      TEMP
00007f 9abd                  SBI      DDR_EEP,BIT_SDA_EEP
000080 9abf                  SBI      DDR_EEP,BIT_SCL_EEP
000081 9ac5                  SBI      PORT_EEP,BIT_SDA_EEP
000082 9ac7                  SBI      PORT_EEP,BIT_SCL_EEP
                 
                 YY_EEP:           
000083 e03a      			LDI      TEMP,0x0A
000084 dfaf                  RCALL    TX232_JR    ;TX232_EEP
000085 e03d                  LDI      TEMP,0X0D
000086 dfad                  RCALL    TX232_JR    ;TX232_EEP
                 
000087 e0f4                  LDI      ZH,high(TEXT_TAB1_EEP*2)
000088 ebe6                  LDI      ZL,low(TEXT_TAB1_EEP*2)
                 AA_EEP:           
000089 95c8      			LPM
00008a e000                  LDI      R16,0x00
00008b 1600                  CP       R0,R16
00008c f021                  BREQ     BB_EEP
00008d 2d30                  MOV      TEMP,R0
00008e dfa5                  RCALL    TX232_JR    ;TX232_EEP
00008f 9631                  ADIW     ZL,1
000090 cff8                  RJMP     AA_EEP
                 
                 BB_EEP:           
000091 e03a      			LDI      TEMP,0x0A
000092 dfa1                  RCALL    TX232_JR    ;TX232_EEP
000093 e03d                  LDI      TEMP,0x0D
000094 df9f                  RCALL    TX232_JR    ;TX232_EEP
                 
000095 e0f4                  LDI      ZH,high(TEXT_TAB2_EEP*2)
000096 ece2                  LDI      ZL,low(TEXT_TAB2_EEP*2)
                 CC_EEP:           
000097 95c8      			LPM
000098 e000                  LDI      R16,0x00
000099 1600                  CP       R0,R16
00009a f021                  BREQ     DD_EEP
00009b 2d30                  MOV      TEMP,R0
00009c df97                  RCALL    TX232_JR    ;TX232_EEP
00009d 9631                  ADIW     ZL,1
00009e cff8                  RJMP     CC_EEP
                 
                 DD_EEP:           
00009f d010      			RCALL    WRITE_BYTE
0000a0 d026                  RCALL    RANDOM_READ
0000a1 933f                  PUSH     TEMP
0000a2 9532                  SWAP     TEMP
0000a3 703f                  ANDI     TEMP,0x0F
0000a4 d06b                  RCALL    HEXASC_EEP
0000a5 df8e                  RCALL    TX232_JR    ;TX232_EEP
0000a6 913f                  POP      TEMP
0000a7 703f                  ANDI     TEMP,0x0F
0000a8 d067                  RCALL    HEXASC_EEP
0000a9 df8a                  RCALL    TX232_JR    ;TX232_EEP
                 WAIT_EEP:   
0000aa f00e                  BRTS	 END_LOOP_EEP      
0000ab cffe      			RJMP     WAIT_EEP
                 
                 END_LOOP_EEP:
0000ac 9857               	CBI	    UCR,RXCIE
0000ad 94f8      		    CLI
0000ae 94e8      		    CLT
0000af cf5c      		    RJMP	main
                 
                 ;****************************************************
                 ;*                  WRITE BYTE                      *
                 ;****************************************************
                 WRITE_BYTE:       
0000b0 98c5      			CBI      PORT_EEP,BIT_SDA_EEP      	;start condition
0000b1 98c7                  CBI      PORT_EEP,BIT_SCL_EEP
0000b2 ea38                  LDI      TEMP,0xA8                	;write command
0000b3 d039                  RCALL    TX_BYTE_EEP
0000b4 d02f                  RCALL    ACKNOW                   	;wait acknowledge
0000b5 f3d0                  BRCS     WRITE_BYTE 
                 
0000b6 e030                  LDI      TEMP,0x00                 	;Address high
0000b7 d035                  RCALL    TX_BYTE_EEP
0000b8 d02b                  RCALL    ACKNOW               		;wait acknowledge
0000b9 f3b0                  BRCS     WRITE_BYTE
                 
0000ba e030                  LDI      TEMP,0x00            		;Address low
0000bb d031                  RCALL    TX_BYTE_EEP
0000bc d027                  RCALL    ACKNOW
0000bd f390                  BRCS     WRITE_BYTE
                 
0000be e535                  LDI      TEMP,0x55            		;DATA
0000bf d02d                  RCALL    TX_BYTE_EEP
0000c0 d023                  RCALL    ACKNOW               		;wait acknowledge
0000c1 f370                  BRCS     WRITE_BYTE
                 
0000c2 98c5                  CBI      PORT_EEP,BIT_SDA_EEP
                 
0000c3 9ac7                  SBI      PORT_EEP,BIT_SCL_EEP      	;stop condition
0000c4 9ac5                  SBI      PORT_EEP,BIT_SDA_EEP
0000c5 d03f                  RCALL    DELAY_EEP
0000c6 9508                  RET
                 
                 ;*****************************************************
                 ;*                   RANDOM READ                     *
                 ;*****************************************************
                 RANDOM_READ:      
0000c7 98c5      			CBI      PORT_EEP,BIT_SDA_EEP      	;start condition
0000c8 98c7                  CBI      PORT_EEP,BIT_SCL_EEP
0000c9 ea38                  LDI      TEMP,0xA8            		;write command
0000ca d022                  RCALL    TX_BYTE_EEP
0000cb d018                  RCALL    ACKNOW               		;wait acknowledge
0000cc f3d0                  BRCS     RANDOM_READ 
                 
0000cd e030                  LDI      TEMP,0x00            		;Address high
0000ce d01e                  RCALL    TX_BYTE_EEP
0000cf d014                  RCALL    ACKNOW               		;wait acknowledge
0000d0 f3b0                  BRCS     RANDOM_READ
                 
0000d1 e030                  LDI      TEMP,0x00            		;Address low
0000d2 d01a                  RCALL    TX_BYTE_EEP
0000d3 d010                  RCALL    ACKNOW
0000d4 f390                  BRCS     RANDOM_READ
                 
0000d5 9ac7                  SBI      PORT_EEP,BIT_SCL_EEP       ;stop condition
0000d6 9ac5                  SBI      PORT_EEP,BIT_SDA_EEP
                 
0000d7 98c5                  CBI      PORT_EEP,BIT_SDA_EEP
0000d8 98c7                  CBI      PORT_EEP,BIT_SCL_EEP
                 
0000d9 ea39                  LDI      TEMP,0xA9
0000da d012                  RCALL    TX_BYTE_EEP
0000db d008                  RCALL    ACKNOW
0000dc f350                  BRCS     RANDOM_READ
                 
0000dd d019                  RCALL    RX_BYTE_EEP
                 
0000de 9ac7                  SBI      PORT_EEP,BIT_SCL_EEP
0000df 9ac7                  SBI      PORT_EEP,BIT_SCL_EEP
                 
0000e0 98c5                  CBI      PORT_EEP,BIT_SDA_EEP
                 
0000e1 9ac7                  SBI      PORT_EEP,BIT_SCL_EEP        ;stop condition
0000e2 9ac5                  SBI      PORT_EEP,BIT_SDA_EEP
0000e3 9508                  RET
                 
                 ;*****************************************************
                 ;*             CHECK BIT ACKNOWLEDGE BIT             *
                 ;CARRY = 1: FAIL                                     *
                 ;CARRY = 0: PASS                                     *
                 ;*****************************************************
                 ACKNOW:           
0000e4 98bd      			CBI      DDR_EEP,BIT_SDA_EEP         ;BIT_SDA input port
0000e5 9ac5                  SBI      PORT_EEP,BIT_SDA_EEP
0000e6 9408                  SEC
0000e7 9ac7                  SBI      PORT_EEP,BIT_SCL_EEP
0000e8 9bb5                  SBIS     PIN_EEP,BIT_SDA_EEP
0000e9 9488                  CLC
0000ea 98c7                  CBI      PORT_EEP,BIT_SCL_EEP
0000eb 9abd                  SBI      DDR_EEP,BIT_SDA_EEP          ;BIT_SDA output port
0000ec 9508                  RET
                 
                 ;****************************************************
                 ;*               TX 1 BITE TO 24256                 *
                 ;****************************************************
                 TX_BYTE_EEP:      
0000ed e048      			LDI      COLUMN,0x08
                 TX_BYTE1_EEP:     
0000ee 9ac5      			SBI      PORT_EEP,BIT_SDA_EEP
0000ef 0f33                  LSL      TEMP
0000f0 f008                  BRCS     TX_BYTE2_EEP
0000f1 98c5                  CBI      PORT_EEP,BIT_SDA_EEP
                 TX_BYTE2_EEP:     
0000f2 9ac7      			SBI      PORT_EEP,BIT_SCL_EEP
0000f3 98c7                  CBI      PORT_EEP,BIT_SCL_EEP
0000f4 954a                  DEC      COLUMN
0000f5 f7c1                  BRNE     TX_BYTE1_EEP
0000f6 9508                  RET
                 
                 ;****************************************************
                 ;*               RX 1 BYTE FROM 24256               *
                 ;****************************************************
                 RX_BYTE_EEP:      
0000f7 98bd      			CBI      DDR_EEP,BIT_SDA_EEP
0000f8 9ac5                  SBI      PORT_EEP,BIT_SDA_EEP
0000f9 e030                  LDI      TEMP,0x00
0000fa e048                  LDI      COLUMN,0x08
                 RX_BYTE1_EEP:     
0000fb 9ac7      			SBI      PORT_EEP,BIT_SCL_EEP
0000fc 9408                  SEC
0000fd 9bb5                  SBIS     PIN_EEP,BIT_SDA_EEP
0000fe 9488                  CLC
0000ff 1f33                  ROL      TEMP
000100 98c7                  CBI      PORT_EEP,BIT_SCL_EEP
000101 954a                  DEC      COLUMN
000102 f7c1                  BRNE     RX_BYTE1_EEP
000103 9abd                  SBI      DDR_EEP,BIT_SDA_EEP
000104 9508                  RET
                 
                 ;***************************************************
                 ;*                DELAY TIME FOR START             *
                 ;***************************************************
                 DELAY_EEP:        
000105 93af      			PUSH     R26
000106 93bf                  PUSH     R27
000107 efbf                  LDI      R27,0xFF
                 DEL2_EEP:         
000108 efaf      			LDI      R26,0xFF
                 DEL1_EEP:         
000109 95aa      			DEC      R26
00010a f7f1                  BRNE     DEL1_EEP
00010b 95ba                  DEC      R27
00010c f7d9                  BRNE     DEL2_EEP
00010d 91bf                  POP      R27
00010e 91af                  POP      R26
00010f 9508                  RET
                 
                 HEXASC_EEP:      
000110 e3e0      			LDI      ZL,LOW(ASC_TAB_EEP*2)
000111 e0f2                  LDI      ZH,HIGH(ASC_TAB_EEP*2)
000112 0fe3                  ADD      ZL,TEMP
000113 e030                  LDI      TEMP,0
000114 1ff3                  ADC      ZH,TEMP
000115 95c8                  LPM
000116 2d30                  MOV      TEMP,R0
000117 9508                  RET
                 
                 ASC_TAB_EEP:      
000118 3130
000119 3332
00011a 3534      			.DB     0x30,0x31,0x32,0x33,0x34,0x35
00011b 3736
00011c 3938
00011d 4241                  .DB     0x36,0x37,0x38,0x39,0x41,0x42
00011e 4443
00011f 4645                  .DB     0x43,0x44,0x45,0x46
                                        
                 
                 ;***************************************************************************
                 ;*                       RTC(DS1307) TO RS232                              *
                 ;***************************************************************************
                 
                 .EQU        PORT_EE_DS1307   =  PORTB
                 .EQU        DDR_EE_DS1307    =  DDRB
                 .EQU        PIN_EE_DS1307    =  PINB
                 .EQU        BIT_SCL_DS1307   =  7
                 .EQU        BIT_SDA_DS1307   =  5
                        
                 
                 TEST_DS1307:      
000120 e0f4      			LDI     ZH,HIGH(2*TEXT_TAB_DS1307)
000121 e3ee                  LDI     ZL,LOW(2*TEXT_TAB_DS1307)
000122 df3f                  RCALL   Intro
000123 9a57                  SBI     UCR,RXCIE
000124 9478                  SEI
000125 ef3f                  SER     TEMP
                 
000126 9abd                  SBI     DDR_EE_DS1307,BIT_SDA_DS1307
000127 9abf                  SBI     DDR_EE_DS1307,BIT_SCL_DS1307
000128 9ac5                  SBI     PORT_EE_DS1307,BIT_SDA_DS1307
000129 9ac7                  SBI     PORT_EE_DS1307,BIT_SCL_DS1307
                 
                 YY_DS1307:  
00012a e070      			LDI     ADDRESS,0	      
00012b d026      			RCALL   WRITE_BYTE_DS1307
00012c e071      			LDI     ADDRESS,1	      
00012d d024      			RCALL   WRITE_BYTE_DS1307
00012e e072      			LDI     ADDRESS,2	      
00012f d022      			RCALL   WRITE_BYTE_DS1307
                 			
                 
                 WAIT_DS1307:      
000130 e092      			LDI     TEMP2,2
                 WAIT1_DS1307:     
000131 d032      			RCALL   RANDOM_READ_DS1307
000132 933f                  PUSH    TEMP
000133 9532                  SWAP    TEMP
000134 703f                  ANDI    TEMP,0x0F
000135 d072                  RCALL   HEXASC_DS1307
000136 defd                  RCALL   TX232_JR    ;TX232_DS1307
                 
000137 913f                  POP     TEMP
000138 703f                  ANDI    TEMP,0x0F
000139 df39                  RCALL   HEXASC
00013a def9                  RCALL   TX232_JR    ;TX232_DS1307
00013b e33a                  LDI     TEMP,0x3A
00013c def7                  RCALL   TX232_JR    ;TX232_DS1307
00013d 959a                  DEC     TEMP2
00013e f791                  BRNE    WAIT1_DS1307
                 
00013f d024                  RCALL   RANDOM_READ_DS1307
000140 933f                  PUSH    TEMP
000141 9532                  SWAP    TEMP
000142 703f                  ANDI    TEMP,0x0F
000143 d064                  RCALL   HEXASC_DS1307
000144 deef                  RCALL   TX232_JR    ;TX232_DS1307
000145 913f                  POP     TEMP
000146 703f                  ANDI    TEMP,0x0F
000147 d060                  RCALL   HEXASC_DS1307
000148 deeb                  RCALL   TX232_JR    ;TX232_DS1307
000149 e03d                  LDI     TEMP,0x0D
00014a dee9                  RCALL   TX232_JR    ;TX232_DS1307
00014b f00e      			BRTS	END_LOOP_DS1307
00014c cfe3                  RJMP    WAIT_DS1307
                 
                 END_LOOP_DS1307:
00014d 9857               	CBI	    UCR,RXCIE
00014e 94f8      		    CLI
00014f 94e8      		    CLT
000150 defc      			RCALL   delay_IO
000151 ceba      		    RJMP	main
                 
                 ;****************************************************
                 ;*                  WRITE BYTE                      *
                 ;****************************************************
                 WRITE_BYTE_DS1307:
000152 98c5      			CBI      PORT_EE_DS1307,BIT_SDA_DS1307      ;start condition
000153 98c7                  CBI      PORT_EE_DS1307,BIT_SCL_DS1307
000154 ed30                  LDI      TEMP,0xD0                          ;write command
000155 d030                  RCALL    TX_BYTE_DS1307
000156 d026                  RCALL    ACKNOW_DS1307                      ;wait acknowledge
000157 f3d0                  BRCS     WRITE_BYTE_DS1307
                 
000158 2f37                  MOV      TEMP,ADDRESS                       ;Address high
000159 d02c                  RCALL    TX_BYTE_DS1307
00015a d022                  RCALL    ACKNOW_DS1307                      ;wait acknowledge
00015b f3b0                  BRCS     WRITE_BYTE_DS1307
                 
00015c e030                  LDI      TEMP,00                            ;DATA
00015d d028                  RCALL    TX_BYTE_DS1307
00015e d01e                  RCALL    ACKNOW_DS1307                      ;wait acknowledge
00015f f390                  BRCS     WRITE_BYTE_DS1307
                 
000160 98c5                  CBI      PORT_EE_DS1307,BIT_SDA_DS1307
                 
000161 9ac7                  SBI      PORT_EE_DS1307,BIT_SCL_DS1307      ;stop condition
000162 9ac5                  SBI      PORT_EE_DS1307,BIT_SDA_DS1307
000163 9508                  RET
                 
                 ;*****************************************************
                 ;*                   RANDOM READ                     *
                 ;*****************************************************
                 RANDOM_READ_DS1307:  
000164 98c5      			CBI      PORT_EE_DS1307,BIT_SDA_DS1307      ;start condition
000165 98c7                  CBI      PORT_EE_DS1307,BIT_SCL_DS1307
000166 ed30                  LDI      TEMP,0XD0                          ;write command
000167 d01e                  RCALL    TX_BYTE_DS1307
000168 d014                  RCALL    ACKNOW_DS1307                      ;wait acknowledge
000169 f3d0                  BRCS     RANDOM_READ_DS1307
                 
00016a 2f39                  MOV      TEMP,TEMP2                         ;Address high
00016b d01a                  RCALL    TX_BYTE_DS1307
00016c d010                  RCALL    ACKNOW_DS1307                      ;wait acknowledge
00016d f3b0                  BRCS     RANDOM_READ_DS1307
                 
00016e 9ac7                  SBI      PORT_EE_DS1307,BIT_SCL_DS1307      ;stop condition
00016f 9ac5                  SBI      PORT_EE_DS1307,BIT_SDA_DS1307
                 
000170 98c5                  CBI      PORT_EE_DS1307,BIT_SDA_DS1307
000171 98c7                  CBI      PORT_EE_DS1307,BIT_SCL_DS1307
                 
000172 ed31                  LDI      TEMP,0XD1
000173 d012                  RCALL    TX_BYTE_DS1307
000174 d008                  RCALL    ACKNOW_DS1307
000175 f370                  BRCS     RANDOM_READ_DS1307
                 
000176 d019                  RCALL    RX_BYTE_DS1307
                 
000177 9ac7                  SBI      PORT_EE_DS1307,BIT_SCL_DS1307
000178 9ac7                  SBI      PORT_EE_DS1307,BIT_SCL_DS1307
                 
000179 98c5                  CBI      PORT_EE_DS1307,BIT_SDA_dS1307
                 
00017a 9ac7                  SBI      PORT_EE_DS1307,BIT_SCL_dS1307        ;stop condition
00017b 9ac5                  SBI      PORT_EE_DS1307,BIT_SDA_DS1307
00017c 9508                  RET
                 
                 ;*****************************************************
                 ;*              CHECK BIT ACKNOWLEDGE BIT            *
                 ;* CARRY = 1: FAIL                                   *
                 ;* CARRY = 0: PASS                                   *
                 ;*****************************************************
                 ACKNOW_DS1307:    
00017d 98bd      			CBI      DDR_EE_DS1307,BIT_SDA_DS1307         ;BIT_SDA input port
00017e 9ac5                  SBI      PORT_EE_DS1307,BIT_SDA_DS1307
00017f 9408                  SEC
000180 9ac7                  SBI      PORT_EE_DS1307,BIT_SCL_DS1307
000181 9bb5                  SBIS     PIN_EE_DS1307,BIT_SDA_DS1307
000182 9488                  CLC
000183 98c7                  CBI      PORT_EE_DS1307,BIT_SCL_DS1307
000184 9abd                  SBI      DDR_EE_DS1307,BIT_SDA_DS1307         ;BIT_SDA output port
000185 9508                  RET
                 
                 ;****************************************************
                 ;*               TX 1 BITE TO 24256                 *
                 ;****************************************************
                 TX_BYTE_DS1307:   
000186 e048      			LDI      COLUMN,0X08
                 TX_BYTE1_DS1307:  
000187 9ac5      			SBI      PORT_EE_DS1307,BIT_SDA_DS1307
000188 0f33                  LSL      TEMP
000189 f008                  BRCS     TX_BYTE2_DS1307
00018a 98c5                  CBI      PORT_EE_DS1307,BIT_SDA_DS1307
                 TX_BYTE2_DS1307:  
00018b 9ac7      			SBI      PORT_EE_DS1307,BIT_SCL_DS1307
00018c 98c7                  CBI      PORT_EE_DS1307,BIT_SCL_DS1307
00018d 954a                  DEC      COLUMN
00018e f7c1                  BRNE     TX_BYTE1_DS1307
00018f 9508                  RET
                 
                 ;****************************************************
                 ;*               RX 1 BYTE FROM 24256               *
                 ;****************************************************
                 RX_BYTE_DS1307:   
000190 98bd      			CBI      DDR_EE_DS1307,BIT_SDA_DS1307
000191 9ac5                  SBI      PORT_EE_DS1307,BIT_SDA_DS1307
000192 e030                  LDI      TEMP,0X00
000193 e048                  LDI      COLUMN,0X08
                 RX_BYTE1_DS1307:  
000194 9ac7      			SBI      PORT_EE_DS1307,BIT_SCL_dS1307
000195 9408                  SEC
000196 0000                  NOP
000197 0000                  NOP
000198 0000                  NOP
000199 0000                  NOP
00019a 0000                  NOP
00019b 9bb5                  SBIS     PIN_EE_DS1307,BIT_SDA_DS1307
00019c 9488                  CLC
00019d 1f33                  ROL      TEMP
00019e 98c7                  CBI      PORT_EE_DS1307,BIT_SCL_DS1307
00019f 0000                  NOP
0001a0 0000                  NOP
0001a1 0000                  NOP
0001a2 0000                  NOP
0001a3 0000                  NOP
0001a4 954a                  DEC      COLUMN
0001a5 f771                  BRNE     RX_BYTE1_DS1307
0001a6 9abd                  SBI      DDR_EE_DS1307,BIT_SDA_DS1307
0001a7 9508                  RET
                 
                 HEXASC_DS1307:    
0001a8 e6e0      			LDI      ZL,LOW(ASC_TAB_DS1307*2)
0001a9 e0f3                  LDI      ZH,HIGH(ASC_TAB_DS1307*2)
0001aa 0fe3                  ADD      ZL,TEMP
0001ab e030                  LDI      TEMP,0
0001ac 1ff3                  ADC      ZH,TEMP
0001ad 95c8                  LPM
0001ae 2d30                  MOV      TEMP,R0
0001af 9508                  RET
                 
                 ASC_TAB_DS1307:   
0001b0 3130
0001b1 3332
0001b2 3534      			.DB     0x30,0x31,0x32,0x33,0x34,0x35
0001b3 3736
0001b4 3938
0001b5 4241                  .DB     0x36,0x37,0x38,0x39,0x41,0x42
0001b6 4443
0001b7 4645                  .DB     0x43,0x44,0x45,0x46
                 
                 ;***************************************************************************
                 ;*                  LCD Test                                               *
                 ;***************************************************************************
                 
                 .EQU        PORT_LCD  =  PORTB
                 .EQU        PIN_LCD   =  PINB
                 .EQU        DDR_LCD   =  DDRB 
                 .EQU        BIT_RS_LCD    =  6
                 .EQU        BIT_CS_LCD    =  4
                 
                 TEST_LCD:         
0001b8 e0f4      			LDI      ZH,high(TEXT_TB_LCD*2)
0001b9 ecec                  LDI      ZL,low(TEXT_TB_LCD*2)
0001ba dea7                  RCALL    Intro
0001bb 9a57                  SBI      UCR,RXCIE
0001bc 9478                  SEI
0001bd ef3f                  SER      TEMP
                 
0001be e53f                  LDI      TEMP,0x5F           
0001bf bb37                  OUT      DDR_LCD,TEMP
                 
0001c0 9ac6                  SBI      PORT_LCD,BIT_RS_LCD
0001c1 9ac4                  SBI      PORT_LCD,BIT_CS_LCD
                 
0001c2 d040                  RCALL    INIT_LCD            ;initial  LCD
                 
0001c3 e7e8                  LDI      ZL,LOW(LCD_LINE1*2)
0001c4 e0f4                  LDI      ZH,HIGH(LCD_LINE1*2)
0001c5 d00b      		    RCALL    SHOW_LCD
                 
0001c6 ec30      		    LDI      TEMP,0xC0            ;Line 2     
0001c7 d026                  RCALL    WR_INS_LCD
0001c8 e0f4                  LDI      ZH,high(LCD_LINE2*2)
0001c9 e8ea                  LDI      ZL,low(LCD_LINE2*2) 
0001ca d006      		    RCALL    SHOW_LCD
0001cb f00e      WAIT:       BRTS	END_LOOP_LCD
0001cc cffe                  RJMP     WAIT
                 
                 END_LOOP_LCD:
0001cd 9857               	CBI	    UCR,RXCIE
0001ce 94f8      		    CLI
0001cf 94e8      		    CLT
0001d0 ce3b      		    RJMP	main
                 
                                   
                 SHOW_LCD:         
0001d1 95c8      			LPM
0001d2 2000                  TST      R0
0001d3 f021                  BREQ     END
0001d4 2d30                  MOV      TEMP,R0
0001d5 d003                  RCALL    WR_LCD
0001d6 9631                  ADIW     ZL,0x01
0001d7 cff9                  RJMP     SHOW_LCD
                 END:              
0001d8 9508      			RET
                 
                 ;****************************************************
                 ;*          SUBRUTINE FOR WRITE DATA TO LCD         *
                 ;****************************************************
                 WR_LCD:           
0001d9 933f      			PUSH     TEMP
0001da 9532      		    SWAP     TEMP
0001db 703f                  ANDI     TEMP,0x0F
0001dc 9ac6                  SBI      PORT_LCD,BIT_RS_LCD
                 
0001dd 2766      			CLR		 TEMP1
0001de bb67      			OUT 	 DDR_LCD,TEMP1 
0001df b348                  IN       COLUMN,PORT_LCD
0001e0 ef6f      			SER		 TEMP1
0001e1 bb67      			OUT 	 DDR_LCD,TEMP1 
0001e2 7f40                  ANDI     COLUMN,0xF0
0001e3 2b34                  OR       TEMP,COLUMN
0001e4 bb38                  OUT      PORT_LCD,TEMP
                 
                 
0001e5 d02a                  RCALL    EN_LCD
0001e6 913f                  POP      TEMP
0001e7 703f                  ANDI     TEMP,0x0F
0001e8 b348                  IN       COLUMN,PORT_LCD
0001e9 7f40                  ANDI     COLUMN,0xF0
0001ea 2b34                  OR       TEMP,COLUMN
0001eb bb38                  OUT      PORT_LCD,TEMP
0001ec d023                  RCALL    EN_LCD
0001ed 9508                  RET
                 
                 ;****************************************************
                 ;*               WRITE INSTRUCTION LCD              *
                 ;****************************************************
                 WR_INS_LCD:       
0001ee 933f      			PUSH     TEMP
0001ef 9532                  SWAP     TEMP
0001f0 703f                  ANDI     TEMP,0x0F
0001f1 98c6                  CBI      PORT_LCD,BIT_RS_LCD
                              
0001f2 2766                  CLR		 TEMP1
0001f3 bb67      			OUT 	 DDR_LCD,TEMP1 
0001f4 b348                  IN       COLUMN,PORT_LCD
0001f5 ef6f      			SER		 TEMP1
0001f6 bb67      			OUT 	 DDR_LCD,TEMP1
0001f7 7f40                  ANDI     COLUMN,0xF0
0001f8 2b34                  OR       TEMP,COLUMN
0001f9 bb38                  OUT      PORT_LCD,TEMP
                 
0001fa d015                  RCALL    EN_LCD
0001fb 913f                  POP      TEMP
0001fc 703f                  ANDI     TEMP,0x0F
0001fd b348                  IN       COLUMN,PORT_LCD
0001fe 7f40                  ANDI     COLUMN,0xF0
0001ff 2b34                  OR       TEMP,COLUMN
000200 bb38                  OUT      PORT_LCD,TEMP 
000201 d00e                  RCALL    EN_LCD
000202 9508                  RET
                 
                 ;***************************************************
                 ;*                  Initial LCD                    *
                 ;***************************************************
                 INIT_LCD:         
000203 e333      			LDI      TEMP,0x33       
000204 dfe9                  RCALL    WR_INS_LCD
000205 e332                  LDI      TEMP,0x32
000206 dfe7                  RCALL    WR_INS_LCD
000207 e238                  LDI      TEMP,0x28
000208 dfe5                  RCALL    WR_INS_LCD
000209 e03c                  LDI      TEMP,0x0C
00020a dfe3                  RCALL    WR_INS_LCD
00020b e036                  LDI      TEMP,0x06
00020c dfe1                  RCALL    WR_INS_LCD
00020d e031                  LDI      TEMP,0x01
00020e dfdf                  RCALL    WR_INS_LCD
00020f 9508                  RET
                 
                 ;****************************************************
                 ;*                   ENABLE LCD                     *
                 ;****************************************************
                 EN_LCD:           
000210 9ac4      			SBI      PORT_LCD,BIT_CS_LCD
000211 d002                  RCALL    BUSY_LCD
000212 98c4                  CBI      PORT_LCD,BIT_CS_LCD
000213 9508                  RET
                 
                 ;****************************************************
                 ;*               DELAY TIME FOR BUSY                *
                 ;****************************************************
                 BUSY_LCD:         
000214 93af      			PUSH     R26
000215 93bf                  PUSH     R27
000216 e1b0                  LDI      R27,0x10
                 BUSY2_LCD:        
000217 efaf      			LDI      R26,0xFF
                 BUSY1_LCD:        
000218 95aa      			DEC      R26
000219 f7f1                  BRNE     BUSY1_LCD
00021a 95ba                  DEC      R27
00021b f7d9                  BRNE     BUSY2_LCD
00021c 91bf                  POP      R27
00021d 91af                  POP      R26 
00021e 9508                  RET 
                 
                 ;******************************************************************
                 
                 TEXT_TAB_DS1307: 
00021f 540c
000220 5345
000221 2054
000222 5452
000223 2043
000224 4428
000225 3153
000226 3033
000227 2937
000228 0a20
000229 0a0d
00022a 000d                  .DB   0x0C,"TEST RTC (DS1307) ",0x0A,0x0D,0x0A,0x0D,0
                 
                 PORT_TB: 
00022b 540c
00022c 5345
00022d 2054
00022e 4f50
00022f 5452
000230 2042
000231 305b
000232 2e2e
000233 5d37
000234 2620
000235 5020
000236 524f
000237 4454
000238 5b20
000239 2e32
00023a 362e
00023b 005d                  .DB   0x0C,"TEST PORTB [0..7] & PORTD [2..6]",0
                 
                 LCD_LINE1:       
00023c 5445
00023d 422d
00023e 5341
00023f 2045
000240 5641
000241 2052
000242 4954
000243 594e
000244 0020      			.DB   "ET-BASE AVR TINY ",0
                 LCD_LINE2:       
000245 6554
000246 7473
000247 4c20
000248 4443
000249 3120
00024a 7836
00024b 2e32
00024c 2e2e
00024d 0020      			.DB   "Test LCD 16x2... ",0
                 
                 TEXT_TAB_EEP:    
00024e 4554
00024f 5453
000250 5320
000251 5245
000252 4149
000253 204c
000254 4545
000255 5250
000256 4d4f
000257 2820
000258 3432
000259 5858
00025a 0029      			.DB   "TEST SERIAL EEPROM (24XX)",0
                 TEXT_TAB1_EEP:   
00025b 5257
00025c 5449
00025d 2045
00025e 203d
00025f 3535
000260 0020      			.DB   "WRITE = 55 ",0
                 TEXT_TAB2_EEP:   
000261 4552
000262 4441
000263 2020
000264 203d
000265 0020      			.DB   "READ  =  ",0
                 
                 TEXT_TB_LCD:     
000266 540c
000267 5345
000268 2054
000269 434c
00026a 2044
00026b 5942
00026c 4520
00026d 2d54
00026e 4142
00026f 4553
000270 4120
000271 5256
000272 5420
000273 4e49
000274 3259
000275 3133
000276 0033      			.DB   0X0C,"TEST LCD BY ET-BASE AVR TINY2313",0
                 
                 T_EEP:           
000277 540c
000278 5345
000279 2054
00027a 4545
00027b 5250
00027c 4d4f
00027d 2820
00027e 3432
00027f 5858
000280 0a29
000281 000d                  .DB   0x0C,"TEST EEPROM (24XX)",0X0A,0X0D,0
                 
                 TEXT1:           
000282 2a0c
000283 2a2a
000284 2a2a
000285 4520
000286 2d54
000287 4142
000288 4553
000289 4120
00028a 5256
00028b 5420
00028c 4e49
00028d 3259
00028e 3133
00028f 2033
000290 4351
000291 5420
000292 7365
000293 2074
000294 2a2a
000295 2a2a
000296 202a
000297 0d0a
000298 0d0a      			.DB  0x0C,"***** ET-BASE AVR TINY2313 QC Test ***** ",0x0A,0x0D,0x0A,0x0D
000299 2020
00029a 2020
00029b 2020
00029c 3120
00029d 203a
00029e 6554
00029f 7473
0002a0 5220
0002a1 3253
0002a2 3233
0002a3 0d0a                  .DB "       1: Test RS232",0x0A,0x0D
0002a4 2020
0002a5 2020
0002a6 2020
0002a7 3220
0002a8 203a
0002a9 6554
0002aa 7473
0002ab 4520
0002ac 5045
0002ad 4f52
0002ae 204d
0002af 3228
0002b0 5834
0002b1 2958
0002b2 0d0a                  .DB "       2: Test EEPROM (24XX)",0x0A,0x0D
0002b3 2020
0002b4 2020
0002b5 2020
0002b6 3320
0002b7 203a
0002b8 6554
0002b9 7473
0002ba 5220
0002bb 4354
0002bc 2820
0002bd 5344
0002be 3331
0002bf 3730
0002c0 2029
0002c1 0d0a                  .DB "       3: Test RTC (DS1307) ",0x0A,0x0D
0002c2 2020
0002c3 2020
0002c4 2020
0002c5 3420
0002c6 203a
0002c7 6554
0002c8 7473
0002c9 4c20
0002ca 4443
0002cb 4320
0002cc 6168
0002cd 6172
0002ce 7463
0002cf 7265
0002d0 3120
0002d1 7836
0002d2 2032
0002d3 0d0a                  .DB "       4: Test LCD Character 16x2 ",0x0A,0x0D
0002d4 2020
0002d5 2020
0002d6 2020
0002d7 3520
0002d8 203a
0002d9 6554
0002da 7473
0002db 5020
0002dc 524f
0002dd 4254
0002de 5b20
0002df 2e30
0002e0 372e
0002e1 205d
0002e2 2026
0002e3 4f50
0002e4 5452
0002e5 2044
0002e6 325b
0002e7 2e2e
0002e8 5d36
0002e9 0d0a
0002ea 0d0a      		    .DB "       5: Test PORTB [0..7] & PORTD [2..6]",0x0A,0x0D,0X0A,0X0D
0002eb 7250
0002ec 7365
0002ed 2073
0002ee 5345
0002ef 2043
0002f0 6669
0002f1 7920
0002f2 756f
0002f3 7720
0002f4 6e61
0002f5 2074
0002f6 6f74
0002f7 6520
0002f8 6978
0002f9 2074
0002fa 6e61
0002fb 2079
0002fc 6574
0002fd 7473
0002fe 7020
0002ff 6f72
000300 7267
000301 6d61
000302 6f20
000303 2072
000304 0d0a                  .DB "Press ESC if you want to exit any test program or ",0x0A,0x0D
000305 6968
000306 2074
000307 3127
000308 2d20
000309 3520
00030a 2027
00030b 6f66
00030c 2072
00030d 6573
00030e 656c
00030f 7463
000310 6f20
000311 656e
000312 7420
000313 7365
000314 2074
000315 7270
000316 676f
000317 6172
000318 206d
000319 003a                  .DB "hit '1 - 5' for select one test program :",0
                 
                 RS232TB:     
00031a 540c
00031b 7365
00031c 2074
00031d 5352
00031e 3332
00031f 2032
000320 0d0a      			.DB  0x0C,"Test RS232 ",0x0A,0x0D
000321 6c50
000322 6165
000323 6573
000324 6520
000325 746e
000326 7265
000327 6120
000328 796e
000329 6b20
00032a 7965
00032b 7420
00032c 206f
00032d 6365
00032e 6f68
00032f 0a2e
000330 0a0d
000331 000d                  .DB  "Please enter any key to echo.",0x0A,0x0D,0x0A,0x0D,0
                 
                 


RESOURCE USE INFORMATION
------------------------

Notice:
The register and instruction counts are symbol table hit counts,
and hence implicitly used resources are not counted, eg, the
'lpm' instruction without operands implicitly uses r0 and z,
none of which are counted.

x,y,z are separate entities in the symbol table and are
counted separately from r26..r31 here.

.dseg memory usage only counts static data declared with .byte

ATtiny2313 register use summary:
r0 :  10 r1 :   0 r2 :   0 r3 :   0 r4 :   0 r5 :   0 r6 :   0 r7 :   0 
r8 :   0 r9 :   0 r10:   0 r11:   0 r12:   0 r13:   0 r14:   0 r15:   0 
r16:   4 r17:   7 r18:   0 r19:  94 r20:  23 r21:  12 r22:  12 r23:   6 
r24:   2 r25:   3 r26:   8 r27:   8 r28:   0 r29:   0 r30:  18 r31:  14 
x  :   0 y  :   0 z  :   0 
Registers used: 14 out of 35 (40.0%)

ATtiny2313 instruction use summary:
adc   :   2 add   :   3 adiw  :   4 and   :   0 andi  :  14 asr   :   0 
bclr  :   0 bld   :   0 brbc  :   0 brbs  :   0 brcc  :   0 brcs  :  17 
break :   0 breq  :  11 brge  :   0 brhc  :   0 brhs  :   0 brid  :   0 
brie  :   0 brlo  :   0 brlt  :   0 brmi  :   0 brne  :  13 brpl  :   0 
brsh  :   0 brtc  :   0 brts  :   4 brvc  :   0 brvs  :   0 bset  :   0 
bst   :   0 cbi   :  35 cbr   :   0 clc   :   4 clh   :   0 cli   :   5 
cln   :   0 clr   :   2 cls   :   0 clt   :   5 clv   :   0 clz   :   0 
com   :   0 cp    :   2 cpc   :   0 cpi   :   8 cpse  :   0 dec   :  13 
eor   :   0 icall :   0 ijmp  :   0 in    :   6 inc   :   0 ld    :   0 
ldd   :   0 ldi   :  81 lds   :   0 lpm   :   6 lsl   :   2 lsr   :   0 
mov   :   7 movw  :   0 neg   :   0 nop   :  10 or    :   4 ori   :   0 
out   :  19 pop   :  10 push  :  10 rcall :  88 ret   :  25 reti  :   1 
rjmp  :  26 rol   :   3 ror   :   0 sbc   :   0 sbci  :   0 sbi   :  50 
sbic  :   0 sbis  :   8 sbiw  :   0 sbr   :   0 sbrc  :   0 sbrs  :   0 
sec   :   5 seh   :   0 sei   :   4 sen   :   0 ser   :   6 ses   :   0 
set   :   1 sev   :   0 sez   :   0 sleep :   0 spm   :   0 st    :   0 
std   :   0 sts   :   0 sub   :   0 subi  :   0 swap  :   5 tst   :   2 
wdr   :   0 
Instructions used: 39 out of 103 (37.9%)

ATtiny2313 memory use summary [bytes]:
Segment   Begin    End      Code   Data   Used    Size   Use%
---------------------------------------------------------------
[.cseg] 0x000000 0x000664   1042    582   1624    2048  79.3%
[.dseg] 0x000060 0x000060      0      0      0     128   0.0%
[.eseg] 0x000000 0x000000      0      0      0     128   0.0%

Assembly complete, 0 errors, 0 warnings
