:1004A20048656C6C6F2054686973206973204554E9
:1004B2002D4241534535312056332E3028454432A2
:1004C200290A0D0A0D005374617274205465737405
:1004D2003120577269746520454550524F4D3A326A
:1004E20034433332203D20412042204320440A0D30
:1004F2000053746172742052656164204545505204
:100502004F4D2044617461203A203234433332200B
:100512003D2000256320002563200A0D0A0D0053AB
:1005220074617274205465737432205772697465F1
:1005320020454550524F4D3A3234433332203D200C
:10054200302031203220330A0D002563200A0D00AD
:10035F00758F0153890F438920759850C2ACC2AB7A
:10036F0053877F758DF0758BF0D28ED299D2B7D21D
:10037F00B67BFF7A0479A21200657F647E001206B5
:10038F00C27BFF7A0479C81200657D41E4FFFE123B
:10039F0006641206BE7D427F017E001206641206BD
:1003AF00BE7D437F027E001206641206BE7D447F2F
:1003BF00037E001206641206BE7BFF7A0479F312E5
:1003CF000065E4FFFE1205F17BFF7A0579158F0BAF
:1003DF001200657F017E001205F17BFF7A0579150A
:1003EF008F0B1200657F027E001205F17BFF7A05ED
:1003FF0079158F0B1200657F037E001205F17BFFCD
:10040F007A0579198F0B1200657BFF7A0579211216
:10041F0000657D30E4FFFE1206641206BE7D317F5B
:10042F00017E001206641206BE7D327F027E00122C
:10043F0006641206BE7D337F037E00120664120629
:10044F00BE7BFF7A0479F3120065E4FFFE1205F11B
:10045F007BFF7A0579158F0B1200657F017E0012E5
:10046F0005F17BFF7A0579158F0B1200657F027EF0
:10047F00001205F17BFF7A0579158F0B1200657F4E
:10048F00037E001205F17BFF7A05794C8F0B12006A
:03049F006580FE77
:100664008E088F098D0AC2B6C2B71207897FA812F5
:1006740006FC12078520B6FDC2B7120789E508FFFC
:100684001206FC12078520B6FDC2B7120789AF090E
:10069400E5091206FC12078520B6FDC2B7120789C8
:1006A400AF0A1206FC12078520B6FDC2B7120789ED
:0A06B400C2B6D2B7120789D2B622EF
:0405F1008E088F09D8
:1005F500C2B6C2B71207897FA81206FC120785206A
:10060500B6FDC2B7120789E508FF1206FC12078579
:1006150020B6FDC2B7120789AF09E5091206FC121B
:10062500078520B6FDC2B7120789D2B7120789D24E
:10063500B6C2B6C2B71207897FA91206FC12078592
:1006450020B6FDC2B71207891207288F0A1207853F
:0E065500C2B7120789D2B7120789D2B6AF0A10
:010663002274
:0206FC008F0B62
:1006FE00E4F50CE50B30E704D2B68002C2B6D2B7F1
:10070E00120789C2B7120789E50B25E0F50B050C18
:09071E00C3E50C6480948840DA04
:0107270022AF
:10072800E4F50CE50B25E0F50B12078530B605431B
:100738000B018003530BFEC2B7120789050CC3E5F2
:090748000C6480948840DCAF0BC6
:010751002285
:04078500D2B6D2B75F
:040789007F64DFFEAC
:01078D002249
:0806BE007FE87E037D007C0053
:1006C6008F0B8E0A8D098C08E4FFFEFDFCAB0BAA8E
:1006D6000AA909A808D3120552401AE50B24FFF50A
:1006E6000BE50A34FFF50AE50934FFF509E5083498
:0606F600FFF50880D3228D
:030000000207797B
:0C077900787FE4F6D8FD75812102035F53
:10055200EB9FF5F0EA9E42F0E99D42F0E89C45F0FF
:010562002276
:10000300E517240BF8E60517227808300702780B6A
:10001300E475F0011205BB0205632000EB7F2ED2CD
:10002300008018EF540F2490D43440D4FF30040BD5
:10003300EF24BFB41A0050032461FFE518600215D2
:1000430018051BE51B7002051A30070D7808E475C7
:10005300F0011205BBEF0205A90207527403D20790
:100063008003E4C207F5178B088A09890AE4F518A7
:10007300F51AF51BE51860077F2012003E80F57521
:1000830019FFC201C200C202C203C205C206C208EE
:1000930012000CFF700D3007057F0012004FAF1BDD
:1000A300AE1A22B4255FC2D5C20412000CFF24D0BD
:1000B300B40A00501A75F00A781830D50508B6FF4F
:1000C3000106C6A426F620D5047002D20380D924E3
:1000D300CFB41A00EF5004C2E5D20402024FD2019A
:1000E30080C6D20080C0D20280BCD2D580BAD205ED
:1000F30080B47F2012003E2002077401B51800402F
:10010300F1120003FF12003E020077D208D20680EC
:1001130095120003FB120003FA120003F94A4B7015
:100123000679207A037BFF20022EE518602A7E00E1
:100133008E8275830012057C60060EEE651970F0E1
:10014300C2D5EBC0E0EAC0E0E9C0E0EE120296D00F
:10015300E0F9D0E0FAD0E0FB120563FF60AAEBC040
:10016300E0EAC0E0E9C0E012003ED0E02401F9D0AB
:10017300E03400FAD0E0FBE5190460DCD519D9803E
:10018300877BFF7A027992D202809C791080027970
:1001930008C206C2088008D2D5790A8004790AC247
:1001A300D5E519047002F519E4FAFDFEFF12000308
:1001B300FC7B08200113120003FD7B1030000A12A0
:1001C3000003FE120003FF7B20EC3382D592D5504F
:1001D30013C3E43000069FFFE49EFEE42001039D69
:1001E300FDE49CFCE4CBF8C201EC700CCFCECDCC8B
:1001F300E824F8F870F38017C3EF33FFEE33FEED16
:1002030033FDEC33FCEB33FB994002FB0FD8E9EBF6
:10021300300105F8D0E0C448B201C0E00AEC4D4E0D
:100223004F78207B0070C2EAB5190040BCC0E012D1
:100233000298D0F0D0E0200104C4C0E0C4B201C0F1
:10024300F0120027D0F0D5F0EB0200771205CB01B6
:100253001453018E5800E54C00E14201924F019A7C
:0F02630044019A4900FA4301A0550184460184E1
:100272004501844703405000E92D00ED2E01102B6B
:1002820000F123010E2003292A00A94800000108D9
:100292003F3F3F00790AA2D5200314300509B91067
:1002A200020404B9080104A2D52006025001042068
:1002B20002689202B518005034C0E07F2030031962
:1002C2007F30A20272067205500F1202EFC202C202
:1002D20006C205C2087F30800F300503E9C0E01274
:1002E200003E300503D0E0F9D0E0B518CC30051758
:1002F2007F30B9100C12003E7F583004077F78809F
:1003020003B9080312003E3002057F2D02003E7F32
:10031200202008F87F2B2006F322920280CF286E3D
:10032200756C6C2900D2011200033001F8C2017809
:100332001830D50108F60200A92D50434958120081
:10034200032403B405004001E490033B9312002F01
:0D035200743A12002FD20375180402018EB8
:10056300BB010689828A83E0225002E722BBFE0296
:09057300E32289828A83E49322C9
:10057C00BB010CE58229F582E5833AF583E0225034
:10058C0006E92582F8E622BBFE06E92582F8E2227E
:0D059C00E58229F582E5833AF583E4932298
:1005A900BB010689828A83F0225002F722BBFE0131
:0205B900F3222B
:1005BB00FAE6FB0808E6F925F0F618E6CA3AF62241
:1005CB00D083D082F8E4937012740193700DA3A3BF
:1005DB0093F8740193F5828883E4737402936860D3
:0605EB00EFA3A3A380DFD3
:10075200EFB40A07740D12075D740A309811A89954
:10076200B8130CC2983098FDA899C298B811F63007
:0707720099FDC299F59922DF
:00000001FF
