:1000000012C0189518951895189518951895189563
:100010001895189518951895189518951895189578
:100020001895189518958FED8DBFC0ECE0EC4E2E0D
:10003000DD275D2EEEE7F0E0A0E6B0E088278D93A7
:100040003197E9F78FE289B980E082B988E18AB90E
:10005000662488EA8093620089EA809363008CE0DA
:10006000F9D0E0E4F3E0EDD0F2D0E4E6F3E0E9D05B
:10007000EED0E4E9F3E0E5D0EAD0E9D0DED0A1E6C5
:100080008C93A1E68C91E6D0009161000D3009F4CB
:100090005EC080E08093640080E0809365005A92A7
:1000A0004A9280916400A42DB52D8C9381E0C1D03B
:1000B0005A924A9280916500A42DB52D8C9381E0CF
:1000C000B8D05A924A9280916100A42DB52D8C939C
:1000D00081E0AFD07FD0269683E0A7D0AED0A1E656
:1000E0008C93A1E68C91B6D0A5E68C918F5F8C9312
:1000F00000916500003009F004C0A4E68C918F5F88
:100100008C935A924A9280916400A42DB52D8C93C1
:1001100081E08FD05A924A9280916500A42DB52D2E
:100120008C9381E086D05A924A9280916100A42DEE
:10013000B52D8C9381E07DD04DD0269683E075D08F
:10014000009161000D3009F0C9CF81D080D080E0EE
:100150008093640080E0809365005A924A92809177
:100160006400A42DB52D8C9381E063D05A924A92FD
:1001700080916500A42DB52D8C9381E05AD0E0E6E6
:10018000F0E0FA93EA933BD0269682E04ED0A0E6C8
:100190008C9160D0A5E68C918F5F8C930091650067
:1001A000003009F004C0A4E68C918F5F8C9300911D
:1001B00060000D3009F0D1CF4AD03FD0A1E68C933A
:1001C000A1E68C9147D0009161000B3109F05CCF22
:1001D000F894FFCF64D0A2E61C9178D0AC81BD81A9
:1001E0001C9174D0AA81BB811C9170D0A881B98167
:1001F0001C916CD062D08AE090E039D008954FD045
:10020000A2E61C9163D0AC81BD811C915FD0AA8114
:10021000BB811C915BD043D0A3E61C9157D073D017
:10022000A881B9811C9349D00895481A8827580A93
:100230000895480E8827581E08955F9BFECF8CB105
:10024000089524D0802D11F005D0FBCF08958DE0C6
:1002500001D08AE05D9BFECF8CB908953197F1F70C
:100260000895689462F80895E89462F80895EF9309
:10027000FF93EE27E82BE92B31F0E3E3F7E031972A
:10028000F1F70197D1F7FF91EF910895C895319655
:1002900000200895C598C798BD98BF980895BF9A43
:1002A000BD9803D0BF9801D0BD9AEF93FF93E8E5C6
:1002B000F0E0D4DFFF91EF910895BF9ABD9AF5DF8A
:1002C000BF98B79BFECFF1DFBD98EFCF0894111F09
:1002D00001C0110F69F0BF9A18F40000BD9802C068
:1002E000BD9A00C0E2DFBF98B79BFECFDEDFF1CF43
:1002F000BF9ABD98DADFBF98B79BFECFE894B59957
:10030000689462F8D2CF089401C08894331F11E03A
:10031000BF9ABD98CADFBF98B79BFECFC6DF88944F
:10032000B5990894111FA0F7BF9A379510F4BD989E
:1003300001C0BD9ABADFBF98B79BFECFB6DF089564
:1003400048656C6C6F20546869732069732045544C
:100350002D42415345204156522054494E59323383
:10036000313300005465737420526561642F5772F5
:1003700069746520454550524F4D20323433322F39
:1003800036342F3132382F3235362F3531322F3542
:1003900031350000507265737320616E79206B6592
:1003A0007920746F207772697465206461746120AC
:1003B0006F7220454E544552206B657920746F2032
:0E03C00072656164206F6C642064617461007A
:00000001FF
