:020000040000FA
:10000000126A84EF00F0076E87968792879499961C
:10001000999299940F0E9916075012B222D03A0E67
:10002000016E980E68EC00F0330E066E2FD8130E9A
:10003000016E880E68EC00F029D8640E67EC00F0C1
:1000400025D8640E67EC00F0220E066E1FD8280E2D
:1000500007D80C0E05D8060E03D81282075001D01F
:100060001280066E12A00BD0879203080EE30DD803
:10007000070E016ED00E68EC00F0D88012001280DE
:10008000FE08D8B481EF00F0878212A01290878614
:100090000F0E87160650F00B871200008796063A5F
:1000A000000012B0F3D7320E67EC00F0D88081EF79
:1000B00000F0036A026EFF0E0226D8A00326D8A025
:1000C00081EF00F0030E016EE60E02D8F4D7016A4C
:1000D000FC0F006E011E0000D8A006D0FF0E00D05D
:1000E0000026D8B0FCD70026040000D0013EF6D789
:1000F0001200D89000360136FF0FFBE2005081EF6E
:1001000000F0000104001200CFEC00F0FE0E7BDFD7
:10011000010E79DF540E77DF650E75DF730E73DF26
:10012000740E71DF200E6FDF4C0E6DDF430E6BDF40
:10013000440E69DF200E67DF310E65DF380E63DFA6
:10014000460E61DF380E5FDF370E5DDF320E5BDF9C
:10015000300E59DF030E036EE80EACDFFE0E53DFE8
:10016000C00E51DF200E4FDF450E4DDF540E4BDF2A
:10017000540E49DF200E47DF430E45DF4F0E43DFAD
:100180002E0E41DF2C0E3FDF4C0E3DDF540E3BDFC9
:10019000440E39DF030E036EE80E8CDFB7D7996A81
:1001A0000F0EC16E070EB46E8794330E1A6EF2EC0A
:1001B00000F0320E1A6EF2EC00F0280E1A6EF2EC1D
:1001C00000F00C0E1A6EF2EC00F0060E1A6EF2EC55
:1001D00000F0010E1A6EF2EC00F0010E1A6EF2EC55
:1001E00000F0120087929992F00E1A141C6E1C8671
:1001F0001CC087FF879699960A0E5BDF87869996C3
:100200001AC000F0016A040E77DF1C6EF00E1C1697
:100210001C861CC087FF879699960A0E4ADF878640
:0802200099960A0E46DF120058
:020000040030CA
:04000000FFF9FFFF06
:02000600FBFFFE
:00000001FF
