:100000000C94460018950000189500001895000003
:10001000189500001895000018950000189500002C
:10002000189500001895000018950000189500001C
:10003000189500001895000018950000189500000C
:1000400018950000189500001895000018950000FC
:1000500018950000189500001895000018950000EC
:1000600018950000189500001895000018950000DC
:1000700018950000189500001895000018950000CC
:100080001895000018950000189500008FEF8DBF9F
:10009000C0EEE0EE4E2E80E18EBFD0E1F0E15F2EAB
:1000A000EEEFFFE0A0E0B1E088278D933197E9F70C
:1000B00087E689B980E08093900088E18AB980E082
:1000C0008093980087E68093990088E180939A0056
:1000D00066248CE00E949400EAE4F1E00E948A0029
:1000E0000E949100E6E7F1E00E948A000E949100E0
:1000F0000E948600A0E0B1E08C93A0E0B1E08C917A
:100100000E9494000C947800F894FFCF5F9BFECF80
:100110008CB108950E94A100802D11F005D0FACF76
:1001200008958DE001D08AE05D9BFECF8CB90895E3
:100130003197F1F70895689462F80895E89462F8A9
:100140000895C89531960020089545542D42415395
:100150004520415652204D45474136342F313238E3
:100160002054657374205253323332204368616ED9
:100170006E656C203000506C6561736520656E742F
:10018000657220616E79206B657920746F206563DC
:08019000686F206461746100D6
:00000001FF
