BL51 BANKED LINKER/LOCATER V6.00                                                        06/24/2009  16:32:56  PAGE 1


BL51 BANKED LINKER/LOCATER V6.00, INVOKED BY:
C:\KEIL\C51\BIN\BL51.EXE main.obj TO TEST_PORT RAMSIZE (256) CODE (0X0000-0XFFFF)


MEMORY MODEL: SMALL


INPUT MODULES INCLUDED:
  main.obj (MAIN)
  C:\KEIL\C51\LIB\C51S.LIB (?C_STARTUP)
  C:\KEIL\C51\LIB\C51S.LIB (?C?ULCMP)


LINK MAP OF MODULE:  TEST_PORT (MAIN)


            TYPE    BASE      LENGTH    RELOCATION   SEGMENT NAME
            -----------------------------------------------------

            * * * * * * *   D A T A   M E M O R Y   * * * * * * *
            REG     0000H     0008H     ABSOLUTE     "REG BANK 0"
            DATA    0008H     0006H     UNIT         _DATA_GROUP_
            IDATA   000EH     0001H     UNIT         ?STACK

            * * * * * * *   C O D E   M E M O R Y   * * * * * * *
            CODE    0000H     0003H     ABSOLUTE     
            CODE    0003H     015AH     UNIT         ?PR?MAIN?MAIN
            CODE    015DH     0044H     UNIT         ?PR?_DELAY?MAIN
            CODE    01A1H     0011H     UNIT         ?C?LIB_CODE
            CODE    01B2H     000CH     UNIT         ?C_C51STARTUP



OVERLAY MAP OF MODULE:   TEST_PORT (MAIN)


SEGMENT                          DATA_GROUP 
  +--> CALLED SEGMENT          START    LENGTH
----------------------------------------------
?C_C51STARTUP                  -----    -----
  +--> ?PR?MAIN?MAIN

?PR?MAIN?MAIN                  0008H    0002H
  +--> ?PR?_DELAY?MAIN

?PR?_DELAY?MAIN                000AH    0004H



SYMBOL TABLE OF MODULE:  TEST_PORT (MAIN)

  VALUE           TYPE          NAME
  ----------------------------------

  -------         MODULE        ?C?ULCMP
  C:01A1H         PUBLIC        ?C?ULCMP
  -------         ENDMOD        ?C?ULCMP

BL51 BANKED LINKER/LOCATER V6.00                                                      06/24/2009  16:32:56  PAGE 2


Program Size: data=15.0 xdata=0 code=446
LINK/LOCATE RUN COMPLETE.  0 WARNING(S),  0 ERROR(S)
