:10000300758F017580FF7590FF75A0FF43B0FC7578
:100013000800750901D3E5099480E508940050119F
:10002300C312015DE50925E0F509E50833F508800C
:10003300E47580FF750800750901D3E5099480E52F
:100043000894005017C374FF9509F590120163E5F6
:100053000925E0F509E50833F50880DE7590FF759D
:100063000800750901D3E5099480E5089400501749
:10007300C374FF9509F5A0120163E50925E0F509AD
:10008300E50833F50880DE75A0FF750800750904DF
:10009300D3E5099480E50894005017C374FF9509CC
:1000A300F5B0120163E50925E0F509E50833F50824
:1000B30080DE43B0FC750800750980C3E50994042C
:1000C300E5089400401674FF9509F5B0120163E545
:1000D30008C313F508E50913F50980DF43B0FC7580
:1000E3000800750980C3E5099401E50894004016EA
:1000F30074FF9509F5A0120163E508C313F508E53C
:100103000913F50980DF75A0FF750800750980C321
:10011300E5099401E5089400401674FF9509F590EC
:10012300120163E508C313F508E50913F50980DF38
:100133007590FF750800750980C3E5099401E5080A
:100143009400401012015DE508C313F508E5091397
:0A015300F50980E57580FF02001237
:0E015D0074FF9509F5807F507EC37D007C0005
:10016B008F0D8E0C8D0B8C0AE4FFFEFDFCAB0DAAE4
:10017B000CA90BA80AD31201A1401AE50D24FFF517
:10018B000DE50C34FFF50CE50B34FFF50BE50A34EC
:06019B00FFF50A80D322EB
:030000000201B248
:0C01B200787FE4F6D8FD75810D02000393
:1001A100EB9FF5F0EA9E42F0E99D42F0E89C45F0B4
:0101B100222B
:00000001FF
