:1000000012C0189518951895189518951895189563
:100010001895189518951895189518951895189578
:100020001895189518958FED8DBFC0ECE0EC4E2E0D
:10003000DD275D2EEEE7F0E0A0E6B0E088278D93A7
:100040003197E9F78FE289B980E082B988E18AB90E
:1000500066248CE01FD0E6EBF0E013D018D0E6EE7B
:10006000F0E00FD014D013D008D0A0E68C93A0E617
:100070008C9110D0F9CFF894FFCF5F9BFECF8CB15D
:10008000089515D0802D11F005D0FBCF08958DE097
:1000900001D08AE05D9BFECF8CB908953197F1F7CE
:1000A0000895689462F80895E89462F80895C895F0
:1000B00031960020089548656C6C6F205468697310
:1000C0002069732045542D4241534520415652200A
:1000D00054494E59323331332E2E2E5465737420C9
:1000E000525332333200506C6561736520656E7413
:1000F000657220616E79206B657920746F2065636D
:08010000686F20646174610066
:00000001FF
