:020000040000FA
:1000000054EF00F0F76A180FF66E000EF722000E9C
:10001000F86E0900F55012000C0A0D50524F47526D
:10002000414D2054455354205253323332204368BB
:10003000616E6E656C2D31206F662045542D4241F6
:10004000534520504943383632380A0D0000F76ACC
:10005000620FF66E000EF722000EF86E0900F550E2
:1000600012000A0D506C65617365207072657373C0
:1000700020616E79206B6579206F6E206B657962E7
:100080006F61726420796F752077696C6C2073657D
:10009000652074686174206B6579206F6E207363CE
:1000A0007265656E200A0D00F86AD09EEA6AE96AF8
:1000B0007E86110EAF6E040E7F6EA60EAC6E900E95
:1000C000AB6EC150C00B0F09C16E070EB46E800E2F
:1000D000946E076A075096DF072A006E00509EA8AC
:1000E000FED7AD6E340E075CF5E1076A0750AFDF4F
:1000F000072A006E00509EA8FED7AD6E450E075C25
:10010000F5E19EAAFED7AECF06F006509EA8FED718
:06011000AD6EF7D70300FD
:020000040030CA
:0E00000000061E1EF38380003FC03FE03F401D
:00000001FF
;PIC18F8628
