:020000040000FA
:1000000018EF00F0EA6A090EE96EEF500FE00C0EEF
:10001000016E006A002EFED7012EFBD7F70E006E90
:10002000002EFED700000000EF2EF1D761EF00F0A8
:10003000F86AD09EEA6AE96A7E96400EAF6E220E9A
:10004000AC6E900EAB6EC150C00B0F09C16E070EA7
:10005000B46E000E926E936E800E946E000E956ECE
:10006000966E976E040E986E000E996E9A6E070E3D
:10007000B46E9750210E006E002EFED7B450A19C96
:10008000C150C00B0F09C16E010E076E066A065003
:1000900007081DE307C089FF07C08AFF07C08BFF61
:1000A00007C08CFF07C08DFF07C08EFF07C08FFF02
:1000B00007C090FF07C091FF020E086EFA0E096E8E
:1000C000A1D7082EFBD7D8900736062AE0D7DCD771
:0200D00003002B
:020000040030CA
:0E00000000061F1EF3838000FFC0FFE0FF40DC
:00000001FF
;PIC18F8722
