:1004E80045542D4241534535315633284544322928
:1004F8000042592E2E45545420434F2E2C4C544420
:100508002E004D4353353120486967682053706584
:1005180065640035382E39384D487A20457865634A
:040528007574650081
:1003FE00758F01120474E4FF120635750BFF750C30
:10040E0004750DE87B007A00792212005F12056AEE
:10041E007F40120635750BFF750C04750DF97B00C8
:10042E007A00792212005F12056A12052CE4FF127F
:10043E000635750BFF750C05750D0A7B007A007974
:10044E002212005F12056A7F40120635750BFF758A
:10045E000C05750D1B7B007A00792212005F1205C8
:06046E006A12052C8090CB
:10047400C281C283C282E4FFFE0FBF00010EBE2709
:10048400F8BF10F553800F438030120616E4FEFFC8
:100494000FBF00010EBE09F8BFC4F553800F43809F
:1004A40030120616E4FEFF0FBF00010EEF64644E27
:1004B40070F553800F4380301206161205F7EF7063
:1004C400FA53800F4380201206161205F7EF70FAD4
:1004D4007F281205BD7F0C1205BD7F061205BD7F66
:0404E400010205BD4F
:060635004307800205BD31
:1005BD008F08C283C28253800FE508120612538042
:0D05CD000FE5081206111205F7EF70FA2273
:1005DA008F0BD283C28253800FE50B12061253800F
:0D05EA000FE50B1206111205F7EF70FA2253
:05061100C454F042801A
:10061600D281E4FFFE0FBF00010EBE01F8BFF4F564
:03062600C281226C
:1005F700C283D282D281AF80EF30E707C281C28245
:0A0607007F0122C281C2827F00221F
:10056A00750800750900750A22AB08AA09A90A12BA
:10057A00035FFF1205DA7401250AF50AE43509F565
:0C058A0009AB08FAA90A12035F70DE2218
:08052C007FF07E497D027C0096
:100534008F0B8E0A8D098C08E4FFFEFDFCAB0BAA21
:100544000AA909A808D3120378401AE50B24FFF579
:100554000BE50A34FFF50AE50934FFF509E508342B
:06056400FFF50880D32220
:03000000020629CC
:0C062900787FE4F6D8FD7581320203FEF4
:10035F00BB010689828A83E0225002E722BBFE029C
:09036F00E32289828A83E49322CF
:10037800EB9FF5F0EA9E42F0E99D42F0E89C45F0DB
:010388002252
:10000300E517240BF8E60517227808300702780B6A
:10001300E475F0011203C802035F2000EB7F2ED2C8
:10002300008018EF540F2490D43440D4FF30040BD5
:10003300EF24BFB41A0050032461FFE518600215D2
:1000430018051BE51B7002051A30070D7808E475C7
:10005300F0011203C8EF0203B60205967403D20738
:100063008003E4C207F5178B088A09890AE4F518A7
:10007300F51AF51BE51860077F2012003E80F57521
:1000830019FFC201C200C202C203C205C206C208EE
:1000930012000CFF700D3007057F0012004FAF1BDD
:1000A300AE1A22B4255FC2D5C20412000CFF24D0BD
:1000B300B40A00501A75F00A781830D50508B6FF4F
:1000C3000106C6A426F620D5047002D20380D924E3
:1000D300CFB41A00EF5004C2E5D20402024FD2019A
:1000E30080C6D20080C0D20280BCD2D580BAD205ED
:1000F30080B47F2012003E2002077401B51800402F
:10010300F1120003FF12003E020077D208D20680EC
:1001130095120003FB120003FA120003F94A4B7015
:100123000679207A037BFF20022EE518602A7E00E1
:100133008E8275830012038960060EEE651970F0D6
:10014300C2D5EBC0E0EAC0E0E9C0E0EE120296D00F
:10015300E0F9D0E0FAD0E0FB12035FFF60AAEBC046
:10016300E0EAC0E0E9C0E012003ED0E02401F9D0AB
:10017300E03400FAD0E0FBE5190460DCD519D9803E
:10018300877BFF7A027992D202809C791080027970
:1001930008C206C2088008D2D5790A8004790AC247
:1001A300D5E519047002F519E4FAFDFEFF12000308
:1001B300FC7B08200113120003FD7B1030000A12A0
:1001C3000003FE120003FF7B20EC3382D592D5504F
:1001D30013C3E43000069FFFE49EFEE42001039D69
:1001E300FDE49CFCE4CBF8C201EC700CCFCECDCC8B
:1001F300E824F8F870F38017C3EF33FFEE33FEED16
:1002030033FDEC33FCEB33FB994002FB0FD8E9EBF6
:10021300300105F8D0E0C448B201C0E00AEC4D4E0D
:100223004F78207B0070C2EAB5190040BCC0E012D1
:100233000298D0F0D0E0200104C4C0E0C4B201C0F1
:10024300F0120027D0F0D5F0EB0200771203D801AB
:100253001453018E5800E54C00E14201924F019A7C
:0F02630044019A4900FA4301A0550184460184E1
:100272004501844703405000E92D00ED2E01102B6B
:1002820000F123010E2003292A00A94800000108D9
:100292003F3F3F00790AA2D5200314300509B91067
:1002A200020404B9080104A2D52006025001042068
:1002B20002689202B518005034C0E07F2030031962
:1002C2007F30A20272067205500F1202EFC202C202
:1002D20006C205C2087F30800F300503E9C0E01274
:1002E200003E300503D0E0F9D0E0B518CC30051758
:1002F2007F30B9100C12003E7F583004077F78809F
:1003020003B9080312003E3002057F2D02003E7F32
:10031200202008F87F2B2006F322920280CF286E3D
:10032200756C6C2900D2011200033001F8C2017809
:100332001830D50108F60200A92D50434958120081
:10034200032403B405004001E490033B9312002F01
:0D035200743A12002FD20375180402018EB8
:10038900BB010CE58229F582E5833AF583E0225029
:1003990006E92582F8E622BBFE06E92582F8E22273
:0D03A900E58229F582E5833AF583E493228D
:1003B600BB010689828A83F0225002F722BBFE0126
:0203C600F32220
:1003C800FAE6FB0808E6F925F0F618E6CA3AF62236
:1003D800D083D082F8E4937012740193700DA3A3B4
:1003E80093F8740193F5828883E4737402936860C8
:0603F800EFA3A3A380DFC8
:10059600EFB40A07740D1205A1740A309811A899D0
:1005A600B8130CC2983098FDA899C298B811F630C5
:0705B60099FDC299F599229D
:00000001FF
