:020000040000FA
:040000009EEF00F07F
:08000800056ED8CF06F0E0CF31
:1000100007F00001E9CF0DF0EACF08F0E1CF09F0D9
:10002000E2CF0AF0D9CF0BF0DACF0CF0F3CF14F017
:10003000F4CF15F0FACF16F0FBCF17F000C00FF099
:1000400001C010F002C011F003C012F004C013F0A0
:100050009DAA2EEF00F09EBA88EF00F0A3AA34EF1D
:1000600000F0A4BA93EF00F00FC000F010C001F050
:1000700011C002F012C003F013C004F00DC0E9FF7C
:1000800008C0EAFF09C0E1FF0AC0E2FF0BC0D9FFC8
:100090000CC0DAFF14C0F3FF15C0F4FF16C0FAFF5E
:1000A00017C0FBFF055007C0E0FF06C0D8FF1000D7
:1000B000F2CF0EF0F29EF76ACE0FF66E000EF72228
:1000C000000EF86E0900F5500EBEF28E12000C0AFA
:1000D0000D50524F4752414D205445535420496EC4
:1000E0007465727275707420554152542D312061BF
:1000F0006E6420554152542D32206F662045542D98
:100100004241534520504943383732320A0D0000EE
:100110009EAAFED7AECF19F019509EA8FED7AD6E9D
:100120009E9A34EF00F0A4AAFED76ECF19F01950B2
:10013000A4A8FED76D6EA49A34EF00F0F86AD09EA2
:100140000D8EEA6AE96A7E96400EAF6E220EAC6EA4
:10015000900EAB6E7E96400EAF6E220EAC6E900E81
:10016000AB6E7C96400E6F6E220E6C6E900E6B6EB8
:100170007E96400EAF6E220EAC6E900EAB6E7C96ED
:10018000400E6F6E220E6C6E900E6B6EC150C00BE7
:100190000F09C16E070EB46E800E946E840E986EB9
:1001A000C00EF2129D8AA38A1B6A1B5081DF0009D0
:1001B00005E01B2A9EA8FED7AD6EF7D71B6A1B5021
:1001C00077DF000905E01B2AA4A8FED76D6EF7D7DC
:0401D000FFD7030052
:020000040030CA
:0E00000000061F1EF3838000FFC0FFE0FF40DC
:00000001FF
;PIC18F8722
