:020000040000FA
:10000000CFEF00F0E950066E18C0EAFF18C0E2FF1B
:100010001650E96E120FE16E800E1316080E076E71
:10002000D890D8B0133E12D80632072EFAD7000067
:100030000BBA13300BD8CDEC00F0D88007D80F5096
:10004000036E0E508FEC00F0CCEF00F00BAE0BD037
:10005000EF5014100BAC1418EF6EE7501410D8A02A
:100060001418E76E0AD0EF501410D8A014180BBC67
:100070001418EF6E141CE71600D00B501F0B000F66
:10008000016E0A50110FD8B0012A00009DEF00F058
:10009000139E0950D8B4138E050E086E270E036EFA
:1000A000100E0CD8030E036EE80E08D8036A640E17
:1000B00005D8036A0A0E02D8045008D0026E055013
:1000C000016E0450006EAAEC00F00050006E084E65
:1000D000139E095003E0085CD8B012000050D8A469
:1000E000139E13BE1200300FC6EF00F0E836E8365C
:1000F0003C0B0109C212C009C216C050F80B03091B
:10010000C06E000E016E320E9DEC00F0C282C2B2D3
:10011000FED7C450016EC350CCEF00F0036A026EEC
:10012000FF0E0226D8A00326D8A0CCEF00F0030EC5
:10013000016EE70E02D8F4D7016AFD0F006EFF0EC4
:1001400000D001D00026040000D0D8A00126D8A0FD
:100150001200F8D7056A046A100E066E01340436E0
:1001600005360250045E0350D8A0033C055E07E24A
:10017000025004260350D8B0033C0526D890003620
:100180000136062EEBD70050CCEF00F0E96EFB6A8B
:100190001150FA6E1050F96E000104001200FF0EAB
:1001A000926EC16AC08E820E166E0F0E186E400ED1
:1001B000146E540E0A6E0B6A0E6A0F6A0C0E23DF61
:1001C000540E21DF650E1FDF730E1DDF740E1BDF63
:1001D000200E19DF410E17DF6E0E15DF610E13DFE3
:1001E0006C0E11DF6F0E0FDF670E0DDF200E0BDFC1
:1001F000740E09DF6F0E07DF200E05DF440E03DFEC
:10020000690E01DF670EFFDE690EFDDE740EFBDE98
:10021000610EF9DE6C0EF7DE200EF5DE630EF3DE06
:100220006F0EF1DE6E0EEFDE760EEDDE650EEBDEAE
:10023000720EE9DE740EE7DE650EE5DE720EE3DEB9
:10024000200EE1DE6F0EDFDE660EDDDE200EDBDE71
:10025000500ED9DE490ED7DE430ED5DE200ED3DE9A
:100260004D0ED1DE430ECFDE550ECDDE0A0ECBDEB7
:100270000D0EC9DE820E166E0F0E186E400E146E35
:10028000540E0A6E0B6A0E6A0F6A430EBCDE6F0EC6
:10029000BADE6E0EB8DE6E0EB6DE650EB4DE630E2E
:1002A000B2DE740EB0DE200EAEDE610EACDE6E0E7F
:1002B000AADE610EA8DE6C0EA6DE6F0EA4DE670E4F
:1002C000A2DE200EA0DE760E9EDE6F0E9CDE6C0E91
:1002D0009ADE740E98DE610E96DE670E94DE650E71
:1002E00092DE200E90DE740E8EDE6F0E8CDE200EFF
:1002F0008ADE520E88DE410E86DE300E84DE280E47
:1003000082DE410E80DE4E0E7EDE300E7CDE290E59
:100310007ADE0A0E78DE0D0E76DE820E166E0F0E77
:10032000186E400E146E540E0A6E0B6A0E6A0F6A37
:10033000520E69DE650E67DE730E65DE750E63DED6
:100340006C0E61DE740E5FDE200E5DDE6F0E5BDE16
:10035000660E59DE200E57DE410E55DE440E53DE8A
:10036000430E51DE200E4FDE770E4DDE690E4BDE62
:100370006C0E49DE6C0E47DE200E45DE640E43DE59
:10038000690E41DE730E3FDE700E3DDE6C0E3BDE0D
:10039000610E39DE790E37DE200E35DE6F0E33DE6C
:1003A0006E0E31DE200E2FDE530E2DDE630E2BDEA1
:1003B000720E29DE650E27DE650E25DE6E0E23DE4B
:1003C000280E21DE520E1FDE530E1DDE320E1BDE06
:1003D000330E19DE320E17DE290E15DE0A0E13DE7D
:1003E0000D0E11DE000E82DE1A6E01C01BF0820EB1
:1003F000166E0F0E186E400E146E540E0A6E0B6AB7
:100400000E6A0F6A0C0E03EC00F0560E03EC00F0BF
:10041000610E03EC00F06C0E03EC00F0750E03ECC3
:1004200000F0650E03EC00F0280E03EC00F0410E26
:1004300003EC00F04E0E03EC00F0300E03EC00F085
:10044000290E03EC00F0200E03EC00F03D0E03EC4F
:1004500000F0200E03EC00F0096A1AC004F01BC083
:1004600005F0040E106E116A13DE640E57DEBAD763
:040470000300FED7B0
:020000040030CA
:04000000FFF6FFEE1A
:02000600BBFF3E
:00000001FF
