:020000040000FA
:1000000016EF00F0EA6A090EE96EEF500EE00C0EF2
:10001000016E006A002EFED7012EFBD7F70E006E90
:10002000002EFED700D0EF2EF2D7000CF86AD09E3B
:10003000EA6AE96AC150C00B0F09C16E070EB46EBF
:10004000000E926E936E946E956E966E976E040E81
:10005000986E000E996E9A6E070EB46E9750210E30
:10006000006E002EFED7B450A19CC150C00B0F09EA
:10007000C16EFF0E896E8A6E8B6E8C6E8D6E8E6E6B
:100080008F6E906E916E010E076E066A065005081F
:100090000DE307C089FF040E086EFA0E096EB2DF89
:1000A000082EFBD7D8900736062AF0D7FF0E896EA8
:1000B000010E076E066A065009080DE307C08AFFA5
:1000C000040E086EFA0E096E9DDF082EFBD7D8903D
:1000D0000736062AF0D7FF0E8A6E010E076E066AF3
:1000E000065009080DE307C08BFF040E086EFA0ED8
:1000F000096E88DF082EFBD7D8900736062AF0D77E
:10010000FF0E8B6E010E076E066A065007080DE3A0
:1001100007C08CFF040E086EFA0E096E73DF082EFE
:10012000FBD7D8900736062AF0D7FF0E8C6E010E4B
:10013000076E066A065007080DE307C08DFF040E20
:10014000086EFA0E096E5EDF082EFBD7D8900736D0
:10015000062AF0D7FF0E8D6E010E076E066A065056
:1001600007080DE307C08EFF040E086EFA0E096E35
:1001700049DF082EFBD7D8900736062AF0D7FF0EA6
:100180008E6E010E076E066A065004080DE307C066
:100190008FFF040E086EFA0E096E34DF082EFBD7AF
:1001A000D8900736062AF0D7FF0E8F6E010E076E25
:1001B000066A0650070810E307C008F0081E08C0CA
:1001C00090FF040E086EFA0E096E1CDF082EFBD796
:1001D000D8900736062AEDD7FF0E906E010E076EF7
:1001E000066A0650070810E307C008F0081E08C09A
:1001F00091FF040E086EFA0E096E04DF082EFBD77D
:10020000D8900736062AEDD7FF0E916E3CD7030033
:020000040030CA
:0E00000000061E1EF38380003FC03FE03F401D
:00000001FF
;PIC18F8628
